:10000000402000201901000015010000150100002A
:1000100000000000000000000000000000000000E0
:1000200000000000000000000000000015010000BA
:100030000000000000000000150100001501000094
:100040001501000015010000150100001501000058
:100050001501000015010000150100001501000048
:100060001501000015010000150100001501000038
:100070001501000015010000150100001501000028
:1000800015010000150100001501000039040000F1
:100090001501000015010000150100001501000008
:1000A00015010000150100001501000015010000F8
:1000B0000000000010B5064C2378002B07D1054B3B
:1000C000002B02D0044800E000BF0123237010BDC4
:1000D0000000002000000000182A0000084B10B5A6
:1000E000002B03D00749084800E000BF0748036819
:1000F000002B00D110BD064B002BFBD09847F9E731
:100100000000000004000020182A0000182A000047
:1001100000000000FEE70000F8B52A4A2A4B9A4288
:1001200011D01A00294B9A420DD2294A03339B1A47
:100130009B0801339B000022234822498C5884509D
:1001400004329A42FAD1234A234B9A420AD2D34329
:1001500021495B1803218B4304339B18002102C201
:100160009342FCD11D4AFF211D4B8B439360FD3907
:1001700090235B001B4AD1501B4AD3780325AB4325
:1001800002242343D370D3780C27BB430826334380
:10019000D370164B987B30229043202210439873E3
:1001A000997BB943314399739A7BAA4322439A734B
:1001B0000F4A536880210B4353600E4B98470E4BF8
:1001C0009847FEE7182A00000000002000000020E9
:1001D00004000020000000203C00002000ED00E0B2
:1001E0000000000000700041005000410048004144
:1001F00000400041F12800000D040000284BC222FD
:10020000D2009A601A6A27490A401A621A6A802143
:100210000A431A621A6A7E390A431A620122224B81
:100220001A701A005378DBB2802BFBD01E4B802251
:1002300052009A601D4A5A601A005378DB09FCD1BB
:10024000194B5A8892B25A80194A5A80194A5A80D0
:10025000194A5A80194A5A801A005378DBB2802B07
:10026000FBD0174B00221A725A729A72DA729A698C
:1002700040210A439A61DA6938390A43DA61196A16
:10028000802252020A431A62196A8022D2020A4369
:100290001A62196A802252010A431A627047C046E4
:1002A00000080040FFFCFFFF000C00400006290092
:1002B000054000001E400000214000001C400000DE
:1002C000000400400122084B1A701A00D379DB09A0
:1002D000FCD1054B41225A703F3A1A701A00D3796B
:1002E000DBB2802BFBD0704700480042164A1378DF
:1002F000DBB21370537EDBB2802BFBD00122124B9A
:100300001A701A00537EDBB2802BFBD00E4B822278
:100310005A70813ADA70C021890099800B491961BD
:100320002A215A541A7B02210A431A731A00537E57
:10033000DB09012BFBD00622034B1A701A00537EF7
:10034000DBB2802BFBD07047004000420118000F49
:1003500010B50E4B3121585C0F2202401020024391
:100360005A5443241A5D012002431A555A5C343C06
:10037000A24302435A5411315A5C02435A549968B9
:10038000802252010A439A6010BDC04600440041D9
:100390001B4A116880231B030B4313600022194B77
:1003A0001A801A00D37BDB09FCD1164B1A88164938
:1003B0001140A022D2000A431A801A8860218A4381
:1003C00020210A431A801A880C218A4304210A43F7
:1003D0001A80F0221A765A7B01210A435A735A79FD
:1003E00004218A435A711A00D37BDB09FCD1054AE8
:1003F000138802210B431380D37BDB09FCD17047A8
:1004000000E100E000300042FFF8FFFF10B5054BAF
:100410009847054B9847054B9847054B9847054B20
:100420009847FEE7FD01000051030000ED020000C7
:10043000C502000091030000F0B5DE4657464E4667
:100440004546E0B587B04C4A137B02210B4313733A
:10045000537EDB09012BFBD0474A537EDB09012B7E
:10046000FBD0454B588B80B2444B9847444B1860A7
:100470001868444CA047444D444A454BA8470022C5
:10048000444B454EB047454B9B469847444F3860D8
:100490003868444B1B681E1C434A924612680092FF
:1004A0004249884609680291414B99461B6803936B
:1004B000A04704900591301CA0473E4A3E4BA847F8
:1004C00002000B00049805993C4EB047049005913A
:1004D0000098A0473A4A3B4BA84702000B000498FB
:1004E0000599394EB047009001910298A047374ACC
:1004F000374BA84702000B0000980199B0470090C5
:1005000001910398A047334A334BA84702000B00E0
:1005100000980199294DA847D847304D2860286890
:100520002F49304B9847A047184A194B1A4CA047FF
:10053000D8472D4B186018682C4B984780B22C4B2D
:10054000188143461B684A4613602B684246136075
:10055000144B1B68524613603B68124A1360254ACD
:10056000937B01210B43937307B03CBC90469946A3
:10057000A246AB46F0BDC04600400042F90C000068
:1005800028000020392500000D1A00006666666606
:1005900066660A4000FEAF40A5130000DD2500009E
:1005A0001C0000202000002024000020300000203B
:1005B00034000020AE47E17A14AEF73F0D1F000073
:1005C000BB270F0BB5A6EF3F850D00002B8716D973
:1005D000CEF7F53FF1F44A598638EC3F2C00002065
:1005E00000C07F44410700003800002011070000D0
:1005F0000048004200300042002243088B4274D37E
:1006000003098B425FD3030A8B4244D3030B8B4213
:1006100028D3030C8B420DD3FF22090212BA030C1C
:100620008B4202D31212090265D0030B8B4219D3FD
:1006300000E0090AC30B8B4201D3CB03C01A52411D
:10064000830B8B4201D38B03C01A5241430B8B4265
:1006500001D34B03C01A5241030B8B4201D30B034E
:10066000C01A5241C30A8B4201D3CB02C01A524175
:10067000830A8B4201D38B02C01A5241430A8B4238
:1006800001D34B02C01A5241030A8B4201D30B0221
:10069000C01A5241CDD2C3098B4201D3CB01C01A3B
:1006A000524183098B4201D38B01C01A5241430945
:1006B0008B4201D34B01C01A524103098B4201D333
:1006C0000B01C01A5241C3088B4201D3CB00C01AA0
:1006D000524183088B4201D38B00C01A5241430818
:1006E0008B4201D34B00C01A5241411A00D201463D
:1006F000524110467047FFE701B5002000F006F8B0
:1007000002BDC0460029F7D076E770477047C04663
:100710009E2110B5C905041C02F01AF8002803D167
:10072000201C00F0C9FA10BD9E21201CC90500F054
:1007300027F900F0C1FA80231B069C466044F2E7CB
:10074000F8B557464E464546DE46E0B547024600F8
:1007500088467F0A360EC40F002E47D0FF2E24D0C5
:10076000FB008027FF041F43002399469A467F3EE3
:1007700043465D025800DB0F6D0A000E984643D0D9
:10078000FF283BD0EB0080250022ED041D437F387D
:100790003618731C41469B464B46614013430F2B52
:1007A00064D875489B00C3589F46002F42D1082348
:1007B0009946063BFF269A46DAE74146022A28D0A8
:1007C000032A00D1CEE0012A00D0ACE01140002085
:1007D0000022CCB24002D205400AE4071043204375
:1007E0003CBC90469946A246AB46F8BD002F15D1B9
:1007F00004239946033B00269A46B9E7FF200222CC
:10080000002DC5D00322C3E7002D19D100200122FD
:10081000BEE70124FF220C400020DBE7380001F096
:10082000A1FF7626431F9F4000237642361A994641
:100830009A469DE70C239946093BFF269A4697E77F
:10084000280001F08FFF431F9D4076235B42181A5A
:1008500000229DE780200024C003FF22BAE73D006C
:100860005246ABE73D0021005246A7E73B0C9C46B1
:100870002A04120C2B0C1400604665463F043F0C02
:100880007C4342435D437B43270C9B18FF18BA42CD
:1008900003D980235B029C46654424043A04240C5B
:1008A000121993015C1EA3413F0C920E7D191A434D
:1008B000AD0115432B0104D501235E466A081D4096
:1008C000154332007F32002A25DD6B0704D00F2349
:1008D0002B40042B00D004352B0103D53200274BCD
:1008E00080321D40FE2A94DC0124A801400AD2B2C5
:1008F0000C406FE78020C003074207D0054205D1B6
:1009000028434002400A4446FF2263E7384340023E
:10091000400AFF225EE70124A31A1B2B05DD0C40D1
:100920000022002056E75E46CBE72A002020DA406E
:10093000C31A9D402B005D1EAB4113435A0704D0E0
:100940000F221A40042A00D004335A0104D501248E
:1009500001220C4000203DE701249B01580A0C4075
:10096000002237E780200124C00328434002400AC8
:100970000C40FF222EE7C04638290000FFFFFFF79A
:10098000F0B54F46D64646464400C0B5C20F4702B2
:100990004802400A844666467B0A4800C90F9A46C8
:1009A000240E1500DB00000E8946F600FF2800D15A
:1009B0008FE001214F464F403900914266D0221A04
:1009C000002A00DC9DE000283DD1002E00D18BE004
:1009D000511E002900D0B5E001249B1B5A0144D5CB
:1009E0009B019F09380001F0BDFE05388740844215
:1009F00000DD96E0041B3A0020200134E240041B95
:100A0000A7403B005F1EBB41002413435A0704D09C
:100A10000F221A40042A00D004335A0127D501348A
:100A2000FF2C00D179E001229B015B0AE4B22A404D
:100A30005B02E405580AD207204310431CBC9046D1
:100A40009946A246F0BDFF2CE0D08021C9040E4398
:100A50001B2A7BDC31002020D140821A9640721E76
:100A600096410E439B1B5A01BAD45A07D0D101229A
:100A7000DF082A40FF2C33D1002F00D1A8E08023CB
:100A8000DB033B435B025B0AFF24D1E7211A002909
:100A90004CDD00282AD0FF2CB8D08020C0040643AB
:100AA0001B2900DDAFE030002027C840791A8E40B6
:100AB000711E8E4106439B195901D6D50134FF2C76
:100AC00000D185E001227A491A405B080B401343AC
:100AD0009CE7002E00D070E76BE73B1EC5D10022DB
:100AE0007B025B0AE4B2A3E714008FE7002E4DD02F
:100AF000481E002857D19B1901245A01B5D502245C
:100B0000E0E7002A25D1621CD2B2012A72DD9F1BC8
:100B10007A0135D5F71A0D0064E7012200232A4037
:100B200086E73B00634A241A13406FE700296CD123
:100B3000611CC8B201284EDDFF2949D09B195B0812
:100B40000C0063E7FF2A41D00A0081E701269B1BC6
:100B500089E7002C1CD0FF2821D08024E4045242D5
:100B600023431B2A00DD96E01C002025D440AA1A4E
:100B700093405A1E93412343F31A04000D002DE7BE
:100B8000002F00D02EE700220024A9E70C003DE74B
:100B9000002B58D0D243002AEED0FF28E1D13300F9
:100BA000FF240D0032E7FF2910D0010078E7002B69
:100BB0006ED0FF24002E00D128E780225146D203B8
:100BC000114203D06146114200D13300FF241DE7DA
:100BD000FF2400232CE7002CE9D1002B63D0002E4A
:100BE00000D113E79B195A0100D43EE7314A0C00AB
:100BF00013400BE7002C1ED1002B2FD1002E4FD01D
:100C000033000D0002E7012655E7002C1FD1002B11
:100C100043D0C94300290BD0FF2839D01B2944DC1D
:100C20001C002027CC40791A8B40591E8B4123434E
:100C30009B19040040E7002B1AD1002E24D18027F5
:100C40000022FF031BE7330004000D00DEE6FF284F
:100C50001ED08024E40449422343DFE7002E00D164
:100C6000D4E69F1B7A0100D437E7F31A0D00CDE6D6
:100C7000FF24002E00D1C9E680225046D203104244
:100C8000A4D060461042A1D133000D00FF24BDE680
:100C90003300FF24BAE601236EE733000400B5E613
:100CA000002700221CE73300B0E60123C0E7C0465E
:100CB000FFFFFF7DFFFFFFFB41024300C20F490A18
:100CC0001B0E00207E2B0DDD9D2B0CDC80200004F4
:100CD0000143952B0ADC9620C31AD9404842002ACA
:100CE00000D108007047034BD018FBE7963B9940B2
:100CF000F4E7C046FFFFFF7F10B5041E27D001F0C8
:100D000031FD9E231B1A962B0ADC9622D21A9440A0
:100D10006402640ADBB26402DB05600A184310BD9A
:100D2000992B17DC9922D21A002A27DD9440220041
:100D3000134C1440510704D00F210A40042A00D05C
:100D40000434620112D4A401640ADBB2E3E7002395
:100D50000024E0E7B9222100D21A91400A00511E76
:100D60008A410521091ACC401443DBE7044B1C409F
:100D70009F23A4011B1A640ADBB2CCE72200D7E749
:100D8000FFFFFFFBF8B54546DE4657464E460C03CF
:100D9000E0B54E00C90F88460D00610A440F0C43B0
:100DA000C70019035800DB0F9B464B0A510F0B433A
:100DB000760D400D1900D200D84500D1AEE0351AAD
:100DC000002D00DCF6E000280FD1134300D1DBE05A
:100DD0006B1E002B00D037E1BA1A9742BF41641A4C
:100DE0007F42E41B0126170024E0C64B9E424DD0F3
:100DF00080231B041943382D00DD07E11F2D00DD82
:100E000038E12020431B9A460B0050468340994608
:100E100013004846EB401843030050468240501EE2
:100E20008241E9401A43BA1A611A9742A441170055
:100E300064420C1B230262D56402650A002D00D1B6
:100E4000DFE0280001F08EFC0300083B1F2B00DDD3
:100E5000D2E020223C00D21A9D40D4409F4025433E
:100E60009E4200DDC4E09E1B731C1F2B00DDF1E0E1
:100E7000202238002900D21AD840914097402C00F7
:100E80000143781E8741DC4000260F437B0709D0D1
:100E90000F233B40042B05D03B1DBB42BF417F428B
:100EA000E4191F0023022CD5964B01369E4200D137
:100EB0009AE04546944BFF081C40600776056402A3
:100EC0000743240B760D00212403230B0C0D8F4ABE
:100ED00024051C431440330523435B00ED075B08E6
:100EE0002B43380019003CBC90469946A246AB46BD
:100EF000F8BD6446044300D111E2040067467B0755
:100F0000C6D145466007FF080743E4087D4B9E4273
:100F100030D024037605240B760DD4E7331A9A4695
:100F2000002B78DD002831D076488642AED0802074
:100F3000000401435346382B00DCE9E00A43511E0C
:100F40008A410021D219BA42BF4109197C421700D7
:100F50000C192302D3D56B4B01369E4200D13AE1E6
:100F60000120694B1C407B0807401F43E0070743F3
:100F700064088BE723003B4300D1CBE180221203BE
:100F800014432403240B9EE72E007FE70800104340
:100F900000D1B4E0581E002800D0DEE0BA18BA42F2
:100FA0009B4164185B42E418170001262302A6D572
:100FB0000226D5E7002D6ED1701C4005400D01289A
:100FC00000DCF9E0B81A844687428041E51A4042C5
:100FD0002D1A280200D489E0D71BBA4292411C1B6B
:100FE0005242A51AD84629E74546002400276AE759
:100FF000454CF61A2C4049E73D002838854000272B
:101000002EE7380001F0AEFB20301DE70A43511EE9
:101010008A41002107E7002B00D0F3E0701C430554
:101020005B0D012B00DCADE0364B984200D1D1E0E6
:10103000BA18BA42BF4164187F42E419E707520860
:1010400017436408060021E72E48854200D193E04B
:101050001D00D0E629001F3EF140202B00D18DE07D
:101060004022D31A9D402F437D1EAF4100240F43E1
:10107000002644E72B000800203BD8400300202D29
:1010800000D17DE04020451BA9400A43511E8A4102
:1010900000211A43C7E6002E50D01A4EB04257D056
:1010A00080266B429946360434434B46382B00DD8C
:1010B000D6E01F2B00DD35E12026F51A2600AE40D4
:1010C000B2463E00DE40AC46350056462E436546ED
:1010D000AF407D1EAF41DC403743D71BBA4292413F
:1010E0000C1B5242A41A0600D846A3E66446674683
:1010F0002C4300D0A2E600250026002706E71E00AC
:10110000C4E6C046FF070000FFFF7FFFFFFF0F8020
:101110001F2B63DC2020C31A080098409C4683469E
:1011200053461000D84003005846184363469A407F
:10113000531E9A4153460243D94003E726003E43DB
:1011400006D0EB439946002BC7D0944EB042ACD1A9
:101150000C0017000600D84698E6904B9A450BD035
:101160008246E7E6002800D09EE01800104300D138
:10117000E9E01C001700D846884E87E6002572E794
:10118000002182E723003B43002E00D0ABE0002B80
:1011900000D1E7E00B00134300D177E6BA18BA425A
:1011A000BF4164187F42E419230200D4F2E07C4B73
:1011B00017001C40060069E620003843002ED1D1FC
:1011C00000285BD11C00144300D1A8E01C001700CC
:1011D000D8465BE606000024002797E650460B0041
:1011E0002038C34099465346202B00D195E0402338
:1011F00050461B1A99400A43511E8A414B46002112
:101200001A439FE6002E30D126003E4367D0DB43D1
:101210009A46002B1CD0614EB04260D05346382B0A
:1012200000DD96E01F2B00DD9FE02026F31A26004C
:101230009E409C46B34653463E00DE4033005E4629
:101240001E4363469F407B1E9F415346DC4037430D
:10125000BF189742924164185242A418060078E6DB
:1012600027437C1EA741002437E74C4EB04236D0BE
:1012700080265B4236049A463443CFE71800104379
:1012800000D103E6B81A84466745AD41E01A6D42C5
:10129000401B050200D42CE6D71BBA4292411C1B0E
:1012A0005242A41AD846F1E51800104300D163E772
:1012B000F808670707438020E4080003044208D0C9
:1012C000DD08054205D1D208590711430F002C0053
:1012D000D8467B0FE4001C43FF00304ED6E50C00DF
:1012E00017000600D2E5002B38D00B00134300D1C5
:1012F00042E7F808670707438020E4080003044238
:10130000E7D0CB080342E4D1D208490711430F00CC
:101310001C00DEE700270024D5E500216BE700254F
:101320000027F3E54E462500203EF5404B462E00B3
:10133000202B2DD04025ED1AAC4027437C1EA74121
:1013400000243743C9E6802400252403134E0027D8
:10135000DCE527437C1EA741002479E70C00170039
:101360000E4E93E50C00170090E556462300203EF4
:10137000F34099465346202B0ED0402356469B1BE4
:101380009C4027437C1EA7414B4600241F435FE738
:101390000024D2E71700B2E50024F2E7FF070000BF
:1013A000FFFF7FFFF0B557464546DE464E46E0B5A7
:1013B0004C000E0387B0834692461D008046360BD4
:1013C000640DCF0F002C4FD06F4B9C4235D0802343
:1013D000420F1B04F600134333439946C30098465B
:1013E0006A4B00269C460023644403932B031B0B8B
:1013F0009B466B00ED0F50465B0D01955ED0624A37
:10140000934253D05A46D1008022400F1204024327
:101410000A4393465246D1005C4A944600226344F4
:101420003800684084460290E41A16430F2E00D913
:10143000B4E0574BB6009B599F460300334399468F
:101440006CD100239846023308260393CEE7CB469F
:101450004146039A0197022A65D1019B4A4C9C465A
:101460000023002298466BE00300334399464ED098
:10147000002E00D1BCE1300001F074F903000B3BF9
:101480001C2B00DDACE11D22D31A5A460100DA40C4
:1014900008398E401300334399465B468B4098468B
:1014A00000233C4C0026241A03939FE751465A46DA
:1014B000114329D1002293460232B1E75946014334
:1014C0001ED05B46002B00D19EE1584601F04AF940
:1014D00003000B3B1C2B00DD8FE102005946083A4C
:1014E00091408B461D21CB1A5146D9400B005946DD
:1014F0000B4351469B469140264B00221B1A8FE717
:10150000002301229B468BE75146032288E70023F4
:101510009846013304260024039367E70323B1466A
:1015200003930C2662E7032A00D15CE2019B012AA7
:1015300000D0E4E113409C4600230024002298469A
:1015400000211203130B0A0D12051A432305124C36
:1015500040462240134362465B00D2075B081343B8
:10156000190007B03CBC90469946A246AB46F0BD78
:10157000002380229C4612039846034CE0E7002398
:10158000014C00229846DBE7FF07000001FCFFFF4B
:10159000782900000DFCFFFFFFFF0F80D94500D91F
:1015A00039E100D134E1002346464D469A46013CDC
:1015B0005B460A0E1B021A430B02170C039313041B
:1015C0001B0C3900280090460193FFF715F8020024
:1015D000019B83465A43280039009146FFF792F851
:1015E000350C09040D43A9450DD95B464544013B23
:1015F000A84500D93AE1A94500D837E102235B426A
:101600009C464544E3444B46EB1A390018000493CA
:10161000FEF7F2FF019B0500434339000498994609
:10162000FFF770F8330409041B0C0B43994509D9E3
:1016300043446A1E984500D91AE1994500D817E13C
:10164000023D43444A469B1A5A4612042A430399D0
:101650009346100C0A0C914609045A46090C4E4652
:101660000D001204120C454305915143724370431F
:1016700052190E0CB218954203D980256D02AC4662
:101680006044150C09041204090C281852188342EE
:1016900000D2CEE000D1C8E01D1A53469E1AB245D2
:1016A00092415242AB1A9A46984500D117E139004F
:1016B0001800FEF7A1FF019B050043433900504687
:1016C0000493FFF71FF804980B04310C1943884268
:1016D00009D941446B1E884500D907E1884200D8EA
:1016E00004E1023D4144049BCB1A180039000493E5
:1016F000FEF782FF019B8246434339000498019321
:10170000FFF700F801980B043104090C19438842D3
:101710000DD953464144013B884500D9E8E0884251
:1017200000D8E5E002235B429C464144E244019B31
:101730002D04CE1A51462943059D4F462A000B041D
:10174000080C1B0C5A4345437B4378435B19170C29
:10175000FB189D4203D980256D02AC4660441D0CE8
:1017600012041B04120C28189B18864200D293E026
:1017700000D18EE001231943A04BE318002B00DCBD
:1017800099E04A0700D09EE05A46D20106D55A4653
:101790009B4B1A4080239346DB00E318994A9342FF
:1017A00068DD0123029A984C1A400023944698461B
:1017B0000022C5E680224B46120313420AD05B4644
:1017C000134206D11A431203120BAC4688468E4CC4
:1017D000B6E64B461A431203120BBC468A4CAFE6E0
:1017E00003005A46283B9A4000239146984657E604
:1017F000584600F0B7FF203040E603005246283B31
:101800009A400021934677E600F0ACFF20305FE677
:10181000884500D2C7E64B46DE075D0843465B08B5
:101820001E434346DB079A46C2E60025924500D395
:1018300033E7039E5946B446E244B245AD416D429A
:101840004544EB180139984507D2984200D97FE00A
:1018500000D1BCE01D1A8B461FE79845FAD1039DC5
:101860005545F2D943468B461D1A16E79B46CAE6F4
:101870001500E7E65A46C90852070A435B05904639
:101880005C0D5A460123029952021940120B8C46F4
:1018900056E6002B00D16FE746444A1EB04529D9D1
:1018A0001100864200D065E7039A934200D061E7B9
:1018B00062E7012149420120C21A382A21DD029B38
:1018C00003409C4638E60F220A40042A00D15BE719
:1018D0000A00111D914292415242934454E7474BF2
:1018E000E318002BE5DD01225242F2E71D00FAE683
:1018F0009A461CE7B04239D86ED011003AE70293FD
:101900003AE71F2A3CDC20239B1A0C0058469940DA
:1019100098404B1E99415B46D440D3402043084336
:101920001A00430709D00F230340042B05D0010000
:10193000081D88429B415B42D21813023AD501230D
:10194000029A01241A400023944698460022F7E5A3
:10195000022149428C46039DE344AC46E244AA4539
:10196000AD416D424544ED182D1A96E68A1E039945
:101970004D008D42894149424144761803958FE7D5
:101980001F204042C31A5846D8400300202A28D0BE
:1019900040205D46821A954029434A1E91411943D1
:1019A000072300220B4009D00F2300220B40080020
:1019B000042BBDD1010053075202120BC908194371
:1019C000012388460299002419408C46B8E5524507
:1019D000BED88B46002560E6039D9D42C6D311000C
:1019E00062E70025D8E780225B4612031A43019B79
:1019F0001203120B9C468846034CA1E5FF0300002E
:101A0000FFFFFFFEFE070000FF070000F0B557468E
:101A10004546DE464E46E0B50C0398464E00230B85
:101A200087B0070092469B46760DCD0F002E6BD0F7
:101A30006D4B9E4235D080245B46420F2404DB0070
:101A400014431C43C3009946684BA3469C4600239D
:101A500000276644029343461C035A00DB0F50469E
:101A6000240B520D984600D176E05F4B9A426DD020
:101A70008023410F1B040B435C49E4008C461C434C
:101A8000C300002062444146B6186940721C0191AF
:101A9000944607430F2F00D9B0E0554ABF00D259F2
:101AA00097465B460343994600D087E000239B4658
:101AB000023308270293CEE742460192022867D0FC
:101AC000032800D10EE2012800D062E100230024A7
:101AD0000022994601990140CDB2002112030B0D5D
:101AE000120B1B051343434A240513401C43640097
:101AF000ED0764082C434846210007B03CBC9046E3
:101B00009946A246AB46F0BD034399464FD05B468B
:101B1000002B00D189E1584600F024FE03000B3B66
:101B20001C2B00DD7AE11D22D31A3A0001005C462D
:101B3000DA4008398C4013008F4023439B46B94656
:101B400000232D4E0027361A029384E75346234381
:101B50002AD10024022096E75346234320D0002CAC
:101B600000D157E1200000F0FDFD03000B3B1C2BD2
:101B700000DD49E11D21CB1A51460200D9405346F0
:101B8000083A944093400C431B4A121A00207AE70B
:101B90000125019B144C1D400023002299469CE71F
:101BA0000024002201206EE7534603206BE7002348
:101BB0009B4601330427002602934CE7032381460A
:101BC0000C27029347E78022002300251203994641
:101BD000054C82E75C464B4602986FE75C464B46F5
:101BE000019502986AE7C046FF07000001FCFFFF6D
:101BF000B8290000FFFF0F800DFCFFFF4A46494651
:101C0000170C1A0C1B041B0C08041900000C414390
:101C10001500884619007D437943039589462900BC
:101C2000150045434D44029545462D0CAA46029D9C
:101C30005544A94506D98A46802149028946CA44A5
:101C400051460391290C0491414609042D04090CC5
:101C500088462900250C24044144240C05912100C8
:101C600041438846210079438A46684341465044AF
:101C70008146080C48446F43824503D980214902BC
:101C800089464F44010C8946390049440291414636
:101C90000F0404993F0C88460004C0198044414653
:101CA000049159460F0C0904090C884659438A4689
:101CB00039005143894641464A435146090C8B46F7
:101CC0007B43D2185A44934203D980235B029B463C
:101CD000D94451460904090C8A46414661437C4374
:101CE000130C12044B445244A1468A463C00414620
:101CF0006C434D4351464D440F0C7D19A94503D902
:101D00008021490288464444049F0399B8464144CF
:101D10008B468345804141428846514608042F0442
:101D2000000C3F185846029910188946904292417B
:101D30004F44BA46524299469346C244D144CB449A
:101D40008F42BF41C245894199459B41934592418C
:101D50007F4249422D0C52420F435B4213437F198D
:101D6000FF185B463C19DB0D059A64021C434302D5
:101D700013435D1EAB415A46C00D03435202134349
:101D8000E20156D501205A0803401343E2071343EA
:101D900064085A48604400284DDD5A0709D00F22D4
:101DA0001A40042A05D01A1D9A429B415B42E4184E
:101DB0001300E20104D58020514AC0001440604461
:101DC000504A904200DDE3E60125DB0862071A4332
:101DD0006402019B9146220B4405640D1D407CE684
:101DE000802259461203114208D0144206D12243E0
:101DF0001203120B45469946434C6EE65B461A4366
:101E00001203120B404C68E603005446283B9C40EA
:101E10000023B9E600F0A6FC2030A6E60300283B2C
:101E20009F400023BB4699468AE600F09BFC203089
:101E300074E6B446ADE701252A1A382A06DD019B6F
:101E400000241D4000230022994646E61F2A21DC7B
:101E500020252000AD1A1E00AB40A840D6405D1ED4
:101E6000AB4130431843D440430709D00F2303400C
:101E7000042B05D00300181D98429B415B42E418D7
:101E8000230221D50125019B01241D4000230022AE
:101E9000994622E61F2521006D42281AC1400800FC
:101EA000202A1DD05F35AA1A944023435C1EA3410B
:101EB000072503431D400022002D09D00F220024D6
:101EC0001A401800042AD6D1030065076402220BC9
:101ED000DB082B4301259946019B00241D40FCE5AE
:101EE0000024E2E780220125120322430199120314
:101EF000120B0D409946044CEFE5C046FF0300006D
:101F0000FFFFFFFEFE070000FF070000F0B546469A
:101F1000D6464F460C03C0B5CD0F4E00610A440FA4
:101F20000C43C1005800400D84468A460F00190337
:101F3000500F490A0143C648760DA846DB0FD20070
:101F4000844500D1D8E001204340AB4200D1A6E057
:101F50006046351A002D00DC05E1002810D10B0089
:101F6000134300D1D7E06B1E002B00D04BE153464A
:101F70009F1ABA458041641A4042241A01261EE085
:101F8000B34B9E4248D080231B041943382D00DDFB
:101F900019E11F2D00DD4CE120230F005B1B100019
:101FA0009A409F40E840531E9A41E9400743174337
:101FB0005346DF1B611ABA45A44164420C1B23023D
:101FC00000D4C5E06402650A002D00D1F6E02800C7
:101FD00000F0C8FB0300083B1F2B00DDE9E02022D6
:101FE0003C00D21A9D40D4409F4025439E4200DDD4
:101FF000DBE09E1B731C1F2B00DD0AE12022380052
:10200000D21A290097402C009140D8407A1E97415F
:10201000DC40002601430F437B0709D00F233B40E0
:10202000042B05D03B1DBB42BF417F42E4191F007A
:10203000230225D5864B01369E4200D1AFE0854B69
:1020400001251C4043466207FF08640276051743DA
:10205000240B760D1D4000212403230B0C0D7E4A1A
:1020600024051C431440330523435B00ED075B0844
:102070002B43380019001CBC90469946A246F0BD7F
:10208000012543466207FF081743E4081D40704BD3
:102090009E4236D024037605240B760DDBE763469B
:1020A000F31A002B00DC94E06046002835D0684825
:1020B0008642B1D080273F043943382B00DCFDE055
:1020C0000A43170000217A1E974157445745804123
:1020D000091944420C1923023AD55D4B01369E4240
:1020E00000D14BE101225B4B1C407B0817401F4392
:1020F000E207174364088FE70800104300D024E785
:1021000021E723003B4300D1B9E1802212031443AD
:102110002403240B9FE72E007EE70800104300D124
:10212000CAE0581E8446002800D0E7E052445245D9
:10213000804164184042241817000126230207D565
:102140000226CFE764462C4300D1B3E12C0067465A
:102150007B0700D062E76307FF081F430125434662
:10216000E4081D4093E7002D78D1751C6D056D0DB9
:10217000012D00DCF2E05046801A8245BF41651A0D
:102180007F42ED1B8446280200D48CE05046171A8B
:10219000BA4292410C1B5542651B984614E7012533
:1021A000434600241D40002755E72A4CF61A2C40D0
:1021B00032E73D0028388540002717E7380000F057
:1021C000D1FA203006E70A43170000217A1E974112
:1021D000EEE6002B00D0E5E0731C9C465B055B0D32
:1021E000012B00DC9FE01A4B9C4500D1C5E0524416
:1021F00052458041641840422418E70752081743AB
:102200006408664608E71248854200D185E01D0053
:10221000BCE629001F3EF140202B00D17FE0402288
:10222000D31A9D402F437D1EAF4100240F4300264B
:102230008EE72B000F00203BDF40202D71D0402384
:102240005D1BA9400A43511E8A4100211743AFE696
:10225000FF070000FFFF7FFFFFFF0F80002E3ED033
:10226000B34EB44545D0802636046D423443382DF4
:1022700000DDA8E01F2D00DD1FE1202627005046CD
:10228000761BB740E84007435046B040461EB04179
:10229000EC403843171ABA4292410C1B5242A41A1E
:1022A000664698468BE6644667462C4300D08BE62C
:1022B000002500260027EAE61E00ADE61F2B60DCA5
:1022C0002027F81A0F00844687401000D8400743A3
:1022D00060468240501E8241D9401743F5E62600F1
:1022E0005046064305D0ED43002DD3D0904EB44563
:1022F000BDD10C001700664698468DE68C48834297
:102300000BD06346D9E6002D00D096E008001043BC
:1023100000D1E2E00C0017009846854E7CE60025CF
:1023200080E700218EE7230050460343002E00D0B3
:10233000A8E0002B00D1DEE00B00134300D16BE6D8
:102340005244524580416418404224181700230229
:1023500000D4FDE6774B66461C405DE625005046FE
:102360000543002ECFD1002D4FD10C00144300D1D6
:10237000A0E00C00170098464EE6664600240027B1
:1023800085E61F000800203FF8400700202B00D101
:102390008EE04020C31A99400A43511E8A41002111
:1023A000174392E6002E14D126005046064362D011
:1023B000DB43002B5CD1871897429241641852424C
:1023C000A418664687E650462043441EA0410024D8
:1023D00060E7574EB4454ED0802636045B42344306
:1023E000382B00DD7FE01F2B00DD8BE0202627004F
:1023F0005046F61AB740D84007435046B040461EF4
:10240000B0410743DC40BF18D6E70D00154300D1AB
:1024100002E65046801A8245BF41651A7F42ED1B95
:102420008446280200D48DE65046171ABA429241DB
:102430000C1B5242A41A9846EEE50D00154300D13C
:102440006BE750466707C00807438020E408000395
:10245000044207D0CD08054204D12C009846D70885
:1024600049070F437B0FE4001C43FF00304ED3E5C8
:102470002F4EB445B4D10C0017006646CCE50027BA
:102480000024E8E5002B39D00B00134300D144E7CA
:10249000C008670707438020E40800030442E1D036
:1024A000CB080342DED1D70849070F431C00D9E708
:1024B000002171E700250027E9E52E002700203ED6
:1024C000F740202D2FD04026751BAC4050462043AE
:1024D000441EA04100243843DCE680240025240368
:1024E000134E0027D3E5504620430700781E87414E
:1024F0000024BF1860E70C0017008DE50C001700E2
:102500000B4E89E51E002700203EF740202B0CD003
:102510004026F31A9C4050462043441EA0410743E6
:102520000024BF1848E70024D0E70024F3E7C046A2
:10253000FF070000FFFF7FFF4100090E4B1C70B535
:10254000DBB24602750AC40F012B14DDE0239B00A9
:102550006D07360BCB1800210A0D280012051C4D03
:1025600032435B052A405B0813435B00E4075B08CA
:102570002343190070BD002914D1002D1ED028005E
:1025800000F0F0F80A281CDC0B232A001B1ADA40A2
:10259000030015339D400F4B12031B1A5B05160BEE
:1025A0005B0DD8E7002D06D0320B802636036D0771
:1025B0001643094BCFE7084B0026CCE70023002643
:1025C000C9E703002A000B3B9A400025E3E7C04619
:1025D000FFFF0F8089030000FF070000F0B54C00EB
:1025E000640D0B03621C450F5B0A52052B43C90F98
:1025F000C500520D012A28DD3A4AA618FE2E1BDC22
:10260000002E3EDD80010200501E82416D0F2A43E4
:10261000DB0013435A0704D00F221A40042A00D0CB
:1026200004338022D2041A405AD00136FF2E03D040
:102630009B015B0AF4B201E0FF2400235802E40589
:10264000400AC90720430843F0BD002C07D01D43B2
:10265000F2D08020DB0080040343FF26DAE72B431F
:1026600003D00523DB08FF2C03D05B025B0AE4B236
:10267000E4E7002B32D08020C00303435B025B0AF7
:10268000DCE73200173214DB80221E2712041343CA
:10269000BF1B1F2F0FDC144A944664442A00A54038
:1026A0002E00A340751EAE41FA403343134300266B
:1026B000B0E70024D5E702225242961B1A00F240EE
:1026C000202F09D0094884466444A3402B435D1E53
:1026D000AB41002613439DE70023F7E70023ADE756
:1026E0003400BFE780FCFFFF82FCFFFFA2FCFFFF7E
:1026F0008446081C6146FFE71FB500F0B7F80028C4
:1027000001D40021C8421FBD10B500F049F8404275
:10271000013010BD10B500F0A9F8002801DB002041
:1027200010BD012010BDC04610B500F09FF8002874
:1027300001DD002010BD012010BDC04610B500F025
:1027400055F8002801DC002010BD012010BDC04656
:1027500010B500F04BF8002801DA002010BD012070
:1027600010BDC0461C2101231B04984201D3000C5C
:1027700010391B0A984201D3000A08391B099842F4
:1027800001D30009043902A2105C40187047C0460A
:10279000040302020101010100000000000000002A
:1027A00070B5420045024E024C00C30F6D0A120E76
:1027B000760A240EC90F0120FF2A06D0FF2C03D071
:1027C000A24201D1B54206D070BD002DFCD1FF2C34
:1027D000FAD1002EF8D18B4206D00120002AF3D185
:1027E0002800451EA841EFE70020EDE7F0B54200C4
:1027F00045024C02C30F48006D0A120E640A000E17
:10280000C90FFF2A1ED0FF2821D0002A0AD16E420C
:102810006E41F6B200280FD1002C0DD10020002D02
:1028200009D005E0002801D1002C01D08B4211D045
:10283000012158420843F0BD002EF7D00120013994
:102840000843F8E7002DDED002204042F3E7002CD9
:10285000DBD0F9E78242EBDC04DBA542E8D80020BC
:10286000A542E8D20121581E0843E4E7F0B5420032
:102870004D024C004602760A120EC30F6D0A240E5A
:10288000C90FFF2A16D0FF2C18D0002A0AD1704297
:102890007041C0B2002C15D0002805D001200139AC
:1028A0000843F0BD002C13D0994214D001205B42A4
:1028B0001843F6E70220002EF3D1E4E70220002DB2
:1028C000EFD1E2E7002DE7D10020002EE9D0EDE7BF
:1028D000002DE9D1EAE7A24206DCDFDBAE4203D8F5
:1028E0000020AE42DAD3DCE7012049420843D8E7B2
:1028F00070B500260C4D0D4C641BA410A64209D1E6
:10290000002600F079F80A4D0A4C641BA410A64278
:1029100005D170BDB300EB5898470136EEE7B30020
:10292000EB5898470136F2E7042A0000042A000019
:10293000042A0000082A00006C080000BC07000000
:10294000BC070000BA0700005E0800005E08000037
:1029500054080000BA0700005E0800005408000098
:102960005E080000BA070000640800006408000068
:1029700064080000F40800009C1500007E150000AB
:1029800038150000561400003815000070150000BE
:1029900038150000561400007E1500007E1500005A
:1029A00070150000561400004E1400004E14000074
:1029B0004E140000B4170000FC1B0000BC1A0000FD
:1029C000BC1A0000B81A0000D41B0000D41B000081
:1029D000C61B0000B81A0000D41B0000C61B000074
:1029E000D41B0000B81A0000DC1B0000DC1B000038
:1029F000DC1B0000E01D0000F8B5C046F8BC08BCB8
:102A00009E467047DD000000F8B5C046F8BC08BC23
:082A10009E467047B50000006E
:0400000300000119DF
:00000001FF
