:10000000F8200020D1040000CD040000CD04000041
:1000100000000000000000000000000000000000E0
:10002000000000000000000000000000CD040000FF
:100030000000000000000000CD040000CD0400001E
:10004000CD040000CD040000CD040000CD0400006C
:10005000910C0000CD040000CD040000CD04000090
:10006000CD040000CD040000CD040000CD0400004C
:10007000CD040000CD040000CD040000CD0400003C
:10008000CD040000CD040000CD040000CD0400002C
:1000900045120000C90C0000CD040000CD04000092
:1000A000CD040000CD040000CD040000CD0400000C
:1000B0000000000010B5064C2378002B07D1054B3B
:1000C000002B02D0044800E000BF0123237010BDC4
:1000D000380000200000000090310000084B10B5EF
:1000E000002B03D00749084800E000BF0748036819
:1000F000002B00D110BD064B002BFBD09847F9E731
:10010000000000003C000020903100009031000011
:1001100000000000704700000C4B1B68002B06D14C
:10012000EFF31083002B07D00022094B1A70074A07
:10013000136801331360704772B6BFF35F8F0022FC
:10014000044B1A700132024B1A70F0E75400002081
:100150005800002000000020084B1A68013A1A607D
:100160001B68002B09D1064B1B78002B05D0012200
:10017000044B1A70BFF35F8F62B6704754000020C3
:10018000580000200000002070B50C490B6A04786C
:10019000857840780122104080014026B343034314
:1001A0002A40D201802083431343032222401202BB
:1001B0000348034013430B6270BDC0460008004073
:1001C000FFFCFFFF082803D88000254B1B589F46E3
:1001D000172044E0234A136A02210B4313620020D4
:1001E0003DE0204A936902210B439361002036E0F1
:1001F0001C4A138A02210B43138200202FE0194A64
:10020000938A02210B439382002028E016490B6851
:10021000022213430B60134B9A8419000E32CB68F1
:100220001A42FCD0104A91680E4BD96252689A6209
:1002300000229A8419001032CB681A42FCD00A4B73
:100240001B689BB2074A9384002008E005494422BA
:100250008B5C022003438B54002000E00020704799
:10026000FC2F0000000800405C00002030B585B085
:10027000C222D2001A4B9A601A4A53681E218B433D
:10028000536001236A4613700024174DE0B269469B
:10029000A8470134252CF9D103A800244470012576
:1002A00085700470114B98470620114B9847114BED
:1002B0009847114B1C725C729C72DC7201956B4604
:1002C0005C7006236A4613701472547269460020EB
:1002D0000A4B984700200A4B984705B030BDC046EE
:1002E0000008004000400041810400008901000036
:1002F000C5010000050300000004004029030000C0
:10030000E1030000064A936908210B43936101222F
:10031000044B1A7019000B781342FCD17047C04689
:1003200000040040000C004070B5060004000D7889
:100330002D0205434B78002B02D08023DB021D43A6
:100340004B7A002B02D080231B031D4348680128F1
:1003500010D9431E184234D1022830D9022300227A
:1003600001325B009842FBD8120232431400802312
:100370005B031D430B7A002B02D080239B031D439C
:10038000134A53785BB2002BFBDB124B9847124B9E
:100390001E700F4A53785BB2002BFBDB0C4B9C604A
:1003A0001A0053785BB2002BFBDB094A53688021AB
:1003B00049020B401D435560084B984770BD002211
:1003C000D2E70402344380239B021D43D2E7C04698
:1003D000000C004019010000080C00405901000009
:1003E00010B504000B4A53785BB2002BFBDB0A4BC1
:1003F00098470A4B1C70074A53785BB2002BFBDB13
:10040000044A516880235B020B435360044B9847B6
:1004100010BDC046000C004019010000040C004053
:100420005901000010B504000F4B98470F4B1C708A
:100430000F4A53881B05180F53880E490B405380F1
:1004400053880D490B40538011008022D2014B8804
:100450001342FCD106494A8803020648024013436E
:100460004B80064B984710BD19010000020C00405C
:10047000000C0040FFF0FFFFFFBFFFFF590100002D
:1004800010B50C7824020443024B9847A4B2024BE7
:100490005C8010BD25040000000C00407047000087
:1004A00010B5054B9847054B9847054B9847054BAA
:1004B0009847054B984710BD6D02000015010000DC
:1004C0009D0400009D0400009D040000FEE7000064
:1004D000F8B52A4A2A4B9A4211D01A00294B9A425F
:1004E0000DD2294A03339B1A9B0801339B0000223B
:1004F000234822498C58845004329A42FAD1234A24
:10050000234B9A420AD2D34321495B1803218B43E0
:1005100004339B18002102C29342FCD11D4AFF21E3
:100520001D4B8B439360FD3990235B001B4AD150D8
:100530001B4AD3780325AB4302242343D370D378DB
:100540000C27BB4308263343D370164B987B3022CD
:100550009043202210439873997BB9433143997398
:100560009A7BAA4322439A730F4A536880210B4314
:1005700053600E4B98470E4B9847FEE790310000B2
:100580000000002038000020040000203800002077
:10059000F400002000ED00E00000000000700041C9
:1005A000005000410048004100400041B52F0000CC
:1005B0002D0C000070B53C4BC222D2009A601A6A22
:1005C0003A490A401A621A6A80210A431A621A6A70
:1005D0004026B2431A621C6A02252C431C629C69A5
:1005E000334A14409C619869084398619969314382
:1005F000996199690422114399619A692A439A6120
:100600002C4A137801210B4313705378DB09FCD17A
:10061000284B802252009A600222FF329A60264ABA
:100620005A60264A5A601A005378DB09FCD1214BE4
:100630005A8892B25A80224A5A80224A5A80224AC2
:100640005A80224A5A801A005378DB09012BFBD0CA
:100650001F4B197A072291431972597A91435972A3
:10066000997A91439972D97A9143D9729A690821FA
:100670000A439A61196A802252020A431A629A69ED
:1006800040210A439A61196A802252010A431A6280
:10069000196A802292010A431A62196A8022D201E1
:1006A0000A431A6270BDC04600080040FFFCFFFF0D
:1006B000FFF8FFFF000C004000062900010429009C
:1006C0001E4100001C400000054000001D400000CD
:1006D0000004004070B51F4BF02199601E4CFF22B2
:1006E000A260F02212035A60062250201A540130F0
:1006F0001A5401301A5401301A545961FB32FF3236
:10070000A2601800B6300278E1398A4304210A4316
:1007100002701900CC310A7801252A430A70027848
:100720000F210A40402632430270173002782A43D4
:1007300002703E22985C014099545C215A5C2A4325
:100740005A548022D2016260CE331A7802210A43C1
:100750001A7070BD004400418044004182B0019095
:10076000019AFA239B005343002B07DD0022FA2154
:1007700089000132019B4B439342FADC02B070477F
:1007800010B50378303BFA2292005A430E4B1A60A0
:100790001C684178303964224A4312191A601C6877
:1007A000817830398A005218520012191A6019687B
:1007B000C278303A52181A601A68044B9A4202DD25
:1007C0001A00014B1A6010BDDC00002088130000E5
:1007D00010B5994A994B1A604422994B1A70994B5B
:1007E0003C325A61103A9A611B6A1B0302D53F3AA8
:1007F000934B1A70934B1B6A5B0302D53222904BCA
:100800001A70904B1B6A9B0302D533228C4B1A70D3
:100810008C4B1B6ADB0305D54122894B1A70403A89
:10082000894B1A60874C8023A3610120874B98472E
:1008300040236361236A1B0302D53422804B1A7064
:10084000804B1B6A5B0302D535227D4B1A707D4BB2
:100850001B6A9B0302D53622794B1A70794C4023D0
:10086000A3610120794B984720236361236A1B030E
:1008700002D53722724B1A70724B1B6A5B0302D58A
:1008800038226F4B1A706F4B1B6A9B0302D53922BB
:100890006B4B1A706B4C2023A36101206B4B984764
:1008A00010236361236A9B0305D52322644B1A70CE
:1008B0000022654B1A60634B1B6A5B0302D5302232
:1008C0005F4B1A705F4B1B6A1B0305D52A225C4BDA
:1008D0001A7000225C4B1A6010225A4B9A61012058
:1008E0005A4B98475A4B1B68012B21D00DDD022B28
:1008F00036D0032B00D09AE0514B1B78442B00D10B
:1009000086E00022534B1A6063E0002B00D08EE09B
:100910004B4B1B78442B5CD0494B1B78DBB24E4AC7
:10092000137000224B4B1A600132494B1A6050E0A1
:10093000434B1B78484A1278DBB2934203D0002223
:10094000434B1A6045E0434B1A6801321A601A683B
:10095000424B1B689A423CDD02223D4B1A6038E054
:10096000374B1B78442B2ED000223A4B1A60344B65
:100970001B78232B18D0324B1B782A2B2AD0304BD4
:100980001B78412B37D02E4A1378354B1968481CF9
:1009900018601278D2B2284842541B68032B12DD2B
:1009A00000222F4B1A600EE0234B30321A705A701F
:1009B0009A70DA7000232A4A136080218900294A3C
:1009C0009161294A13600022224B1A600332204BA6
:1009D0001A6010BD184B30221A705A709A70DA7073
:1009E00000221F4B1A60802292001E4B5A61012286
:1009F0001D4B1A60E7E7104C20001C4B9847302332
:100A000023706370A370E3700022154B1A60DAE75D
:100A1000104B1A6801321A601A68104B1B689A4210
:100A2000D7DD00230B4A1360094A1360D1E7002287
:100A3000074B1A60CDE7C04628000020AC0000201C
:100A400030000020004400412C0000205D07000021
:100A5000B00000207400002078000020200000205A
:100A60009C000020804400413400002081070000E9
:100A70000C4A137801210B4313705378DB09FCD126
:100A8000084B80225200DA60DA6907218A4305396F
:100A90000A43DA611A780A431A701022024B1A606C
:100AA0007047C0460018004000E100E00022234BE0
:100AB0001A801A00D37BDB09FCD1204B1A8820490D
:100AC0001140C022D2000A431A801A8860218A434A
:100AD00040210A431A801A880C218A4304210A43C0
:100AE0001A80FF221A755A7904218A435A711A0012
:100AF000D37BDB09FCD1114AD37BDB09FCD10F4A44
:100B0000138802210B431380D37BDB09FCD1002225
:100B10000A4B1A761A00D37BDB09FCD10022074B63
:100B20005A761A00D37BDB09FCD1044A937902215F
:100B30008B439371D37BDB09FCD1704700300042BB
:100B4000FFF8FFFF0022194B1A801A00D37BDB0944
:100B5000FCD1164B1988E022D2000A431A801A8869
:100B60000C218A4304210A431A8082221A755A7979
:100B700004218A435A711A00D37BDB09FCD10B4A4A
:100B8000537B01210B435373D37BDB09FCD1074A11
:100B9000138802210B431380D37BDB09FCD1044A69
:100BA000116880235B030B431360704700340042DD
:100BB00000E100E000221A4B1A801A00D37BDB0907
:100BC000FCD1174B1A8817491140C022D2000A43A2
:100BD0001A801A880C218A4304210A431A809C2215
:100BE0001A755A7904218A435A711A00D37BDB099A
:100BF000FCD10B4A537B01210B435373D37BDB099D
:100C0000FCD1074A138802210B431380D37BDB09F5
:100C1000FCD1054A116880239B030B431360704786
:100C200000380042FFF8FFFF00E100E010B50D4B77
:100C300098470D4B98470D4B98470D4B98470D4BD8
:100C400098470D4B98470D4B98470D4A0D4B1A602E
:100C50000D4B0021C122920099500C49103299503D
:100C6000FEE7C046A1040000B5050000D50600005F
:100C7000AD0A0000450B0000B50B0000710A000032
:100C8000C8000020C400002000E100E0C0400000D7
:100C90000A4B1B6A5B0408D4084B1B6A5B0408D42C
:100CA000074A1368013B136003E0054A13680133E8
:100CB000136080225200034B1A6170478044004148
:100CC0007C00002000180040F0B5DE4657464E4636
:100CD0004546E0B587B0BC4B1A6813019B1A5B0010
:100CE000BA4E3360BA4F3868BA4D2B689B46BA4B40
:100CF0009A469847B94CBA4ABA4BA047009001911E
:100D00005846D047B84AB94BA04702000B0000989C
:100D10000199B74CA047B74B9847B74C2060236860
:100D20003B603068B54B984728602068B44B9847C3
:100D3000B44B1860B44B1B68002B0CD0012B00D1B6
:100D4000A4E0B24B80221A76013A5A761A00D37B7D
:100D5000DB09FCD18AE00022AD4B1A60AD4F3B6845
:100D60009A4A12689B1AAC4C23602068AB4B9A4697
:100D70001E68AB4B9B461B689946A04B984698470C
:100D8000A84D311CA847A84E4946B0475B4618609D
:100D90002068A64B99461B68524612689246C01AB4
:100DA000C0475146A24B9847A24B18602068A24A00
:100DB00012680092A14A126892465A4612689346F7
:100DC0009F4A126803921B6804933F6805979D4BE6
:100DD0001F68C0470099A847009059465046A84749
:100DE000011C0098B047009004990398A847011C83
:100DF0000098B04700900598C047391CA847011CCF
:100E00000098B047904B1860226849460A601868FD
:100E10008E498F4B9847002802D08C4A8A4B1A6023
:100E2000894B186800218B4B984700282AD1864BA4
:100E300018688621C9057B4B984784497C4B9847A5
:100E40008549794B98476E4B9847844B18601A68D0
:100E5000D2B26E490A761B68DB43DBB24B760A00DE
:100E6000D37BDB09FCD10022574B1A607C4A937B71
:100E700001210B43937307B03CBC90469946A246B0
:100E8000AB46F0BD0022704B1A60D0E7614B1B6887
:100E9000C82040005843B4214900724B9847574B33
:100EA0009847714B18605A4B1B68002B02D10022E7
:100EB000454B1A60444D2C686B4B1868504B984753
:100EC000201A4E4CA047694B18602868A047684913
:100ED000574B9847674B1860186800215D4B98473F
:100EE000002867D1634B18680021634B984700289E
:100EF0000AD1354B1B686930FF305843C82149007F
:100F0000584B98475D4B1860444B99461868574CAE
:100F100021685B4B98461F68424DA847424E391CDA
:100F2000B047434618602068564F39684B461B68E7
:100F30009946554B984749463D4B9847534B186047
:100F4000534A10682168534A126892464246126812
:100F50009346514A126890461B689946A8470090EC
:100F600059465046A847011C0098B0470090494692
:100F70004046A847011C0098B047484B18601868C5
:100F80001F4B9847464A106023683B6011688023D6
:100F90005B425B1ADBB21D490B7613687F33DBB211
:100FA0004B760A00D37BDB09FCD1194A1368013365
:100FB00013605BE72B683B485843C8214900294B25
:100FC00098472E4B18609FE77C000020D40000203B
:100FD000940000208C000020C12D0000C1280000DA
:100FE00017B7D100DE02EF3F5C72DC291DAC9F3FDA
:100FF000A1220000652E00009000002001220000C8
:10100000C121000088000020340000200030004290
:1010100098000020DC000020CC00002024000020EC
:10102000A0000020491C000045150000840000209D
:1010300069180000E40000201C00002014000020BB
:10104000080000200C000020E800002000409C4523
:101050001D150000F51400000000FE42F000002005
:1010600000380042F9120000A8000020EC00002027
:101070000000C843D0000020E9140000B8000020A0
:10108000A400002080000020891E0000E000002055
:10109000180000201000002004000020BC000020E8
:1010A000B400002098FEFFFFF0B5CE46474680B55D
:1010B00083B00190FA239B009946012400261D006D
:1010C000344F58E00A23994601240A2553E0013C95
:1010D000092C45D8A300304AD3589F4630222F4BC5
:1010E0009A550136019B4A4654431C1B0194012E1C
:1010F0003BD0022EE6D00124032E3AD1012399469B
:101100000124012537E03122244B9A550136E9E7C5
:101110003222224B9A550136E4E733221F4B9A556F
:101120000136DFE734221D4B9A550136DAE73523C5
:101130001A4A93550136D5E73623184A9355013696
:10114000D0E73723154A93550136CBE73823134AA6
:1011500093550136C6E73923104A93550136C1E746
:1011600041230E4A93550136BCE734006423994667
:101170006425032E09DC0198019B98462900B84795
:101180004145A4D001344D44F3E703B00CBC904674
:101190009946F0BDC514000020300000C8000020B2
:1011A0000378303BDAB2092A40D89300224AD35858
:1011B0009F46224BC0229A61813A5A6170471F4B69
:1011C000F9229A61F33A5A61F8E71C4BA4229A611A
:1011D000493A5A61F2E7194BB0229A61613A5A6171
:1011E000ECE7164B99229A61333A5A61E6E7134BC2
:1011F00092229A61253A5A61E0E7104B7D225A61AA
:1012000005329A61DAE70D4B07225A61F1329A6191
:10121000D4E780220A4BD3187F2159619A61CDE728
:10122000064B67225A6131329A61C7E7034B882225
:101230009A61113A5A61C1E7483000008044004188
:1012400000440041F0B5C64600B5214B9847214AFD
:10125000937B01210B4393731F4B1B68002B31D0F1
:101260001E4B18681E4B98471E4C8023984663619E
:101270001D4F38681D4EB04701201D4DA8474346FD
:10128000A361403B984663613B68581CB04701200E
:10129000A8474346A361203B984663613B68981C7E
:1012A000B0470120A8474346A361103B98466361BD
:1012B00038680330B0470120A8474346A36104BC07
:1012C0009046F0BD0B4B1868054B9847CCE7C046DD
:1012D000D10700000034004234000020B800002094
:1012E000A910000000440041C4000020A11100002A
:1012F0005D0700008800002003460B437FD40022D6
:1013000043088B4274D303098B425FD3030A8B4299
:1013100044D3030B8B4228D3030C8B420DD3FF2203
:10132000090212BA030C8B4202D31212090265D0D1
:10133000030B8B4219D300E0090AC30B8B4201D384
:10134000CB03C01A5241830B8B4201D38B03C01ACB
:101350005241430B8B4201D34B03C01A5241030B42
:101360008B4201D30B03C01A5241C30A8B4201D3F3
:10137000CB02C01A5241830A8B4201D38B02C01A9E
:101380005241430A8B4201D34B02C01A5241030A15
:101390008B4201D30B02C01A5241CDD2C3098B42FA
:1013A00001D3CB01C01A524183098B4201D38B0177
:1013B000C01A524143098B4201D34B01C01A52411A
:1013C00003098B4201D30B01C01A5241C3088B425F
:1013D00001D3CB00C01A524183088B4201D38B004A
:1013E000C01A524143088B4201D34B00C01A5241EC
:1013F000411A00D201465241104670475DE0CA0FC3
:1014000000D04942031000D34042534000229C4682
:1014100003098B422DD3030A8B4212D3FC2289018C
:1014200012BA030A8B420CD3890192118B4208D362
:10143000890192118B4204D389013AD0921100E0C4
:101440008909C3098B4201D3CB01C01A52418309D8
:101450008B4201D38B01C01A524143098B4201D305
:101460004B01C01A524103098B4201D30B01C01A30
:101470005241C3088B4201D3CB00C01A52418308AA
:101480008B4201D38B00C01A5241D9D243088B4200
:1014900001D34B00C01A5241411A00D201466346A3
:1014A00052415B10104601D34042002B00D5494207
:1014B000704763465B1000D3404201B5002000F046
:1014C00005F802BD0029F8D016E770477047C046FE
:1014D0008446081C6146FFE71FB500F073FB002837
:1014E00001D40021C8421FBD10B500F005FB4042E9
:1014F000013010BD10B500F065FB002801DB0020B5
:1015000010BD012010BDC04610B500F05BFB0028E7
:1015100001DD002010BD012010BDC04610B500F057
:1015200011FB002801DC002010BD012010BDC046C9
:1015300010B500F007FB002801DA002010BD0120E3
:1015400010BDC046F0B5C6464E024702760A7B0A79
:101550004400C50FF7004800984600B5240E2A0045
:10156000DB00000EC90FBC468D4267D0221A002A4C
:1015700000DCA5E000283AD1002F00D193E0511EF5
:10158000002900D0BCE00124DB1B5A0146D59B0199
:101590009E09300001F0F0FC05388640844200DDF1
:1015A0009DE0041B320020200134E240041BA640D1
:1015B00033005E1EB341002413435A0704D00F22A8
:1015C0001A40042A00D004335A0129D50134FF2CD3
:1015D00000D181E02A009B015B0AE4B25B02E405D2
:1015E000580AD2072043104304BC9046F0BDFF2C9C
:1015F000E3D080213800C904084384461B2A00DD5B
:1016000082E020206146D140821A6046904002006C
:10161000501E82410A439B1A5A01B8D45A07CED1B0
:10162000DE082A00FF2C3AD1002E00D1AEE0802344
:10163000DB0333435B025B0AFF24CFE7211A002957
:1016400052DD002831D0FF2CB7D080203E00C004EE
:101650000643B4461B2900DDAAE020266046C840A8
:10166000711A66468E4031004E1EB14101435B182F
:101670005901D3D50134FF2C00D187E001227849EC
:101680001A405B080B40134397E7002C00D0A7E0FB
:10169000002B00D0B6E03B1E62D100260022730270
:1016A0005B0AE4B29AE7140087E7002F4DD0481E8A
:1016B000002857D1634401245A01AFD50224DDE745
:1016C000002A24D1621CD2B2012ADEDDDE1B7201A7
:1016D00035D5FE1A0D005CE72A0000237EE73300B3
:1016E000604A241A134068E7002963D1611CC8B21C
:1016F00001284EDDFF2949D063445B080C005CE7FC
:10170000FF2A41D00A0079E701229B1A84E7002CC6
:101710001DD0FF2822D08024E404524223431B2AF8
:1017200000DD8AE01C002025D440AA1A93405A1EEE
:101730009341234362460400D31A0D0025E7002E8F
:1017400000D026E700220024A9E70C0035E7002B93
:101750004DD0D243002AEDD0FF28E0D16346FF24CC
:101760000D002AE7FF290FD0010073E7002B61D09D
:10177000FF24002F00D120E780224146D2031142EE
:1017800002D0164200D13B00FF2416E7FF240023BD
:1017900024E7002CEAD1002B58D0002F00D10CE711
:1017A00063445A0100D439E72E4A0C00134004E781
:1017B00001215CE7002C1ED1002B40D0C943002939
:1017C0000BD0FF2836D01B2947DC1C002026CC403C
:1017D000711A8B40591E8B4123436344040047E731
:1017E000002B18D13B1E2DD00D00FF24E5E63B0059
:1017F00004000D00E1E6FF281CD08024E4044942E7
:101800002343E0E7002F00D1D7E6DE1B72011FD58E
:10181000FB1A0D00D1E6FF24002F00D1CDE6802277
:101820004046D2031042AFD01642ADD13B000D006E
:10183000FF24C2E66346FF24BFE601237AE73B00AC
:101840000400BAE680260022F603F0E63B00B4E688
:10185000331E00D0E2E6002221E70123BDE7C046A7
:10186000FFFFFF7DFFFFFFFBF0B557464E46DE460C
:101870004546E0B544024300C60F83B00F1C640A1E
:101880001B0EB24653D0FF2B27D08022E400D20497
:1018900014437F22524290469844002399469B4627
:1018A0007D027800FB0F6D0A000E009324D0FF2804
:1018B00046D080230021ED00DB041D437F384746DE
:1018C000381A4F460F43BF00B9463300009A874F7E
:1018D00053404A46BA5801939746002C4ED10823EC
:1018E0009946F7339846FD3B9B467D027800FB0FF7
:1018F0006D0A000E0093DAD1002D26D100200121BF
:101900003300009A7A4F53404246101A4A460A431F
:101910009200BA581D009746009B2C009A468B46B1
:101920005B46022B31D15346FF21002438E0002CC6
:1019300017D1042399460023984601339B46AFE70D
:10194000FF20002D0BD10221DAE7280001F014FB63
:10195000431F9D4076235B42181A0021AFE7032105
:10196000ADE7200001F008FB431F9C4076235B425B
:101970001B1A9846002399469B4691E70C239946EB
:10198000F3339846FC3B9B468AE7032B00D1A5E046
:101990005546012B00D081E00123002100242B407B
:1019A0006402C905600ADB070843184303B03CBC66
:1019B00090469946A246AB46F0BD80240023E4033E
:1019C000FF21EDE7FF210024EAE70123591A1B2933
:1019D00066DD019A134000210024E1E78023DB0348
:1019E0001C4238D01D4251D01C436402640A3300AB
:1019F000FF21D5E763016C01A3423BD21B260021E6
:101A0000013801251F0049005B00002F01DB9C42CB
:101A100001D81B1B2943013E002EF3D11C00631E7D
:101A20009C410C4301007F310029CEDD630704D0C7
:101A30000F232340042B00D00434230103D50100DD
:101A40002C4B80311C40FE290DDD0123019AFF2122
:101A500013400024A4E78023DB031C436402640AD0
:101A60003300FF219CE70123019AA401640AC9B253
:101A7000134095E71B1B1A260121C2E7009B8B46EA
:101A80009A4600244CE76302E5D500258024E40350
:101A90002C436402640A009BFF2181E70195C1E7A2
:101AA00023002020CB40411A8C40611E8C411C43F6
:101AB000630704D00F232340042B00D004346301B8
:101AC00005D50123019A01211340002468E7012371
:101AD000019AA401640A1340002161E78023DB031B
:101AE0001C436402640A5346FF2159E7703000002A
:101AF000B0300000FFFFFFF770B5420045024E0214
:101B00004C00C30F6D0A120E760A240EC90F012075
:101B1000FF2A06D0FF2C03D0A24201D1B54206D045
:101B200070BD002DFCD1FF2CFAD1002EF8D18B42D4
:101B300006D00120002AF3D12800451EA841EFE776
:101B40000020EDE7F0B5420045024C02C30F48000B
:101B50006D0A120E640A000EC90FFF2A1ED0FF285C
:101B600021D0002A0AD16E426E41F6B200280FD170
:101B7000002C0DD10020002D09D005E0002801D156
:101B8000002C01D08B4211D0012158420843F0BDF6
:101B9000002EF7D0012001390843F8E7002DDED0F0
:101BA00002204042F3E7002CDBD0F9E78242EBDC75
:101BB00004DBA542E8D80020A542E8D20121581E46
:101BC0000843E4E7F0B542004D024C004602760AB5
:101BD000120EC30F6D0A240EC90FFF2A16D0FF2C58
:101BE00018D0002A0AD170427041C0B2002C15D022
:101BF000002805D0012001390843F0BD002C13D086
:101C0000994214D001205B421843F6E70220002ECF
:101C1000F3D1E4E70220002DEFD1E2E7002DE7D178
:101C20000020002EE9D0EDE7002DE9D1EAE7A2423D
:101C300006DCDFDBAE4203D80020AE42DAD3DCE7BD
:101C4000012049420843D8E7F8B557464E46454675
:101C5000DE46E0B54702460088467F0A360EC40FCE
:101C6000002E47D0FF2E24D0FB008027FF041F4307
:101C7000002399469A467F3E43465D025800DB0F9B
:101C80006D0A000E984643D0FF283BD0EB0080251C
:101C90000022ED041D437F383618731C41469B46D5
:101CA0004B46614013430F2B64D875489B00C358C3
:101CB0009F46002F42D108239946063BFF269A46AD
:101CC000DAE74146022A28D0032A00D1CEE0012AD1
:101CD00000D0ACE0114000200022CCB24002D2057E
:101CE000400AE407104320433CBC90469946A24674
:101CF000AB46F8BD002F15D104239946033B0026BF
:101D00009A46B9E7FF200222002DC5D00322C3E77F
:101D1000002D19D100200122BEE70124FF220C4032
:101D20000020DBE7380001F027F97626431F9F40AB
:101D300000237642361A99469A469DE70C23994627
:101D4000093BFF269A4697E7280001F015F9431F43
:101D50009D4076235B42181A00229DE780200024D4
:101D6000C003FF22BAE73D005246ABE73D00210029
:101D70005246A7E73B0C9C462A04120C2B0C14007D
:101D8000604665463F043F0C7C4342435D437B43D2
:101D9000270C9B18FF18BA4203D980235B029C468C
:101DA000654424043A04240C121993015C1EA341D7
:101DB0003F0C920E7D191A43AD0115432B0104D53A
:101DC00001235E466A081D40154332007F32002A17
:101DD00025DD6B0704D00F232B40042B00D00435E6
:101DE0002B0103D53200274B80321D40FE2A94DCA4
:101DF0000124A801400AD2B20C406FE78020C00342
:101E0000074207D0054205D128434002400A444614
:101E1000FF2263E738434002400AFF225EE70124C5
:101E2000A31A1B2B05DD0C400022002056E75E465E
:101E3000CBE72A002020DA40C31A9D402B005D1E0C
:101E4000AB4113435A0704D00F221A40042A00D092
:101E500004335A0104D5012401220C4000203DE73F
:101E600001249B01580A0C40002237E780200124FE
:101E7000C00328434002400A0C40FF222EE7C04620
:101E8000F0300000FFFFFFF7F0B54F46D64646465C
:101E90004400C0B5C20F47024802400A8446664665
:101EA0007B0A4800C90F9A46240E1500DB00000E7D
:101EB0008946F600FF2800D18FE001214F464F40B0
:101EC0003900914266D0221A002A00DC9DE00028E9
:101ED0003DD1002E00D18BE0511E002900D0B5E08D
:101EE00001249B1B5A0144D59B019F09380001F036
:101EF00043F805388740844200DD96E0041B3A0031
:101F000020200134E240041BA7403B005F1EBB4180
:101F1000002413435A0704D00F221A40042A00D089
:101F200004335A0127D50134FF2C00D179E0012276
:101F30009B015B0AE4B22A405B02E405580AD2071F
:101F4000204310431CBC90469946A246F0BDFF2C8E
:101F5000E0D08021C9040E431B2A7BDC3100202005
:101F6000D140821A9640721E96410E439B1B5A0125
:101F7000BAD45A07D0D10122DF082A40FF2C33D12E
:101F8000002F00D1A8E08023DB033B435B025B0A08
:101F9000FF24D1E7211A00294CDD00282AD0FF2C8C
:101FA000B8D08020C00406431B2900DDAFE030001C
:101FB0002027C840791A8E40711E8E4106439B1916
:101FC0005901D6D50134FF2C00D185E001227A4990
:101FD0001A405B080B4013439CE7002E00D070E7CB
:101FE0006BE73B1EC5D100227B025B0AE4B2A3E78C
:101FF00014008FE7002E4DD0481E002857D19B19A2
:1020000001245A01B5D50224E0E7002A25D1621C3B
:10201000D2B2012A72DD9F1B7A0135D5F71A0D0065
:1020200064E7012200232A4086E73B00634A241A22
:1020300013406FE700296CD1611CC8B201284EDD46
:10204000FF2949D09B195B080C0063E7FF2A41D0A8
:102050000A0081E701269B1B89E7002C1CD0FF2882
:1020600021D08024E404524223431B2A00DD96E061
:102070001C002025D440AA1A93405A1E93412343A2
:10208000F31A04000D002DE7002F00D02EE70022E8
:102090000024A9E70C003DE7002B58D0D243002ACA
:1020A000EED0FF28E1D13300FF240D0032E7FF29F5
:1020B00010D0010078E7002B6ED0FF24002E00D155
:1020C00028E780225146D203114203D061461142D3
:1020D00000D13300FF241DE7FF2400232CE7002C50
:1020E000E9D1002B63D0002E00D113E79B195A01D0
:1020F00000D43EE7314A0C0013400BE7002C1ED100
:10210000002B2FD1002E4FD033000D0002E7012607
:1021100055E7002C1FD1002B43D0C94300290BD019
:10212000FF2839D01B2944DC1C002027CC40791A19
:102130008B40591E8B4123439B19040040E7002B21
:102140001AD1002E24D180270022FF031BE7330081
:1021500004000D00DEE6FF281ED08024E40449427E
:102160002343DFE7002E00D1D4E69F1B7A0100D481
:1021700037E7F31A0D00CDE6FF24002E00D1C9E6A3
:1021800080225046D2031042A4D060461042A1D112
:1021900033000D00FF24BDE63300FF24BAE601231F
:1021A0006EE733000400B5E6002700221CE7330089
:1021B000B0E60123C0E7C046FFFFFF7DFFFFFFFB46
:1021C00041024300C20F490A1B0E00207E2B0DDD89
:1021D0009D2B0CDC802000040143952B0ADC96200B
:1021E000C31AD9404842002A00D108007047034B67
:1021F000D018FBE7963B9940F4E7C046FFFFFF7F0E
:1022000070B5002830D0C317C4185C40C50F20003B
:1022100000F0B2FE9E231B1A962B0DDC9622D21ADA
:1022200094402A006402640ADBB26402DB05600A9F
:10223000D2071843104370BD992B19DC9922D21A8A
:10224000002A29DD94402200144C1440510704D088
:102250000F210A40042A00D00434620113D4A401DF
:10226000640ADBB22A00E0E7002200230024DCE756
:1022700005222100121AD140B922D21A9440621EBE
:1022800094410C43DAE7054B2A001C409F23A4012C
:102290001B1A640ADBB2C8E72200D5E7FFFFFFFB89
:1022A000F8B54546DE4657464E460C03E0B54E00AF
:1022B000C90F88460D00610A440F0C43C70019037B
:1022C0005800DB0F9B464B0A510F0B43760D400D18
:1022D0001900D200D84500D1AEE0351A002D00DC3F
:1022E000F6E000280FD1134300D1DBE06B1E002B7A
:1022F00000D037E1BA1A9742BF41641A7F42E41B0B
:102300000126170024E0C64B9E424DD080231B04BB
:102310001943382D00DD07E11F2D00DD38E12020B5
:10232000431B9A460B00504683409946130048468B
:10233000EB401843030050468240501E8241E94062
:102340001A43BA1A611A9742A441170064420C1B3F
:10235000230262D56402650A002D00D1DFE0280067
:1023600000F00AFE0300083B1F2B00DDD2E0202214
:102370003C00D21A9D40D4409F4025439E4200DD40
:10238000C4E09E1B731C1F2B00DDF1E020223800EF
:102390002900D21AD840914097402C000143781E62
:1023A0008741DC4000260F437B0709D00F233B40C9
:1023B000042B05D03B1DBB42BF417F42E4191F00E7
:1023C00023022CD5964B01369E4200D19AE0454619
:1023D000944BFF081C406007760564020743240BFA
:1023E000760D00212403230B0C0D8F4A24051C437A
:1023F0001440330523435B00ED075B082B43380093
:1024000019003CBC90469946A246AB46F8BD6446CE
:10241000044300D111E2040067467B07C6D145465C
:102420006007FF080743E4087D4B9E4230D0240339
:102430007605240B760DD4E7331A9A46002B78DD07
:10244000002831D076488642AED080200004014377
:102450005346382B00DCE9E00A43511E8A41002133
:10246000D219BA42BF4109197C4217000C19230244
:10247000D3D56B4B01369E4200D13AE10120694B26
:102480001C407B0807401F43E007074364088BE7B5
:1024900023003B4300D1CBE18022120314432403E9
:1024A000240B9EE72E007FE70800104300D1B4E024
:1024B000581E002800D0DEE0BA18BA429B416418CA
:1024C0005B42E418170001262302A6D50226D5E7B1
:1024D000002D6ED1701C4005400D012800DCF9E094
:1024E000B81A844687428041E51A40422D1A2802D4
:1024F00000D489E0D71BBA4292411C1B5242A51A54
:10250000D84629E74546002400276AE7454CF61AD5
:102510002C4049E73D002838854000272EE7380049
:1025200000F02AFD20301DE70A43511E8A41002198
:1025300007E7002B00D0F3E0701C43055B0D012B77
:1025400000DCADE0364B984200D1D1E0BA18BA4277
:10255000BF4164187F42E419E70752081743640833
:10256000060021E72E48854200D193E01D00D0E609
:1025700029001F3EF140202B00D18DE04022D31ACC
:102580009D402F437D1EAF4100240F43002644E7AA
:102590002B000800203BD8400300202D00D17DE017
:1025A0004020451BA9400A43511E8A4100211A437D
:1025B000C7E6002E50D01A4EB04257D080266B424C
:1025C0009946360434434B46382B00DDD6E01F2BAA
:1025D00000DD35E12026F51A2600AE40B2463E0069
:1025E000DE40AC46350056462E436546AF407D1E64
:1025F000AF41DC403743D71BBA4292410C1B5242D9
:10260000A41A0600D846A3E6644667462C4300D0C9
:10261000A2E600250026002706E71E00C4E6C04605
:10262000FF070000FFFF7FFFFFFF0F801F2B63DC12
:102630002020C31A080098409C4683465346100049
:10264000D84003005846184363469A40531E9A41A7
:1026500053460243D94003E726003E4306D0EB43EE
:102660009946002BC7D0944EB042ACD10C00170055
:102670000600D84698E6904B9A450BD08246E7E68E
:10268000002800D09EE01800104300D1E9E01C00B3
:102690001700D846884E87E6002572E7002182E7BA
:1026A00023003B43002E00D0ABE0002B00D1E7E03D
:1026B0000B00134300D177E6BA18BA42BF41641841
:1026C0007F42E419230200D4F2E07C4B17001C4047
:1026D000060069E620003843002ED1D100285BD1E6
:1026E0001C00144300D1A8E01C001700D8465BE68C
:1026F00006000024002797E650460B002038C34010
:1027000099465346202B00D195E0402350461B1A92
:1027100099400A43511E8A414B4600211A439FE6C5
:10272000002E30D126003E4367D0DB439A46002B73
:102730001CD0614EB04260D05346382B00DD96E08D
:102740001F2B00DD9FE02026F31A26009E409C46AA
:10275000B34653463E00DE4033005E461E436346AA
:102760009F407B1E9F415346DC403743BF18974232
:10277000924164185242A418060078E627437C1E52
:10278000A741002437E74C4EB04236D080265B424A
:1027900036049A463443CFE71800104300D103E6CD
:1027A000B81A84466745AD41E01A6D42401B0502E8
:1027B00000D42CE6D71BBA4292411C1B5242A41AE9
:1027C000D846F1E51800104300D163E7F808670721
:1027D00007438020E4080003044208D0DD080542D6
:1027E00005D1D208590711430F002C00D8467B0FA2
:1027F000E4001C43FF00304ED6E50C001700060035
:10280000D2E5002B38D00B00134300D142E7F80883
:10281000670707438020E40800030442E7D0CB08A1
:102820000342E4D1D208490711430F001C00DEE740
:1028300000270024D5E500216BE700250027F3E5FC
:102840004E462500203EF5404B462E00202B2DD035
:102850004025ED1AAC4027437C1EA7410024374396
:10286000C9E6802400252403134E0027DCE5274316
:102870007C1EA741002479E70C0017000E4E93E55B
:102880000C00170090E556462300203EF340994681
:102890005346202B0ED0402356469B1B9C4027437B
:1028A0007C1EA7414B4600241F435FE70024D2E76C
:1028B0001700B2E50024F2E7FF070000FFFF7FFFEB
:1028C000F0B557464546DE464E46E0B50C03984601
:1028D0004E00230B87B0070092469B46760DCD0F26
:1028E000002E6BD06D4B9E4235D080245B46420F4C
:1028F0002404DB0014431C43C3009946684BA346E1
:102900009C46002300276644029343461C035A005A
:10291000DB0F5046240B520D984600D176E05F4BFA
:102920009A426DD08023410F1B040B435C49E400A5
:102930008C461C43C300002062444146B6186940DF
:10294000721C0191944607430F2F00D9B0E0554AFD
:10295000BF00D25997465B460343994600D087E0B3
:1029600000239B46023308270293CEE7424601929A
:10297000022867D0032800D10EE2012800D062E1CE
:10298000002300240022994601990140CDB2002184
:1029900012030B0D120B1B051343434A240513406E
:1029A0001C436400ED0764082C434846210007B02F
:1029B0003CBC90469946A246AB46F0BD03439946BF
:1029C0004FD05B46002B00D189E1584600F0D4FA85
:1029D00003000B3B1C2B00DD7AE11D22D31A3A00C9
:1029E00001005C46DA4008398C4013008F402343D5
:1029F0009B46B94600232D4E0027361A029384E7E2
:102A0000534623432AD10024022096E7534623430A
:102A100020D0002C00D157E1200000F0ADFA0300D7
:102A20000B3B1C2B00DD49E11D21CB1A5146020056
:102A3000D9405346083A944093400C431B4A121A1B
:102A400000207AE70125019B144C1D400023002241
:102A500099469CE70024002201206EE7534603209C
:102A60006BE700239B4601330427002602934CE7C3
:102A7000032381460C27029347E780220023002589
:102A800012039946054C82E75C464B4602986FE775
:102A90005C464B46019502986AE7C046FF07000076
:102AA00001FCFFFF30310000FFFF0F800DFCFFFF36
:102AB0004A464946170C1A0C1B041B0C0804190043
:102AC000000C41431500884619007D437943039566
:102AD00089462900150045434D44029545462D0C75
:102AE000AA46029D5544A94506D98A468021490235
:102AF0008946CA4451460391290C04914146090470
:102B00002D04090C88462900250C24044144240C7A
:102B10000591210041438846210079438A46684354
:102B2000414650448146080C48446F43824503D9CE
:102B30008021490289464F44010C894639004944A5
:102B4000029141460F0404993F0C88460004C019C5
:102B500080444146049159460F0C0904090C8846EB
:102B600059438A4639005143894641464A435146B2
:102B7000090C8B467B43D2185A44934203D98023D5
:102B80005B029B46D94451460904090C8A464146DA
:102B900061437C43130C12044B445244A1468A46C1
:102BA0003C0041466C434D4351464D440F0C7D194A
:102BB000A94503D98021490288464444049F0399CA
:102BC000B84641448B468345804141428846514640
:102BD00008042F04000C3F18584602991018894623
:102BE000904292414F44BA46524299469346C2445B
:102BF000D144CB448F42BF41C245894199459B4155
:102C0000934592417F4249422D0C52420F435B4211
:102C100013437F19FF185B463C19DB0D059A6402CC
:102C20001C43430213435D1EAB415A46C00D034390
:102C300052021343E20156D501205A0803401343C0
:102C4000E207134364085A48604400284DDD5A07E0
:102C500009D00F221A40042A05D01A1D9A429B411E
:102C60005B42E4181300E20104D58020514AC00001
:102C700014406044504A904200DDE3E60125DB0841
:102C800062071A436402019B9146220B4405640DBE
:102C90001D407CE6802259461203114208D014429E
:102CA00006D122431203120B45469946434C6EE669
:102CB0005B461A431203120B404C68E6030054466D
:102CC000283B9C400023B9E600F056F92030A6E6E8
:102CD0000300283B9F400023BB4699468AE600F04C
:102CE0004BF9203074E6B446ADE701252A1A382A9C
:102CF00006DD019B00241D4000230022994646E684
:102D00001F2A21DC20252000AD1A1E00AB40A84060
:102D1000D6405D1EAB4130431843D440430709D031
:102D20000F230340042B05D00300181D98429B413C
:102D30005B42E418230221D50125019B01241D409B
:102D400000230022994622E61F2521006D42281A01
:102D5000C1400800202A1DD05F35AA1A94402343A1
:102D60005C1EA341072503431D400022002D09D00E
:102D70000F2200241A401800042AD6D10300650748
:102D80006402220BDB082B4301259946019B00249A
:102D90001D40FCE50024E2E78022012512032243C6
:102DA00001991203120B0D409946044CEFE5C04601
:102DB000FF030000FFFFFFFEFE070000FF0700000B
:102DC0004100090E4B1C70B5DBB24602750AC40FF8
:102DD000012B14DDE0239B006D07360BCB1800217F
:102DE0000A0D280012051C4D32435B052A405B0882
:102DF00013435B00E4075B082343190070BD0029FF
:102E000014D1002D1ED0280000F0B6F80A281CDCD2
:102E10000B232A001B1ADA40030015339D400F4B89
:102E200012031B1A5B05160B5B0DD8E7002D06D0AD
:102E3000320B802636036D071643094BCFE7084B4C
:102E40000026CCE700230026C9E703002A000B3B3D
:102E50009A400025E3E7C046FFFF0F80890300008A
:102E6000FF070000F0B54C00640D0B03621C450F1A
:102E70005B0A52052B43C90FC500520D012A28DDFC
:102E80003A4AA618FE2E1BDC002E3EDD8001020011
:102E9000501E82416D0F2A43DB0013435A0704D0B2
:102EA0000F221A40042A00D004338022D2041A4090
:102EB0005AD00136FF2E03D09B015B0AF4B201E029
:102EC000FF2400235802E405400AC90720430843B1
:102ED000F0BD002C07D01D43F2D08020DB00800421
:102EE0000343FF26DAE72B4303D00523DB08FF2C3F
:102EF00003D05B025B0AE4B2E4E7002B32D080200F
:102F0000C00303435B025B0ADCE73200173214DBC9
:102F100080221E2712041343BF1B1F2F0FDC144AED
:102F2000944664442A00A5402E00A340751EAE417D
:102F3000FA40334313430026B0E70024D5E70222CA
:102F40005242961B1A00F240202F09D009488446AD
:102F50006444A3402B435D1EAB41002613439DE711
:102F60000023F7E70023ADE73400BFE780FCFFFF55
:102F700082FCFFFFA2FCFFFF1C2101231B049842DF
:102F800001D3000C10391B0A984201D3000A0839FA
:102F90001B09984201D30009043902A2105C4018B1
:102FA0007047C04604030202010101010000000055
:102FB0000000000070B500260C4D0D4C641BA410E1
:102FC000A64209D1002600F0D3F80A4D0A4C641B32
:102FD000A410A64205D170BDB300EB589847013646
:102FE000EEE7B300EB5898470136F2E77C3100007A
:102FF0007C3100007C31000080310000F0010000D5
:10300000D0010000D00100005C020000E2010000DD
:10301000FE010000D40100000C0200004C02000080
:10302000DC10000006110000101100001A11000051
:10303000241100002E110000381100004211000080
:103040004C11000056110000B2110000BE1100002A
:10305000CA110000D6110000E2110000EE110000BC
:10306000FA110000061200001212000020120000E7
:10307000F4190000C4190000D61900001819000046
:10308000D6190000BA190000D6190000181900005E
:10309000C4190000C4190000BA1900001819000072
:1030A000201900002019000020190000DC19000080
:1030B000C4190000C4190000981900007C1A00000F
:1030C00098190000BA190000981900007C1A000035
:1030D000C4190000C4190000BA1900007C1A0000CD
:1030E000201900002019000020190000861A000095
:1030F000741D0000C41C0000C41C0000C21C0000A1
:10310000661D0000661D00005C1D0000C21C000062
:10311000661D00005C1D0000661D0000C21C000052
:103120006C1D00006C1D00006C1D0000FC1D0000EB
:10313000B02A000070290000702900006C290000EE
:10314000882A0000882A00007A2A00006C290000E2
:10315000882A00007A2A0000882A00006C290000D2
:10316000902A0000902A0000902A0000942C000071
:10317000F8B5C046F8BC08BC9E467047DD000000AC
:10318000F8B5C046F8BC08BC9E467047B5000000C4
:103190000100000000000000E02D903A0000000057
:1031A000AE47613DCDCCEC3FEC51B83D6F12833A58
:1031B000010000000AD7A33B30303030010000008E
:0831C0003900000002000000CC
:04000003000004D124
:00000001FF
