S01400004C61622034207461736B20322E7372656388
S113000078200020D1040000CD040000CD040000BD
S113001000000000000000000000000000000000DC
S1130020000000000000000000000000CD040000FB
S11300300000000000000000CD040000CD0400001A
S1130040CD040000CD040000CD040000CD04000068
S1130050890C0000CD040000CD040000CD04000094
S1130060CD040000CD040000CD040000CD04000048
S1130070CD040000CD040000CD040000CD04000038
S1130080CD040000CD040000CD040000CD04000028
S1130090CD040000B50B0000CD0400009D08000055
S11300A0CD040000CD040000CD040000CD04000008
S11300B00000000010B5064C2378002B07D1054B37
S11300C0002B02D0044800E000BF0123237010BDC0
S11300D00400002000000000581F0000084B10B569
S11300E0002B03D00749084800E000BF0748036815
S11300F0002B00D110BD064B002BFBD09847F9E72D
S11301000000000008000020581F0000581F0000D5
S113011000000000704700000C4B1B68002B06D148
S1130120EFF31083002B07D00022094B1A70074A03
S1130130136801331360704772B6BFF35F8F0022F8
S1130140044B1A700132024B1A70F0E720000020B1
S11301502400002000000020084B1A68013A1A60AD
S11301601B68002B09D1064B1B78002B05D00122FC
S1130170044B1A70BFF35F8F62B6704720000020F3
S1130180240000200000002070B50C490B6A04789C
S1130190857840780122104080014026B343034310
S11301A02A40D201802083431343032222401202B7
S11301B00348034013430B6270BDC046000800406F
S11301C0FFFCFFFF082803D88000254B1B589F46DF
S11301D0172044E0234A136A02210B4313620020D0
S11301E03DE0204A936902210B439361002036E0ED
S11301F01C4A138A02210B43138200202FE0194A60
S1130200938A02210B439382002028E016490B684D
S1130210022213430B60134B9A8419000E32CB68ED
S11302201A42FCD0104A91680E4BD96252689A6205
S113023000229A8419001032CB681A42FCD00A4B6F
S11302401B689BB2074A9384002008E005494422B6
S11302508B5C022003438B54002000E00020704795
S1130260841E0000000800402800002030B585B03E
S1130270C222D2001A4B9A601A4A53681E218B4339
S1130280536001236A4613700024174DE0B2694697
S1130290A8470134252CF9D103A800244470012572
S11302A085700470114B98470620114B9847114BE9
S11302B09847114B1C725C729C72DC7201956B4600
S11302C05C7006236A4613701472547269460020E7
S11302D00A4B984700200A4B984705B030BDC046EA
S11302E00008004000400041810400008901000032
S11302F0C5010000050300000004004029030000BC
S1130300E1030000064A936908210B43936101222B
S1130310044B1A7019000B781342FCD17047C04685
S113032000040040000C004070B5060004000D7885
S11303302D0205434B78002B02D08023DB021D43A2
S11303404B7A002B02D080231B031D4348680128ED
S113035010D9431E184234D1022830D90223002276
S113036001325B009842FBD812023243140080230E
S11303705B031D430B7A002B02D080239B031D4398
S1130380134A53785BB2002BFBDB124B9847124B9A
S11303901E700F4A53785BB2002BFBDB0C4B9C6046
S11303A01A0053785BB2002BFBDB094A53688021A7
S11303B049020B401D435560084B984770BD00220D
S11303C0D2E70402344380239B021D43D2E7C04694
S11303D0000C004019010000080C00405901000005
S11303E010B504000B4A53785BB2002BFBDB0A4BBD
S11303F098470A4B1C70074A53785BB2002BFBDB0F
S1130400044A516880235B020B435360044B9847B2
S113041010BDC046000C004019010000040C00404F
S11304205901000010B504000F4B98470F4B1C7086
S11304300F4A53881B05180F53880E490B405380ED
S113044053880D490B40538011008022D2014B8800
S11304501342FCD106494A8803020648024013436A
S11304604B80064B984710BD19010000020C004058
S1130470000C0040FFF0FFFFFFBFFFFF5901000029
S113048010B50C7824020443024B9847A4B2024BE3
S11304905C8010BD25040000000C00407047000083
S11304A010B5054B9847054B9847054B9847054BA6
S11304B09847054B984710BD6D02000015010000D8
S11304C09D0400009D0400009D040000FEE7000060
S11304D0F8B52A4A2A4B9A4211D01A00294B9A425B
S11304E00DD2294A03339B1A9B0801339B00002237
S11304F0234822498C58845004329A42FAD1234A20
S1130500234B9A420AD2D34321495B1803218B43DC
S113051004339B18002102C29342FCD11D4AFF21DF
S11305201D4B8B439360FD3990235B001B4AD150D4
S11305301B4AD3780325AB4302242343D370D378D7
S11305400C27BB4308263343D370164B987B3022C9
S11305509043202210439873997BB9433143997394
S11305609A7BAA4322439A730F4A536880210B4310
S113057053600E4B98470E4B9847FEE7581F0000F8
S113058000000020040000200400002004000020DB
S11305907800002000ED00E0000000000070004141
S11305A00050004100480041004000413D1E000051
S11305B0350D000070B5394BC222D2009A601A6A18
S11305C037490A401A621A6A80210A431A621A6A6F
S11305D04026B2431A621C6A02252C431C629C69A1
S11305E0304A14409C619869084398619969314381
S11305F0996199690422114399619A692A439A611C
S1130600294A137801210B4313705378DB09FCD179
S1130610254B802252009A600222FF329A60234ABC
S11306205A60234A5A601A005378DB09FCD11E4BE6
S11306305A8892B25A801F4A5A801F4A5A801F4AC7
S11306405A801F4A5A801A005378DB09012BFBD0C9
S11306501C4B197A072291431972597A91435972A2
S1130660997A91439972D97A9143D9729A690821F6
S11306700A439A61196A802252020A431A629A69E9
S113068040210A439A61196A802252010A431A627C
S1130690196A8022D2010A431A6270BD0008004020
S11306A0FFFCFFFFFFF8FFFF000C004000062900DD
S11306B0010429001E4000001C4000000540000009
S11306C01D4000000004004070B51F4B8022520101
S11306D09A603520195C0F22114019544B24195D7E
S11306E0012001431955194D1C00B63421780F26F9
S11306F0B1430426314321701E00CC3631780143C6
S1130700317021781140402631432170173421780B
S1130710014321703E215C5C22405A541E315A5CD4
S1130720104358548022D2016A601900CE310A78ED
S1130730022002430A7080229200AA60113AFF3A12
S11307409A60FF23AB6070BD0044004180440041C7
S11307500C4A137801210B4313705378DB09FCD145
S1130760084B80225200DA60DA6907218A4305398E
S11307700A43DA611A780A431A701022024B1A608B
S11307807047C0460018004000E100E082B00190CC
S1130790019AFA239B005343002B07DD0022FA2120
S11307A089000132019B4B439342FADC02B070474B
S11307B010B50022344B1A701A00537EDB09012B4A
S11307C0FBD0314A137801210B431370537EDB09AC
S11307D0012BFBD02C4B02225A70E622D2009A80C5
S11307E01A00537EDB09012BFBD0274B274A1A61E1
S11307F01969F02212050A431A611A00537EDB09B3
S1130800012BFBD0224A117853781B020B431B04A3
S11308101B141D4A118DFF205C05240E81432143C6
S113082011859B04118D5B0F1B021A4C21400B4355
S11308301385138D834302210B431385118DE0230C
S1130840DB000B431385137B02210B431373537E8D
S1130850DB09012BFBD00C4B0122DA751A7802213B
S11308600A431A701A00537EDB09012BFBD00A4A93
S1130870116880231B040B431360034B3422DA8476
S11308808A2212019A8410BD00400042131800000D
S113089023608000FFF8FFFF00E100E0124B5B8B58
S11308A0DBB2124A13701378DBB2FA2B02D9FA22A4
S11308B00E4B1A700D4B1B78DBB2042B02D80522A9
S11308C00A4B1A70094B1B78DBB2952B08D8074BDF
S11308D01B78DBB26A2B03D90222054B1A6002E0B3
S11308E00122034B1A60704700400042440000207C
S11308F048000020F0B5CE46474680B583B001904D
S1130900FA239B009946012400261D003A4F63E018
S11309100A23994601240A255EE0013C092C4FD89C
S1130920A300364AD3589F46B2000021344BD1501D
S11309300136019B4A4654431C1B0194012E45D0A9
S1130940022EE5D00124032E44D10123994601242B
S1130950012541E0B2000121294BD1500136E8E7DD
S1130960B2000221264BD1500136E2E7B200032146
S1130970234BD1500136DCE7B2000421204BD15087
S11309800136D6E7B30005221D495A500136D0E797
S1130990B30006221A495A500136CAE7B3000722A7
S11309A017495A500136C4E7B300082214495A5073
S11309B00136BEE7B300092211495A500136B8E79F
S11309C0B30063220E495A500136B2E7340064235F
S11309D099466425032E09DC0198019B9846290059
S11309E0B847414599D001344D44F3E703B00CBCFA
S11309F090469946F0BDC0463D100000A81E000078
S1130A00680000200368092B40D89B00224AD35871
S1130A109F46224BC0229A61813A5A6170471F4B0C
S1130A20F9229A61F33A5A61F8E71C4BA4229A61BD
S1130A30493A5A61F2E7194BB0229A61613A5A6114
S1130A40ECE7164B99229A61333A5A61E6E7134B65
S1130A5092229A61253A5A61E0E7104B7D225A614D
S1130A6005329A61DAE70D4B07225A61F1329A6135
S1130A70D4E780220A4BD3187F2159619A61CDE7CC
S1130A80064B67225A6131329A61C7E7034B8822C9
S1130A909A61113A5A61C1E7D01E000080440041B6
S1130AA00044004100221F4B1A801A00D37BDB094B
S1130AB0FCD11C4B1A881C490A401A801A886021F0
S1130AC08A4340210A431A801A880C218A4304214C
S1130AD00A431A80FF221A755A7904218A435A71EB
S1130AE01A00D37BDB09FCD10E4AD37BDB09FCD192
S1130AF00C4A138802210B431380D37BDB09FCD1FE
S1130B00084AD37BDB09FCD1064AD37BDB09FCD141
S1130B10044A937902210B439371D37BDB09FCD103
S1130B207047C04600300042FFF8FFFF00221E4B12
S1130B301A801A00D37BDB09FCD11B4B1A881B4992
S1130B401140C022D2000A431A801A8860210A4345
S1130B501A801A880C218A431A805A7908398A43E0
S1130B605A711A00D37BDB09FCD10F4A537B012154
S1130B700B435373D37BDB09FCD19C220A4B1A76BB
S1130B801A00D37BDB09FCD1074A138802210B43EB
S1130B901380D37BDB09FCD1054A116880239B03B6
S1130BA00B4313607047C04600380042FFF8FFFF54
S1130BB000E100E0F0B5DE46574680B583B0204B37
S1130BC0802252029A60DA611E4C23681801C01A0E
S1130BD040001D4B98471D4E3060002323601C4F7E
S1130BE038681C4D2B689B461B4B9A4698471B4CF8
S1130BF01B4A1C4BA047009001915846D0471A4A03
S1130C001A4BA04702000B0000980199184CA0470A
S1130C10184B9847184C20602068184B9847184B7D
S1130C20186023683B6033682B60164A937B01216C
S1130C300B43937303B00CBC92469B46F0BDC04675
S1130C40804400414000002089100000540000202E
S1130C506000002058000020491C000049170000D3
S1130C6017B7D100DE02EF3F5C72DC291DAC9F3F59
S1130C7029110000ED1C00005C0000204910000058
S1130C804C00002000380042094B1B6A5B040BD463
S1130C900022084B1A6080225200074B1A61074A4F
S1130CA013680133136070470122024B1A60F2E7A4
S1130CB08044004150000020001800404000002003
S1130CC0184B1B68012B04D0164B1B68022B16D043
S1130CD07047154A937902210B439371D37BDB0947
S1130CE0FCD112490B78DBB20F4A53760B78DBB296
S1130CF013760F4A137B02210B431373E4E70A4A6A
S1130D00937902218B439371D37BDB09FCD1064B8E
S1130D1000221A765A76064A137B02210B43137378
S1130D20D6E7C046480000200030004244000020BE
S1130D3000400042F8B5DE4657464E464546E0B50B
S1130D40394B9847394B9847394B9847394B984713
S1130D50394B9847394B9847394B9847394B802141
S1130D60C122920099508021C9050C329950364A0B
S1130D70364B1A60364B802252019A61F0229A61F6
S1130D80344A137B02210B431373334B9A4680235B
S1130D9099462F4B4B449B4635E080239B005A4693
S1130DA0936101202D4B984732E02D4B18682D4B51
S1130DB09847274C4B466361244F38682A4EB04706
S1130DC00120264DA8474B46A36140239846636102
S1130DD03B68181DB0470120A8474346A361203B48
S1130DE09846636138680830B0470120A8474346F5
S1130DF0A361103B9846636138680C30B04701200A
S1130E00A8474346A361D047184B1B68012BC4D0A5
S1130E10164B1B68002BC8D180239B005A46536194
S1130E2001200E4B9847C0E7A1040000B50500005F
S1130E30C9060000B10700002D0B00005107000097
S1130E40A50A000000E100E0680000206400002022
S1130E500044004100400042C10C00008D07000026
S1130E604C000020F5080000050A00005000002096
S1130E7003460B437FD4002243088B4274D30309F7
S1130E808B425FD3030A8B4244D3030B8B4228D398
S1130E90030C8B420DD3FF22090212BA030C8B42BE
S1130EA002D31212090265D0030B8B4219D300E05E
S1130EB0090AC30B8B4201D3CB03C01A5241830BE3
S1130EC08B4201D38B03C01A5241430B8B4201D393
S1130ED04B03C01A5241030B8B4201D30B03C01ABC
S1130EE05241C30A8B4201D3CB02C01A5241830A36
S1130EF08B4201D38B02C01A5241430A8B4201D365
S1130F004B02C01A5241030A8B4201D30B02C01A8E
S1130F105241CDD2C3098B4201D3CB01C01A5241F5
S1130F2083098B4201D38B01C01A524143098B427E
S1130F3001D34B01C01A524103098B4201D30B0167
S1130F40C01A5241C3088B4201D3CB00C01A52418C
S1130F5083088B4201D38B00C01A524143088B4251
S1130F6001D34B00C01A5241411A00D201465241EA
S1130F70104670475DE0CA0F00D04942031000D309
S1130F804042534000229C4603098B422DD3030A5E
S1130F908B4212D3FC22890112BA030A8B420CD36E
S1130FA0890192118B4208D3890192118B4204D397
S1130FB089013AD0921100E08909C3098B4201D317
S1130FC0CB01C01A524183098B4201D38B01C01A51
S1130FD0524143098B4201D34B01C01A52410309C8
S1130FE08B4201D30B01C01A5241C3088B4201D377
S1130FF0CB00C01A524183088B4201D38B00C01A24
S11310005241D9D243088B4201D34B00C01A5241FA
S1131010411A00D20146634652415B10104601D387
S11310204042002B00D54942704763465B1000D311
S1131030404201B5002000F005F802BD0029F8D0B7
S113104016E770477047C04641024300C20F490A81
S11310501B0E00207E2B0DDD9D2B0CDC802000045C
S11310600143952B0ADC9620C31AD9404842002A32
S113107000D108007047034BD018FBE7963B99401A
S1131080F4E7C046FFFFFF7F70B5002830D0C317D8
S1131090C4185C40C50F200000F0B2FE9E231B1A4A
S11310A0962B0DDC9622D21A94402A006402640A1C
S11310B0DBB26402DB05600AD2071843104370BD3B
S11310C0992B19DC9922D21A002A29DD9440220096
S11310D0144C1440510704D00F210A40042A00D0B4
S11310E00434620113D4A401640ADBB22A00E0E7E9
S11310F0002200230024DCE705222100121AD1403B
S1131100B922D21A9440621E94410C43DAE7054B8B
S11311102A001C409F23A4011B1A640ADBB2C8E7FF
S11311202200D5E7FFFFFFFBF8B54546DE465746EC
S11311304E460C03E0B54E00C90F88460D00610A07
S1131140440F0C43C70019035800DB0F9B464B0A9E
S1131150510F0B43760D400D1900D200D84500D134
S1131160AEE0351A002D00DCF6E000280FD1134361
S113117000D1DBE06B1E002B00D037E1BA1A974296
S1131180BF41641A7F42E41B0126170024E0C64BCA
S11311909E424DD080231B041943382D00DD07E106
S11311A01F2D00DD38E12020431B9A460B005046DA
S11311B08340994613004846EB40184303005046C9
S11311C08240501E8241E9401A43BA1A611A97427A
S11311D0A441170064420C1B230262D56402650A11
S11311E0002D00D1DFE0280000F00AFE0300083BD8
S11311F01F2B00DDD2E020223C00D21A9D40D440B7
S11312009F4025439E4200DDC4E09E1B731C1F2BA0
S113121000DDF1E0202238002900D21AD8409140A4
S113122097402C000143781E8741DC4000260F4381
S11312307B0709D00F233B40042B05D03B1DBB4249
S1131240BF417F42E4191F0023022CD5964B01367F
S11312509E4200D19AE04546944BFF081C4060072B
S1131260760564020743240B760D00212403230B27
S11312700C0D8F4A24051C431440330523435B00A3
S1131280ED075B082B43380019003CBC9046994697
S1131290A246AB46F8BD6446044300D111E2040003
S11312A067467B07C6D145466007FF080743E40845
S11312B07D4B9E4230D024037605240B760DD4E773
S11312C0331A9A46002B78DD002831D076488642BE
S11312D0AED08020000401435346382B00DCE9E003
S11312E00A43511E8A410021D219BA42BF41091949
S11312F07C4217000C192302D3D56B4B01369E4256
S113130000D13AE10120694B1C407B0807401F4390
S1131310E007074364088BE723003B4300D1CBE19C
S11313208022120314432403240B9EE72E007FE73C
S11313300800104300D1B4E0581E002800D0DEE0BD
S1131340BA18BA429B4164185B42E418170001269C
S11313502302A6D50226D5E7002D6ED1701C4005C8
S1131360400D012800DCF9E0B81A84468742804128
S1131370E51A40422D1A280200D489E0D71BBA424C
S113138092411C1B5242A51AD84629E7454600241F
S113139000276AE7454CF61A2C4049E73D002838F7
S11313A0854000272EE7380000F02AFD20301DE795
S11313B00A43511E8A41002107E7002B00D0F3E0C5
S11313C0701C43055B0D012B00DCADE0364B9842ED
S11313D000D1D1E0BA18BA42BF4164187F42E4197F
S11313E0E707520817436408060021E72E488542A0
S11313F000D193E01D00D0E629001F3EF140202BD0
S113140000D18DE04022D31A9D402F437D1EAF4171
S113141000240F43002644E72B000800203BD8405B
S11314200300202D00D17DE04020451BA9400A4344
S1131430511E8A4100211A43C7E6002E50D01A4E8D
S1131440B04257D080266B429946360434434B460B
S1131450382B00DDD6E01F2B00DD35E12026F51A00
S11314602600AE40B2463E00DE40AC46350056464D
S11314702E436546AF407D1EAF41DC403743D71B4A
S1131480BA4292410C1B5242A41A0600D846A3E663
S1131490644667462C4300D0A2E6002500260027B8
S11314A006E71E00C4E6C046FF070000FFFF7FFFFB
S11314B0FFFF0F801F2B63DC2020C31A0800984015
S11314C09C46834653461000D840030058461843B0
S11314D063469A40531E9A4153460243D94003E758
S11314E026003E4306D0EB439946002BC7D0944ECA
S11314F0B042ACD10C0017000600D84698E6904BD9
S11315009A450BD08246E7E6002800D09EE01800FA
S1131510104300D1E9E01C001700D846884E87E646
S1131520002572E7002182E723003B43002E00D010
S1131530ABE0002B00D1E7E00B00134300D177E6CA
S1131540BA18BA42BF4164187F42E419230200D496
S1131550F2E07C4B17001C40060069E6200038438B
S1131560002ED1D100285BD11C00144300D1A8E087
S11315701C001700D8465BE606000024002797E607
S113158050460B002038C34099465346202B00D1C7
S113159095E0402350461B1A99400A43511E8A4144
S11315A04B4600211A439FE6002E30D126003E43CD
S11315B067D0DB439A46002B1CD0614EB04260D00A
S11315C05346382B00DD96E01F2B00DD9FE02026DC
S11315D0F31A26009E409C46B34653463E00DE4026
S11315E033005E461E4363469F407B1E9F41534625
S11315F0DC403743BF189742924164185242A41802
S1131600060078E627437C1EA741002437E74C4EAA
S1131610B04236D080265B4236049A463443CFE744
S11316201800104300D103E6B81A84466745AD415B
S1131630E01A6D42401B050200D42CE6D71BBA42C7
S113164092411C1B5242A41AD846F1E518001043DB
S113165000D163E7F808670707438020E408000324
S1131660044208D0DD08054205D1D20859071143C8
S11316700F002C00D8467B0FE4001C43FF00304EC3
S1131680D6E50C0017000600D2E5002B38D00B007D
S1131690134300D142E7F808670707438020E408B2
S11316A000030442E7D0CB080342E4D1D20849073F
S11316B011430F001C00DEE700270024D5E50021BC
S11316C06BE700250027F3E54E462500203EF54054
S11316D04B462E00202B2DD04025ED1AAC4027433D
S11316E07C1EA74100243743C9E680240025240337
S11316F0134E0027DCE527437C1EA741002479E72D
S11317000C0017000E4E93E50C00170090E55646AA
S11317102300203EF34099465346202B0ED040230D
S113172056469B1B9C4027437C1EA7414B460024E6
S11317301F435FE70024D2E71700B2E50024F2E775
S1131740FF070000FFFF7FFFF0B557464546DE4622
S11317504E46E0B50C0398464E00230B87B00700B5
S113176092469B46760DCD0F002E6BD06D4B9E425C
S113177035D080245B46420F2404DB0014431C4311
S1131780C3009946684BA3469C4600230027664441
S1131790029343461C035A00DB0F5046240B520DA0
S11317A0984600D176E05F4B9A426DD08023410F7A
S11317B01B040B435C49E4008C461C43C30000201B
S11317C062444146B6186940721C0191944607432D
S11317D00F2F00D9B0E0554ABF00D25997465B4657
S11317E00343994600D087E000239B460233082731
S11317F00293CEE742460192022867D0032800D123
S11318000EE2012800D062E1002300240022994660
S113181001990140CDB2002112030B0D120B1B05DF
S11318201343434A240513401C436400ED07640832
S11318302C434846210007B03CBC90469946A2463A
S1131840AB46F0BD034399464FD05B46002B00D115
S113185089E1584600F0D4FA03000B3B1C2B00DD51
S11318607AE11D22D31A3A0001005C46DA400839B5
S11318708C4013008F4023439B46B94600232D4ED2
S11318800027361A029384E7534623432AD10024BF
S1131890022096E75346234320D0002C00D157E181
S11318A0200000F0ADFA03000B3B1C2B00DD49E1E6
S11318B01D21CB1A51460200D9405346083A9440A0
S11318C093400C431B4A121A00207AE70125019B1E
S11318D0144C1D400023002299469CE7002400225A
S11318E001206EE7534603206BE700239B46013338
S11318F00427002602934CE7032381460C27029316
S113190047E780220023002512039946054C82E70D
S11319105C464B4602986FE75C464B46019502983D
S11319206AE7C046FF07000001FCFFFFF81E000045
S1131930FFFF0F800DFCFFFF4A464946170C1A0CA7
S11319401B041B0C08041900000C414315008846B5
S113195019007D43794303958946290015004543C1
S11319604D44029545462D0CAA46029D5544A94571
S113197006D98A46802149028946CA4451460391C0
S1131980290C0491414609042D04090C88462900B8
S1131990250C24044144240C05912100414388462C
S11319A0210079438A466843414650448146080CE5
S11319B048446F43824503D98021490289464F44F4
S11319C0010C894639004944029141460F040499A7
S11319D03F0C88460004C01980444146049159468E
S11319E00F0C0904090C884659438A4639005143AF
S11319F0894641464A435146090C8B467B43D218DB
S1131A005A44934203D980235B029B46D9445146EE
S1131A100904090C8A46414661437C43130C1204B1
S1131A204B445244A1468A463C0041466C434D43D4
S1131A3051464D440F0C7D19A94503D98021490213
S1131A4088464444049F0399B84641448B468345E1
S1131A50804141428846514608042F04000C3F1837
S1131A605846029910188946904292414F44BA460A
S1131A70524299469346C244D144CB448F42BF411B
S1131A80C245894199459B41934592417F424942D0
S1131A902D0C52420F435B4213437F19FF185B46E0
S1131AA03C19DB0D059A64021C43430213435D1E7B
S1131AB0AB415A46C00D034352021343E20156D5CB
S1131AC001205A0803401343E207134364085A48A9
S1131AD0604400284DDD5A0709D00F221A40042A19
S1131AE005D01A1D9A429B415B42E4181300E2019F
S1131AF004D58020514AC00014406044504A9042AA
S1131B0000DDE3E60125DB0862071A436402019B5A
S1131B109146220B4405640D1D407CE68022594603
S1131B201203114208D0144206D122431203120BAD
S1131B3045469946434C6EE65B461A431203120B24
S1131B40404C68E603005446283B9C400023B9E619
S1131B5000F056F92030A6E60300283B9F400023FE
S1131B60BB4699468AE600F04BF9203074E6B44649
S1131B70ADE701252A1A382A06DD019B00241D4001
S1131B8000230022994646E61F2A21DC2025200056
S1131B90AD1A1E00AB40A840D6405D1EAB41304399
S1131BA01843D440430709D00F230340042B05D026
S1131BB00300181D98429B415B42E418230221D57F
S1131BC00125019B01241D4000230022994622E6A1
S1131BD01F2521006D42281AC1400800202A1DD06B
S1131BE05F35AA1A944023435C1EA341072503438F
S1131BF01D400022002D09D00F2200241A40180095
S1131C00042AD6D1030065076402220BDB082B43A8
S1131C1001259946019B00241D40FCE50024E2E7D0
S1131C20802201251203224301991203120B0D4055
S1131C309946044CEFE5C046FF030000FFFFFFFE9A
S1131C40FE070000FF0700004100090E4B1C70B5A1
S1131C50DBB24602750AC40F012B14DDE0239B009E
S1131C606D07360BCB1800210A0D280012051C4DF8
S1131C7032435B052A405B0813435B00E4075B08BF
S1131C802343190070BD002914D1002D1ED0280053
S1131C9000F0B6F80A281CDC0B232A001B1ADA40D1
S1131CA0030015339D400F4B12031B1A5B05160BE3
S1131CB05B0DD8E7002D06D0320B802636036D0766
S1131CC01643094BCFE7084B0026CCE70023002638
S1131CD0C9E703002A000B3B9A400025E3E7C0460E
S1131CE0FFFF0F8089030000FF070000F0B54C00E0
S1131CF0640D0B03621C450F5B0A52052B43C90F8D
S1131D00C500520D012A28DD3A4AA618FE2E1BDC16
S1131D10002E3EDD80010200501E82416D0F2A43D9
S1131D20DB0013435A0704D00F221A40042A00D0C0
S1131D3004338022D2041A405AD00136FF2E03D035
S1131D409B015B0AF4B201E0FF2400235802E4057E
S1131D50400AC90720430843F0BD002C07D01D43A7
S1131D60F2D08020DB0080040343FF26DAE72B4314
S1131D7003D00523DB08FF2C03D05B025B0AE4B22B
S1131D80E4E7002B32D08020C00303435B025B0AEC
S1131D90DCE73200173214DB80221E2712041343BF
S1131DA0BF1B1F2F0FDC144A944664442A00A5402D
S1131DB02E00A340751EAE41FA4033431343002660
S1131DC0B0E70024D5E702225242961B1A00F240E3
S1131DD0202F09D0094884466444A3402B435D1E48
S1131DE0AB41002613439DE70023F7E70023ADE74B
S1131DF03400BFE780FCFFFF82FCFFFFA2FCFFFF73
S1131E001C2101231B04984201D3000C10391B0A26
S1131E10984201D3000A08391B09984201D30009EA
S1131E20043902A2105C40187047C0460403020241
S1131E3001010101000000000000000070B500264F
S1131E400C4D0D4C641BA410A64209D1002600F0D1
S1131E5073F80A4D0A4C641BA410A64205D170BD48
S1131E60B300EB5898470136EEE7B300EB589847B8
S1131E700136F2E7441F0000441F0000441F000025
S1131E80481F0000F0010000D0010000D001000054
S1131E905C020000E2010000FE010000D401000029
S1131EA00C0200004C020000280900005409000044
S1131EB0600900006C090000780900008409000032
S1131EC0900900009C090000A8090000B409000062
S1131ED0120A00001E0A00002A0A0000360A000046
S1131EE0420A00004E0A00005A0A0000660A000076
S1131EF0720A0000800A000038190000F817000078
S1131F00F8170000F4170000101900001019000061
S1131F1002190000F4170000101900000219000053
S1131F2010190000F4170000181900001819000017
S1131F30181900001C1B0000F8B5C046F8BC08BC0A
S1131F409E467047DD000000F8B5C046F8BC08BCEA
S10B1F509E467047B500000035
S1071F580100000080
S90304D127
