:100000006820002019010000150100001501000002
:1000100000000000000000000000000000000000E0
:1000200000000000000000000000000015010000BA
:100030000000000000000000150100001501000094
:100040001501000015010000150100001501000058
:10005000290B00001501000015010000150100002A
:100060001501000015010000150100001501000038
:100070001501000015010000150100001501000028
:10008000150100001501000015010000590B0000CA
:100090001501000015010000150100001501000008
:1000A00015010000150100001501000015010000F8
:1000B0000000000010B5064C2378002B07D1054B3B
:1000C000002B02D0044800E000BF0123237010BDC4
:1000D0000400002000000000940F0000084B10B541
:1000E000002B03D00749084800E000BF0748036819
:1000F000002B00D110BD064B002BFBD09847F9E731
:100100000000000008000020940F0000940F000081
:1001100000000000FEE70000F8B52A4A2A4B9A4288
:1001200011D01A00294B9A420DD2294A03339B1A47
:100130009B0801339B000022234822498C5884509D
:1001400004329A42FAD1234A234B9A420AD2D34329
:1001500021495B1803218B4304339B18002102C201
:100160009342FCD11D4AFF211D4B8B439360FD3907
:1001700090235B001B4AD1501B4AD3780325AB4325
:1001800002242343D370D3780C27BB430826334380
:10019000D370164B987B30229043202210439873E3
:1001A000997BB943314399739A7BAA4322439A734B
:1001B0000F4A536880210B4353600E4B98470E4BF8
:1001C0009847FEE7940F0000000000200400002084
:1001D00004000020040000206400002000ED00E086
:1001E0000000000000700041005000410048004144
:1001F00000400041510D0000150B0000144BF0228F
:100200009A609A61134B713A9A609A61012812D0F0
:1002100009DD022815D003280CD10D4B20229A614C
:10022000103A5A6106E0002804D1094B10229A6165
:1002300070325A617047064B80229A61403A5A6187
:10024000F8E7034B40229A61203A5A61F2E7C04630
:10025000004400418044004100280DD101293BD0D9
:1002600002293BD003293BD0042900D0704701224A
:10027000234B1A707030F9E701280ED0022819D0EC
:100280000328F3D1012922D0022937D00429EDD146
:1002900001221B4B1A706420E8E7012922D00229B1
:1002A00022D0032922D00429E0D10122144B1A7054
:1002B0006C30DBE701291BD002291BD003291BD09E
:1002C0000429D3D101220E4B1A707630CEE70222D8
:1002D0000B4B1A706230C9E73120C7E73220C5E7FF
:1002E0003320C3E73420C1E73520BFE73620BDE720
:1002F0003720BBE73820B9E73920B7E73020B5E72A
:10030000280000201E4B7F229A609A610378203BD0
:10031000DAB2192A06D893001A4AD3589F463F22C8
:10032000174B5A6170470622154B5A61FAE75B2258
:10033000134B5A61F6E74F22114B5A61F2E76622DE
:100340000F4B5A61EEE76D220D4B5A61EAE77D22B1
:100350000B4B5A61E6E70722094B5A61E2E77F221D
:10036000074B5A61DEE76722054B5A61DAE77F22C5
:10037000034B9A61D6E70822014B5A61D2E7C04687
:1003800080440041980D000030B589B00790FA23F1
:100390009B000693002205920921049103920132E9
:1003A00002920193444D454C1EE0029B013B092BF8
:1003B0006CD89B00E3589F46059B5A1C0592302140
:1003C0003F4AD154079A0299019B01394B43D31AF2
:1003D000079301230293059B012B5ED0059B022B03
:1003E0005FD0059B032B60D0059B032B61DC079836
:1003F0000699A8470091009A079B9A42D5D0029B84
:1004000001330293069B019A9B180693ECE7059B28
:100410005A1C059231212A4AD154D3E7059B5A1C14
:1004200005923221264AD154CCE7059B5A1C0592ED
:100430003321234AD154C5E7059B5A1C0592342128
:100440001F4AD154BEE7059B5A1C059235221C4910
:10045000CA54B7E7059B5A1C059236221849CA545C
:10046000B0E7059B5A1C059237221549CA54A9E7E3
:10047000059B5A1C059238221149CA54A2E7059BD4
:100480005A1C059239220E49CA549BE7059B5A1CF7
:10049000059247220A49CA5494E7633306930193AD
:1004A0009CE70833069301939BE7023B0693019375
:1004B0009AE709B030BDC046450D0000000E0000AF
:1004C0005800002030B585B00024039402940194B4
:1004D000042847D88000544C2058874600200390B9
:1004E000042900D984E08900504841588F46186893
:1004F00003900433F4E71C68A00000194000039047
:1005000003985C68A446604403900833E8E76420DD
:100510001C6860430390039D5C68A00000194000C4
:100520004019039003989C68A446604403900C33E0
:10053000D6E7FA2080001C6860430390039C642087
:100540005D68684300190390039D9C68A000001932
:100550004000401903900398DC68A446604403906F
:100560001033BDE763200390BAE700230293022A09
:100570004CD040DD032A4ED0042A51D10398029971
:100580002B4B984701903CE01B680293EFE71868FB
:10059000810009184900029102995B68CB18029307
:1005A000E5E76421186841430291029C5868810084
:1005B000091849000919029102999B68CB18029306
:1005C000D5E7FA2189001868414302910298642115
:1005D0005C68614309180291029C986881000918BF
:1005E0004900091902910299DB68CB180293BEE712
:1005F00063230293BBE7012A12D1039B029A9B1843
:10060000019301980B4B984705B030BD039B029AAC
:100610009B1A0193F5E7039A029B53430193F0E77A
:1006200063230393EDE7C046280E00003C0E000054
:10063000790B000089030000F0B5D6464F464646C8
:10064000C0B58EB00023039302930193009304A9D5
:1006500009339C464B4A013398460427032602255A
:10066000093B9A4630E0039B9B0000245C5001301C
:10067000039B0133039327E0039B9B0054465C508C
:100680000130039B013303931EE0039B9B005D50ED
:100690000130039B0133039316E0039B9B005E50E4
:1006A0000130039B013303930EE0039B9B005F50DB
:1006B0000130039B01330393039B9B0005245C5093
:1006C0000130039B01330393039B092B4CDC03781C
:1006D000303BDCB2482C42D8A300D3589F46039B42
:1006E0009B0006245C500130039B01330393EBE72E
:1006F000039B9B0007245C500130039B0133039351
:10070000E2E7039B9B0008245C500130039B01330C
:100710000393D9E7039B9B0064465C500130039B25
:1007200001330393D0E7039B0193534602930130B7
:10073000CAE7039B019302950130C5E7039B019330
:1007400002960130C0E7039B019302970130BBE79B
:10075000039B019C1B1B009343460393B4E7039B3D
:100760009B0064465C50AFE7002303930198009917
:10077000029A04AB044CA0470EB01CBC90469946AC
:10078000A246F0BD500E0000C50400001B4BC22263
:10079000D2009A601A6A02210A431A62196A8022F8
:1007A00012060A431A621A6A15490A401A621A6A3C
:1007B00080210A431A620122124B1A701A005378E0
:1007C000DBB2802BFBD00F4B812252009A600E4A85
:1007D0005A600E4A5A800E4A5A800E4A5A800E4B70
:1007E00002225A7000221A725A7204219972DA7225
:1007F00040329A610431D9611A62704700080040A2
:10080000FFFCFFFF000C004002062900054100002C
:100810001E410000184100000004004082B0002387
:1008200001930193FA239B005843019B984205DDF5
:10083000019B01330193019B8342F9DB02B07047B6
:1008400070B51C4BF0229A609A6102291BD00EDD14
:10085000032923D0042915D10330174B9847154C91
:10086000102565610120154B9847A5610AE0012913
:1008700008D1114B98470F4C8025656101200F4B23
:100880009847A56170BD01300B4B9847094C402536
:1008900065610120094B9847A561F3E70230064BDB
:1008A0009847044C202565610120044B9847A561B9
:1008B000E8E7C04600440041050300001D080000B1
:1008C000002906DD0300411800221A7001338B4213
:1008D000FBD1704770B57C4A7C4B1A607C4CF0238E
:1008E000A360F0231B03636006235022A35401324C
:1008F000A3540132A3540132A354764B1868764BAB
:100900009847236A1B0315D50122744B1A60744B58
:100910001B68012B46D029DD022B58D0032B00D0B9
:1009200087E06E4B1B68002B00D1BDE000226D4BB1
:100930001A607EE0664B1B6A5B0303D50222674B9D
:100940001A60E4E7624B1B6A9B0303D50322634BE7
:100950001A60DCE75E4B1B6ADB0303D504225F4BA6
:100960001A60D4E700225D4B1A60D0E7002B60D1FB
:100970005A4B1B68002B05D001235B4A1360584A71
:10098000136056E0534B1B68032B07D0514A136882
:10099000013313600022544B1A604AE000224D4B91
:1009A0001A60F7E7504B1B68012B03D000224C4B19
:1009B0001A603EE04B4B1A6801321A601A684B4BC2
:1009C0001B689A4235DD0222454B1A6031E0484BE4
:1009D0001B78032B3CD03F4B1868404B1968454BA4
:1009E0009847454B187045490A68501C08601B78A9
:1009F000DBB243498B543E4B1B78012B34D03C4B2C
:100A00001B78022B3FD03F4B1B68042B02DD0022DA
:100A10003C4B1A603B4B1A68511C1960364B1B78D3
:100A2000DBB229498B5400222E4B1A6003322C4B27
:100A30001A60264D01212868334CA04702212868FE
:100A4000A04703212868A04728680421A04770BD5B
:100A50001E4B186805212D4CA0470A212848A047A5
:100A60000022234B1A70B6E7184B18680521274B54
:100A7000984701225242234B1A6000231C4A1370EC
:100A80001D4A1370BBE7114B186805211F4B98478F
:100A90001B481F4B984700231A4A1360174A1360DC
:100AA0000322134B1A70BEE70E4B1A6801321A600C
:100AB0001A680E4B1B689A42BBDD0023094A13607B
:100AC000074A1360B5E7C0465800002050000020D8
:100AD0000044004130000020FD01000054000020CF
:100AE00038000020200000206000002000000020CE
:100AF0002800002059020000400000202C000020A7
:100B0000440000202400002041080000C10800002B
:100B10003906000010B5024B9847024CA047FDE78C
:100B20008D070000D50800000022074B1A60043230
:100B3000064B1A6106485221435C033A93434354DF
:100B4000044B1A607047C046340000200018004073
:100B5000004400413C000020054B997B01200143EB
:100B600099731A7B02431A73024B01221A60704771
:100B7000003000423400002003460B437FD40022A3
:100B800043088B4274D303098B425FD3030A8B4221
:100B900044D3030B8B4228D3030C8B420DD3FF228B
:100BA000090212BA030C8B4202D31212090265D059
:100BB000030B8B4219D300E0090AC30B8B4201D30C
:100BC000CB03C01A5241830B8B4201D38B03C01A53
:100BD0005241430B8B4201D34B03C01A5241030BCA
:100BE0008B4201D30B03C01A5241C30A8B4201D37B
:100BF000CB02C01A5241830A8B4201D38B02C01A26
:100C00005241430A8B4201D34B02C01A5241030A9C
:100C10008B4201D30B02C01A5241CDD2C3098B4281
:100C200001D3CB01C01A524183098B4201D38B01FE
:100C3000C01A524143098B4201D34B01C01A5241A1
:100C400003098B4201D30B01C01A5241C3088B42E6
:100C500001D3CB00C01A524183088B4201D38B00D1
:100C6000C01A524143088B4201D34B00C01A524173
:100C7000411A00D201465241104670475DE0CA0F4A
:100C800000D04942031000D34042534000229C460A
:100C900003098B422DD3030A8B4212D3FC22890114
:100CA00012BA030A8B420CD3890192118B4208D3EA
:100CB000890192118B4204D389013AD0921100E04C
:100CC0008909C3098B4201D3CB01C01A5241830960
:100CD0008B4201D38B01C01A524143098B4201D38D
:100CE0004B01C01A524103098B4201D30B01C01AB8
:100CF0005241C3088B4201D3CB00C01A5241830832
:100D00008B4201D38B00C01A5241D9D243088B4287
:100D100001D34B00C01A5241411A00D2014663462A
:100D200052415B10104601D34042002B00D549428E
:100D3000704763465B1000D3404201B5002000F0CD
:100D400005F802BD0029F8D016E770477047C04685
:100D500070B500260C4D0D4C641BA410A64209D1A1
:100D6000002600F007F90A4D0A4C641BA410A642A5
:100D700005D170BDB300EB5898470136EEE7B300DC
:100D8000EB5898470136F2E7800F0000800F000013
:100D9000800F0000840F00006E0300002403000099
:100DA00024030000240300002403000024030000A7
:100DB0002403000024030000240300002403000097
:100DC0002403000024030000240300007603000035
:100DD00024030000240300001E030000260300007B
:100DE0002E030000360300003E030000460300000F
:100DF0004E030000560300005E030000660300007F
:100E0000B80300000E0400001C0400002A040000C7
:100E1000380400004604000054040000620400008E
:100E2000700400007E040000DC040000EE040000FA
:100E3000F60400000E050000320500006A050000FF
:100E4000880500008E050000A2050000C205000014
:100E500066060000780600008A0600009A06000078
:100E6000AA060000B8060000DE060000F00600003A
:100E700002070000140700005E0700005E07000084
:100E80005E0700005E0700005E0700005E070000CE
:100E90005E0700005E0700005E0700005E070000BE
:100EA0005E0700005E0700005E0700005E070000AE
:100EB0005E0700005E0700005E0700005E0700009E
:100EC0005E0700005E0700005E0700005E0700008E
:100ED0005E0700005E0700005E0700005E0700007E
:100EE0005E0700005E0700005E0700005E0700006E
:100EF0005E0700005E0700005E0700005E0700005E
:100F00005E0700005E0700005E0700005E0700004D
:100F10005E0700005E0700005E0700005E0700003D
:100F200046070000500700005E0700005E07000053
:100F30005E0700005E0700005E0700005E0700001D
:100F40005E070000320700005E0700005E07000039
:100F5000260700005E0700005E0700005E07000035
:100F60005E0700005E0700005E0700005E070000ED
:100F70003C070000F8B5C046F8BC08BC9E46704768
:100F8000DD000000F8B5C046F8BC08BC9E467047BE
:040F9000B5000000A8
:040F94000A0000004F
:0400000300000119DF
:00000001FF
