S01900004D6F746F72636F6E74726F6C5F52544F532E7372656352
S1130000E05C0020451B0000411B0000411B000078
S113001000000000000000000000000000000000DC
S11300200000000000000000000000006901000062
S11300300000000000000000CD01000011020000DB
S1130040411B0000411B0000411B0000411B00003C
S113005071260000411B0000411B0000411B0000F1
S1130060411B0000411B0000411B0000411B00001C
S1130070411B0000411B0000411B0000411B00000C
S1130080411B0000411B0000411B0000411B0000FC
S1130090411B0000411B0000411B0000411B0000EC
S11300A0411B0000411B0000411B0000411B0000DC
S11300B00000000010B5064C2378002B07D1054B37
S11300C0002B02D0044800E000BF0123237010BDC0
S11300D04400002000000000AC480000084B10B5AC
S11300E0002B03D00749084800E000BF0748036815
S11300F0002B00D110BD064B002BFBD09847F9E72D
S11301000000000048000020AC480000AC4800009B
S113011000000000034B1B68013301D072B6FEE7F8
S113012072B6FEE700000020064A13681868203003
S113013080F30988022080F314883FBCAE4662B67F
S113014000BDC046003B002010B5031F802464049A
S11301501C60043B1960043B02491960143B1A609B
S1130160403810BD15010000704700008022520580
S1130170034B1A60BFF34F8FBFF36F8F7047C046B6
S113018004ED00E072B6044A136801331360BFF350
S11301904F8FBFF36F8F704700000020064B1B6822
S11301A0002B01D172B6FEE7013B034A1360002B1A
S11301B000D162B67047C04600000020EFF3108003
S11301C072B67047002080F310887047EFF30980FF
S11301D00E4B1A6820381060F0C044464D4656460F
S11301E05F46F0C008B572B600F050FF62B60CBCB2
S11301F0116808681030F0C8A046A946B246BB464C
S113020080F309882038F0C81847C046003B002016
S113021010B5074B98470400064B9847002803D0B5
S113022080225205044B1A602000044B984710BDED
S1130230BD0100007D0D000004ED00E0C7010000D9
S11302400022044B1A60044A044B1A600722044B30
S11302501A60704718E000E01F03000014E000E09B
S113026010E000E010B50A4B1968FF2212040A439B
S11302701A601968FF2212060A431A60054B984750
S11302800022054B1A60054B9847054B9847C0461A
S113029020ED00E0410200000000002029010000E0
S11302A01501000070B50400430702D007239C43E6
S11302B00834114B9847114B1B68002B10D0104B7E
S11302C01B68E4180F4A944211D8A34211D20B4A76
S11302D01568ED180A4B1C600B4B9847280070BD3D
S11302E007220A4B08339343044A1360E7E70025C7
S11302F0F2E70025F0E7C0464D0D00006000002045
S1130300FC3A00208F3A0000A10E00006400002097
S1130310002801D072B6FEE770470300083343603B
S1130320012252428260C36003610023036070476C
S113033000230361704743684B609A688A609A6837
S1130340516099600861036801330360704730B5F8
S11303500C6802000832631C02D1026904E01A002E
S113036053681D68AC42FAD253684B6099608A6046
S11303705160086103680133036030BD036942685A
S1130380816891608268416851605A68904205D0E2
S1130390002202611A68501E1860704782685A6011
S11303A0F6E7000070B504001500026C002A0BD1BA
S11303B00368002B04D14068174B984700236360FF
S11303C0A36B0133A36370BD002D0DD18068134B63
S11303D09847A368226C94466344A360626893427E
S11303E0EED32368A360EBE7C0680C4B9847236CFB
S11303F05B42E268D218E26021688A4203D26268F2
S113040094466344E360022DDAD1A36B002BD7D06A
S1130410A36B013BA363D3E7A5130000A14600002F
S113042010B582B001900A00C46C002C05D0A16BF9
S1130430E36B994203D372B6FEE772B6FEE7A16B93
S113044000208B4201D802B010BD01A92000064B48
S113045098470020636A002BF5D020002430034B1A
S11304609847431E9841EEE7A5030000D51100000C
S113047070B50C00016800290BD0026CC3689B188E
S1130480C3604568AB4200D3C160C1682000014B22
S1130490984770BDA1460000F8B50400254B984765
S11304A0A36C002B1EDD244D244E0DE0636A002B4B
S11304B018D020002430B047002810D1A36C013B91
S11304C0A364A36C002B0DDDE36C002BEED00021A4
S11304D02000A8470128F1D1194B9847EEE7184BA3
S11304E09847EBE701235B42A364164B9847114BF3
S11304F09847636C002B16DD2369002B13D025006D
S113050010350E4F0E4E08E0636C013B6364636C60
S1130510002B08DD2369002B05D02800B8470028EC
S1130520F2D0B047F0E701235B426364054B984780
S1130530F8BDC0468501000021040000D51100006B
S1130540ED1200009D01000070B504000D000028AC
S113055020D0174B98472268216CE36B4B43D0188B
S113056060600020A063A2605B1AD318E3600123DB
S11305705B426364A364002D11D12369002B05D071
S1130580200010300B4B9847012805D00A4B9847A0
S1130590012070BD72B6FEE7084B9847F6E72000CD
S11305A01030074DA84720002430A847EEE7C04686
S11305B085010000D51100009D0100006D010000BF
S11305C01B03000070B505000E00002819D0502050
S11305D00D4B9847041E14D03000684301300A4B79
S11305E098472060002809D0E56326640121200093
S11305F0064B98470023E364200070BD2000044BA1
S1130600984772B6FEE7C046A502000049050000FF
S113061011030000F0B5CE46474680B585B004000E
S11306200F0001921D0000280CD000290CD0022DCF
S11306300FD0484B9847002810D1019B002B11D0B4
S113064072B6FEE772B6FEE7036C002BEFD072B60B
S1130650FEE7E36B012BECD072B6FEE700263E4BBF
S1130660984647E00026FAE72A00390020003B4B71
S11306709847E36C002B0FD029002000384B984793
S1130680012801D1374B9847374B9847012005B0D3
S11306900CBC90469946F0BD636A002BF4D0200050
S11306A02430324B98470128EED12E4B9847EBE784
S11306B02D4B98470020EAE72B4B984701A902A845
S11306C02B4B984700283ED1234B9847A36B994660
S11306D0E66B254B9847B1452FD120001030019986
S11306E0244B98472000244B9847244B98470028D4
S11306F020D00126C047A36BE26B9342B4D3022DF2
S1130700B2D0019B002BD3D0002E02D102A81C4BE7
S11307109847154B98471B4B98470F4B9847636C6A
S1130720013301D100236364A36C0133C4D10023DA
S1130730A364C1E70B4B9847DBE720000E4B9847B7
S11307400E4B9847D5E720000B4B98470B4B984727
S113075000209CE70513000085010000A5030000AC
S1130760210400006D0100009D010000D51100006E
S11307707D1200003D11000099040000A10E00004C
S11307805D1200004D0D000070B55020104B9847CD
S1130790041E1AD00023436003608360C360836334
S11307A00122C2630364023A42648264C364103067
S11307B0084DA84720002430A84700230022002128
S11307C02000054DA847200070BD72B6FEE7C04664
S11307D0A50200001B03000015060000F0B583B05D
S11307E004000F0016001D00002811D0002911D0AC
S11307F0022D14D0264B98470190A36BE26B9A42CA
S11308002ED800250198234B9847280003B0F0BD4B
S113081072B6FEE7036C002BEAD072B6FEE7E36B18
S1130820012B19D072B6FEE70125636A002BE9D0CB
S113083020002430184B98470028E3D0002E09D01C
S113084001233360DEE7A36C0133A3640125D9E7F8
S11308500125D7E70125D5E70D4B98470190A36BF8
S11308602A00390020000D4B9847A36C0133EAD1CC
S1130870E36C002BD8D029002000094B98470125B0
S11308800128BFD1002EE3D001233360BAE7C0466C
S1130890BD010000C7010000D5110000A503000040
S11308A021040000F0B5C64600B584B004000E0073
S11308B001921F0000280AD000290AD04D4B984706
S11308C000280BD1019B002B0CD072B6FEE772B648
S11308D0FEE7036C002BF1D072B6FEE70025464B11
S11308E0984642E00025FAE7E56831002000434BD2
S11308F09847002F1AD1A36B013BA3632368002BF5
S113090002D13F4B984760602369002B07D0200039
S113091010303C4B9847012801D13B4B98473B4B47
S11309209847012004B004BC9046F0BDE560636ABA
S1130930002BF4D020002430324B98470028EED00E
S1130940314B9847EBE7314B98470020EAE72A4BB5
S1130950984760682E4B98472C4B984733E020000B
S11309602C4B98472C4B98470125C047A36B002B71
S1130970BAD1019B002BE6D0002D02D102A8274B4F
S11309809847224B9847264B98471B4B9847636CD4
S1130990013301D100236364A36C013301D100232B
S11309A0A3641A4B984701A902A81E4B9847002834
S11309B018D1114B9847A56B144B9847002DCED1F5
S11309C02368002BC3D0200024300199164B98478C
S11309D02000104B9847104B98470028C4D10A4B6D
S11309E09847C1E720000B4B98470B4B98470020D2
S11309F098E7C0460513000085010000710400005B
S1130A00F9120000D51100006D0100009D010000E5
S1130A102513000099040000A10E00005D120000DF
S1130A204D0D00007D1200003D11000070B5040062
S1130A300D000E4B9847636C01330BD0A36C01334C
S1130A400BD00B4B9847A36B002B09D02000094B0C
S1130A50984770BD00236364F0E70023A364F0E7C4
S1130A60200024302900044B9847EFE7850100005B
S1130A709D0100009904000095110000084B1B68BB
S1130A801B68002B07D0064B1B68DB68DB685A68C1
S1130A90044B1A60704701225242024B1A60F9E774
S1130AA0043B00200400002010B504000E4B1B681A
S1130AB058600E4B1B6898420DD30D4B18680A4BB7
S1130AC0196804310B4B98470B4B1B689C4209D2A5
S1130AD0094B1C6006E0094B1868034B1968043184
S1130AE0044B984710BDC046003B0020F43B002057
S1130AF0043B00204F03000004000020083B0020BA
S1130B00F0B5D64600B582B005000F00160001937B
S1130B10089B9A46002803D0042B03D972B6FEE73B
S1130B2072B6FEE740205A4B9847041E0DD00A9B2C
S1130B30002B00D094E0B000554B98472063002868
S1130B4000D08FE02000534B98470120404277E0CB
S1130B50013701338B4204D0387818703878002874
S1130B60F6D100223B23E2545346E362E363231DA0
S1130B7000931800484FB84720001830B847246144
S1130B80052352469B1AA3616462019A290030002E
S1130B90424B98472060099B002B00D01C60404BBF
S1130BA09847404A1368013313603F4B1B68002B7E
S1130BB04AD13D4B1C601368012B1FD13B4E3000C2
S1130BC03B4DA84730001430A84730002830A847D0
S1130BD030003C30A84730005030A847354F38002B
S1130BE0A847354E3000A8473448A8473448A8479A
S1130BF03448A847344B1F60344B1E60344A136892
S1130C0001331360E36A334A1268934201D9314ACB
S1130C1013609800C0188000244B181800992E4BBC
S1130C2098472E4B98472E4B1B680120002B07D06A
S1130C301D4B1B68DB6A9A4502D92A4B9847012051
S1130C4002B004BC9246F0BD254B1B68002BD5D1E5
S1130C50154B1B68DB6A9A45D0D3134B1C60CDE758
S1130C600A9B0363204BF3189B00226B9446634456
S1130C70072293431E003A783423E2543B78002B36
S1130C8000D16EE701372300353321003C3163E79F
S1130C90A502000011030000310300004901000017
S1130CA085010000703B0020003B00200C3B00202D
S1130CB01B030000883B00209C3B0020B43B002029
S1130CC0E03B0020CC3B0020043B0020083B0020FC
S1130CD07C3B0020843B0020370300009D01000082
S1130CE0C83B00206D010000FFFFFF3F10B584B03A
S1130CF00023039302930193009364220C490D484B
S1130D000D4CA047012803D000280ED172B6FEE78F
S1130D100A4B98470128F7D172B60122084B1A6092
S1130D200022084B1A60084B984704B010BDC04617
S1130D30B4460000FD0F0000010B0000A9140000E0
S1130D40C83B0020F43B002065020000024A1368FF
S1130D50013313607047C046783B002010B5044B44
S1130D609847044B1C68044B9847200010BDC046AC
S1130D7085010000F43B00209D010000F0B583B024
S1130D80394B1B68002B61D1384B1A6801321A6049
S1130D901E68002E12D1364B1B681B68002B01D035
S1130DA072B6FEE7324A1168324B18681060196057
S1130DB0314A136801331360304B9847304B1B683A
S1130DC000249E4233D30024294F3B681B68002B28
S1130DD029D0274B1B68DB68DD686B689E4232D3E1
S1130DE02B1D01931800274B9847AB6A002B03D0A7
S1130DF028001830234B9847EB6A234A1268934221
S1130E0001D9214A13609800C01880001F4B18189C
S1130E1001991F4B98471F4B1B68EA6ADB6A9A4289
S1130E20D3D30124D1E701225242154B1A60194B46
S1130E301B68DA6A93009B189B00144A9B58012B89
S1130E4009D9012407E00E4A1360F0E7124A136837
S1130E50013313600024114B1B68002B00D00124C4
S1130E60200003B0F0BDC046783B0020F43B0020D6
S1130E70043B0020083B0020B03B00207D0A00001A
S1130E80040000207D030000843B00200C3B002074
S1130E9037030000003B0020743B0020F83B002097
S1130EA0F8B5314B1B68002B01D172B6FEE72F4B0E
S1130EB098472D4B1A68013A1A601B680024002BCE
S1130EC003D12B4B1B68002B2AD12A4B98472000B7
S1130ED0F8BD9800C0188000274B18182900274B2C
S1130EE09847274B1B68FA6ADB6A9A4214D2336824
S1130EF0002B18D0E368DF6838001830214B98477E
S1130F003D1D28001F4B9847FB6A1F4A12689342F5
S1130F10DFD91D4A1360DCE701221C4B1A60E6E7A7
S1130F201B4E3400E3E71B4B1B68002B13D0194BFB
S1130F301B68002B0FD0184E144D164C05E0236887
S1130F40013B23602368002B05D0B0470028F6D06E
S1130F5001232B60F3E70D4B1B680024012BB4D154
S1130F600E4B98470134B0E7783B00208501000020
S1130F70703B00209D0100000C3B00203703000063
S1130F80003B00207D030000843B0020F83B002050
S1130F90B43B0020743B00207D0D00006D01000077
S1130FA010B5041E16D00D4B1B68002B01D072B671
S1130FB0FEE70B4B98470B4B1B68E4180A4B186869
S1130FC004300A4B98472000094B9847094B98472F
S1130FD0002801D1084B984710BDC046783B00203B
S1130FE04D0D0000F43B0020003B00207D03000079
S1130FF0A90A0000A10E00006D010000F8B5CE465C
S1131000474680B5164B9846164F174E26E0174BA9
S11310101B68012B20D82B68002BF8D0C0473C68F4
S1131020B047002CF7D0124B98470E4BDB68DC68B6
S1131030201D104B9847104A1368013B13600F4A58
S11310401368013B13600E4B9847206B0D4B994678
S113105098472000C847DEE70B4B9847074DDAE76F
S11310604D0D0000E03B0020A10E00000C3B0020D1
S1131070850100007D030000703B0020803B0020C0
S11310809D010000110300006D01000010B5264B06
S11310901B68002B21D10022244B1A60244B1A68B0
S11310A093009B189B00234A9B58002B19D1204B7B
S11310B01B68002B0FD01E4A1E4C10001368013B06
S11310C0136011688B005B189B001B59002B08D11F
S11310D00368002BF2D172B6FEE70122134B1A60AB
S11310E010BD134B1A6813489300991889004118CE
S11310F04C6864684C609B189B000833C3189C427E
S113110009D093009A1892000A4B9A185368DA6827
S1131110094B1A60E4E7606893009B189B0005493B
S1131120CB185860EDE7C046783B0020F83B002020
S1131130843B00200C3B0020003B002070B50C00D9
S1131140002810D00C4D296818310C4B984728689A
S113115004300B4B9847631C07D00A4B18682018BF
S1131160094B984770BD72B6FEE7034B196804310A
S11311700648074B9847F5E7003B00204F03000063
S11311807D030000F43B0020A90A0000CC3B0020B2
S11311903703000070B50D00002801D172B6FEE7D8
S11311A0074C21681831074B984720680430064BD8
S11311B09847064B18684019054B984770BDC046C0
S11311C0003B0020370300007D030000F43B0020B7
S11311D0A90A000070B5C368DC68002C27D025007C
S11311E018352800154B9847154B1B68002B20D148
S11311F0251D2800114B9847E36A124A126893424E
S113120001D9104A13609800C01880000E4B1818BA
S113121029000E4B98470E4B1B68E26ADB6A0020DC
S11312209A4203D901220B4B1A60013070BD72B689
S1131230FEE729000848054B9847ECE77D030000CA
S1131240783B0020843B00200C3B00203703000047
S1131250003B0020F83B0020B43B0020002806D0CF
S1131260044B1B680360044B1B684360704772B6F1
S1131270FEE7C046B03B0020F43B002070B50400FC
S11312800E0000281AD000291AD0134B9847134B8C
S11312901A683368591C1DD01149096820688842AE
S11312A003D0012561688A4204D26168501A01257D
S11312B0834207D80B4B9847280070BD72B6FEE7EF
S11312C072B6FEE79B1A5B1833602000064B984702
S11312D00025EFE70025EDE785010000F43B002041
S11312E0B03B00209D0100005D1200000122014B73
S11312F01A607047F83B0020014B18687047C046DD
S1131300003B0020054B1B680120002B04D0044B3C
S113131018684342584140007047C046C83B00200B
S1131320783B002070B5041E1AD0C26A184B1B68A3
S1131330DB6A9A4214D28369002B05DB144B1B68C9
S1131340D96A05235B1A836193009B189B00114A99
S1131350D31862699A4204D00D4B1B68DB6AE362BE
S113136070BD251D28000C4B9847094B1B68DB6A90
S1131370E3620A4A1268934201D9084A136098004A
S1131380C0188000034B18182900054B9847E7E75D
S1131390003B00200C3B00207D030000843B002028
S11313A03703000070B5041E1DD0C36AC26B93429C
S11313B019D0051D28000C4B9847E06BE062A36927
S11313C0002B02DB05231B1AA361084B1B68984200
S11313D001D9064B1860830018188000044B1818B4
S11313E02900044B984770BD7D030000843B002016
S11313F00C3B00203703000010B5416000619142AE
S11314000BD8D21A012483699A4211D2011D094BC7
S11314101868094B984700240AE09A4202D2012432
S1131420994205D2011D054B1868034B98470024C7
S1131430200010BD003C00204F030000FC3B0020B6
S113144070B5104B9847104B1B68002B02D00F4B04
S1131450984770BD0E4D28000E4EB0470E4C20002C
S1131460B0470E4B1D600E4B1C6000220C21022065
S11314700C4B9847002802D0034B1860E7E772B67C
S1131480FEE7C04685010000303C00209D010000BD
S1131490043C00201B030000183C0020FC3B0020FF
S11314A0003C0020C505000010B584B00B4B9847E4
S11314B00B4B1B68002B0FD0002303930293019363
S11314C0023300930023502206490748074CA047E3
S11314D0002801D004B010BD72B6FEE7411400002C
S11314E0303C0020E44600000D160000010B000013
S11314F030B585B01D00134B1C68002C20D0019121
S113150002920390052913DC0F4B9847022807D059
S11315100C4B18680023002201A90C4CA0470DE0D5
S1131520084B18680023089A01A9084CA04705E055
S113153000232A0001A92000054CA04705B030BDB6
S11315400020FBE7303C00200513000015060000D6
S1131550DD070000F0B5D6464F464646C0B582B01A
S11315608146234B98478046224B1B68984217D3E9
S113157000234A4613601F4B42461A60404602B09D
S11315801CBC90469946A246F0BD002300935246E7
S113159000212000184CA047002803D172B6FEE7B2
S11315A0164E174F33681A68002A18D0DB681A6879
S11315B09246DC68251D2800B8472000636A9847D6
S11315C0E369012BEED1A36953449A45DDD26360EC
S11315D024610A4B186829000A4B9847E2E70A4A33
S11315E0064910680860136001234A461360C2E785
S11315F05D0D00002C3C0020F1140000FC3B002099
S11316007D0300004F030000003C0020F0B589B0CA
S1131610504F514B1B681A68002A00D18CE0DB68DC
S11316201D684E4B984705A84D4B98470400059BF1
S1131630002B00D08BE0A84225D2291B494B186807
S1131640494B9847494B9847002840D0454D484C52
S11316500023002205A92868A0470028D9D0059BAB
S11316600393002BF4DB079E7369002B01D0301D1C
S1131670B84704A83A4B9847059B092BE8D89B0028
S11316803C4AD3589F46394B9847334B1B68DB6819
S1131690DE68301D2F4B9847F369012B03D0736A22
S11316A030009847D2E7B369E9182B0022003000D4
S11316B0314CA0470128F2D1002300932A000021D5
S11316C030002E4CA0470028E9D172B6FEE72C4B1F
S11316D09847BBE7069BB269944663441900069B8E
S11316E002003000244CA0470128B0D13000736AB6
S11316F09847F369012BAAD1069BB1698C466344D0
S11317001A0000230093002130001C4CA04700283D
S11317109DD172B6FEE70699B161002906D0411841
S1131720030002003000144CA04790E772B6FEE7B5
S11317303000144B98478AE7084B984705A8084B94
S1131740984704000025059B002B00D175E7074B43
S113175098477BE77D030000FC3B00204D0D000013
S113176055150000303C00202D0A0000A10E000099
S1131770A5080000BC460000F9130000F1140000A5
S11317806D01000011030000704700000C4B1B6842
S1131790002B06D1EFF31083002B07D00022094B56
S11317A01A70074A136801331360704772B6BFF3A7
S11317B05F8F0022044B1A700132024B1A70F0E75B
S11317C0343C0020383C002008000020084B1A68F4
S11317D0013A1A601B68002B09D1064B1B78002BB9
S11317E005D00122044B1A70BFF35F8F62B67047B5
S11317F0343C0020383C00200800002070B50C491F
S11318000B6A0478857840780122104080014026D4
S1131810B34303432A40D20180208343134303226A
S1131820224012020348034013430B6270BDC046BA
S113183000080040FFFCFFFF082803D88000254B68
S11318401B589F46172044E0234A136A02210B4386
S1131850136200203DE0204A936902210B43936107
S1131860002036E01C4A138A02210B431382002015
S11318702FE0194A938A02210B439382002028E027
S113188016490B68022213430B60134B9A84190008
S11318900E32CB681A42FCD0104A91680E4BD962C2
S11318A052689A6200229A8419001032CB681A4254
S11318B0FCD00A4B1B689BB2074A9384002008E0C3
S11318C0054944228B5C022003438B54002000E032
S11318D000207047EC460000000800403C3C00201B
S11318E030B585B0C222D2001A4B9A601A4A5368A6
S11318F01E218B43536001236A4613700024174D45
S1131900E0B26946A8470134252CF9D103A8002484
S11319104470012585700470114B98470620114BC3
S11319209847114B9847114B1C725C729C72DC7285
S113193001956B465C7006236A46137014725472E8
S1131940694600200A4B984700200A4B984705B087
S113195030BDC0460008004000400041F51A0000B8
S1131960FD17000039180000791900000004004038
S11319709D190000551A0000064A936908210B437B
S113198093610122044B1A7019000B781342FCD1A5
S11319907047C04600040040000C004070B50600CB
S11319A004000D782D0205434B78002B02D08023D0
S11319B0DB021D434B7A002B02D080231B031D4303
S11319C04868012810D9431E184234D1022830D95E
S11319D00223002201325B009842FBD812023243F8
S11319E0140080235B031D430B7A002B02D0802359
S11319F09B031D43134A53785BB2002BFBDB124B52
S1131A009847124B1E700F4A53785BB2002BFBDBD6
S1131A100C4B9C601A0053785BB2002BFBDB094A29
S1131A205368802149020B401D435560084B984779
S1131A3070BD0022D2E70402344380239B021D437D
S1131A40D2E7C046000C00408D170000080C00408F
S1131A50CD17000010B504000B4A53785BB2002B7D
S1131A60FBDB0A4B98470A4B1C70074A53785BB25E
S1131A70002BFBDB044A516880235B020B43536059
S1131A80044B984710BDC046000C00408D17000061
S1131A90040C0040CD17000010B504000F4B98470C
S1131AA00F4B1C700F4A53881B05180F53880E499F
S1131AB00B40538053880D490B4053801100802202
S1131AC0D2014B881342FCD106494A8803020648D6
S1131AD0024013434B80064B984710BD8D170000FE
S1131AE0020C0040000C0040FFF0FFFFFFBFFFFFAF
S1131AF0CD17000010B50C7824020443024B98471C
S1131B00A4B2024B5C8010BD991A0000000C004086
S1131B107047000010B5054B9847054B9847054B97
S1131B209847054B9847054B984710BDE1180000AE
S1131B3089170000111B0000111B0000111B00007D
S1131B40FEE70000F8B52A4A2A4B9A4211D01A003F
S1131B50294B9A420DD2294A03339B1A9B0801331D
S1131B609B000022234822498C58845004329A4214
S1131B70FAD1234A234B9A420AD2D34321495B1810
S1131B8003218B4304339B18002102C29342FCD1EE
S1131B901D4AFF211D4B8B439360FD3990235B004D
S1131BA01B4AD1501B4AD3780325AB430224234359
S1131BB0D370D3780C27BB4308263343D370164B1A
S1131BC0987B30229043202210439873997BB94329
S1131BD0314399739A7BAA4322439A730F4A5368F9
S1131BE080210B4353600E4B98470E4B9847FEE7FA
S1131BF0AC48000000000020440000200400002045
S1131C0044000020DC3C002000ED00E00000000067
S1131C100070004100500041004800410040004174
S1131C2059460000B5250000F0B5DE4657464E463D
S1131C304546E0B587B090E00022BC4B1A60BC4F2B
S1131C403B68BC4A12689B1ABB4C23602068BB4BA0
S1131C5099461B689A46BA4B98461E68B94B9B46F0
S1131C609847B94D5146A847B84B9A46311C9847F6
S1131C70434618602068B64E33684A461268914657
S1131C80C01AD8474946B34B9847B34B18602068ED
S1131C90B24A12680092B24A126803924146096835
S1131CA00491B04A126890461B6899463B680593B4
S1131CB0AD4B1F68D8470099A84700900499039832
S1131CC0A847011C0098D047009049464046A847C1
S1131CD0011C0098D04700900598D847391CA847A4
S1131CE0011C0098D047A14B186022683260186824
S1131CF09F49A04B9847002802D09D4A9B4B1A60ED
S1131D009A4B186800219C4B984700286FD1974B39
S1131D1018688621C9058C4B984795498D4B98477F
S1131D2096498A4B9847964B9847964B18601A6881
S1131D30D2B295490A761B68DB43DBB24B760A00C4
S1131D40D37BDB09FCD10022904B1A60904B1868BE
S1131D500023002200218F4CA04732208E4B98474D
S1131D608B4B18680023002200218C4CA047874B22
S1131D701A6813019B1A5B006E4E3360884F3868F3
S1131D80884D2B689B46884B9A469847874C884ACF
S1131D90884BA047009001915846D047864A874B0C
S1131DA0A04702000B0000980199854CA047854B81
S1131DB09847854C206023683B603068614B9847A6
S1131DC0286020686E4B9847804B1860804B1B68D6
S1131DD0002B00D130E7012B0DD06B4B80221A76FB
S1131DE0013A5A761A00D37BDB09FCD1AEE7002214
S1131DF05E4B1A608BE74E4B1B68C820400058436B
S1131E00B4214900734B98474E4B9847724B186066
S1131E10464B1B68002B02D100225C4B1A605B4DC1
S1131E202C686D4B1868564B9847201A454CA047B0
S1131E306A4B18602868A0476949464B9847694B24
S1131E401860186800214C4B9847002864D1654BF2
S1131E5018680021644B984700280AD14B4B1B6833
S1131E606930FF305843C82149005A4B98475F4BAB
S1131E701860324B98461868584C21685C4F3E688D
S1131E80314DA847314B9946311C9847386020683A
S1131E90584E316843461B689846574B984741460D
S1131EA02C4B9847554B1860554A10682168554A81
S1131EB0126892463A689346534A17681B689846D4
S1131EC0A847009059465046A847011C0098C847A7
S1131ED000904146381CA847011C0098C8474B4B4A
S1131EE018601868264B9847494A10602368336085
S1131EF0116880235B425B1ADBB223490B761368BB
S1131F007F33DBB24B760A00D37BDB09FCD1074A73
S1131F1013680133136019E72B683E485843C821FE
S1131F2049002C4B9847314B1860A2E7783C0020BD
S1131F30C43C0020BC3C0020B43C00202C00002009
S1131F40803C0020A5380000ED320000E92B0000A1
S1131F50643C00200D2F0000CC3C00202400002015
S1131F601C0000201000002014000020D03C0020A1
S1131F7000409C45C12B0000992B00000000FE424C
S1131F8065380000D83C0020003000425C3C002052
S1131F90943C002015060000A10F0000A5080000D5
S1131FA0743C00206C3C002065440000653F000048
S1131FB017B7D100DE02EF3F5C72DC291DAC9F3FF6
S1131FC04539000009450000703C0020683C0020B1
S1131FD0400000209D290000883C0020D43C0020C3
S1131FE00000C843B83C00208D2B00009C3C00201E
S1131FF0843C0020603C00202D350000C83C0020BB
S113200020000020180000200C000020A03C00202C
S1132010983C002098FEFFFF70B53C4BC222D200D2
S11320209A601A6A3A490A401A621A6A80210A4373
S11320301A621A6A4026B2431A621C6A02252C43A9
S11320401C629C69334A14409C61986908439861F6
S113205099693143996199690422114399619A6993
S11320602A439A612C4A137801210B431370537845
S1132070DB09FCD1284B802252009A600222FF32F5
S11320809A60264A5A60264A5A601A005378DB0935
S1132090FCD1214B5A8892B25A80224A5A80224A51
S11320A05A80224A5A80224A5A801A005378DB09FD
S11320B0012BFBD01F4B197A072291431972597ACD
S11320C091435972997A91439972D97A9143D97209
S11320D09A6908210A439A61196A802252020A43C2
S11320E01A629A6940210A439A61196A802252014C
S11320F00A431A62196A802292010A431A62196A0F
S11321008022D2010A431A6270BDC0460008004012
S1132110FFFCFFFFFFF8FFFF000C00400006290052
S1132120010429001E4100001C400000054000007D
S11321301D4000000004004070B51F4BF021996061
S11321401E4CFF22A260F02212035A600622502085
S11321501A5401301A5401301A5401301A54596176
S1132160FB32FF32A2601800B6300278E1398A43AC
S113217004210A4302701900CC310A7801252A434C
S11321800A7002780F210A40402632430270173049
S113219002782A4302703E22985C014099545C21E3
S11321A05A5C2A435A548022D2016260CE331A7890
S11321B002210A431A7070BD00440041804400416A
S11321C082B00190019AFA239B005343002B07DD50
S11321D00022FA2189000132019B4B439342FADC2D
S11321E002B0704710B50378303BFA2292005A438C
S11321F00E4B1A601C684178303964224A43121924
S11322001A601C68817830398A00521852001219F9
S11322101A601968C278303A52181A601A68044B66
S11322209A4202DD1A00014B1A6010BDC43C002022
S11322308813000010B59B4A9B4B1A6044229B4BA9
S11322401A709B4B3C325A61103A9A611B6A1B0309
S113225002D53F3A954B1A70954B1B6A5B0302D526
S11322603222924B1A70924B1B6A9B0302D5332283
S11322708E4B1A708E4B1B6ADB0305D541228B4BA8
S11322801A70403A8B4B1A60894C8023A361012059
S1132290894B984740236361236A1B0302D5342288
S11322A0824B1A70824B1B6A5B0302D535227F4B2B
S11322B01A707F4B1B6A9B0302D536227B4B1A7024
S11322C07B4C4023A36101207B4B9847202363610F
S11322D0236A1B0302D53722744B1A70744B1B6A92
S11322E05B0302D53822714B1A70714B1B6A9B0336
S11322F002D539226D4B1A706D4C2023A361012045
S11323006D4B984710236361236A9B0305D52322F1
S1132310664B1A700022674B1A60654B1B6A5B039D
S113232002D53022614B1A70614B1B6A1B0305D521
S11323302A225E4B1A7000225E4B1A6010225C4BFC
S11323409A6101205C4B98475C4B1B68012B21D0A0
S11323500DDD022B36D0032B00D09FE0534B1B78AE
S1132360442B00D18BE00022554B1A6068E0002B0F
S113237000D093E04D4B1B78442B61D04B4B1B7822
S1132380DBB2504A137000224D4B1A6001324B4BA2
S11323901A6055E0454B1B784A4A1278DBB29342E7
S11323A003D00022454B1A604AE0454B1A680132BB
S11323B01A601A68444B1B689A4241DD02223F4B63
S11323C01A603DE0394B1B78442B33D000223C4B40
S11323D01A60364B1B78232B1DD0344B1B782A2BC9
S11323E02FD0324B1B78412B3CD0304A1378374BDB
S11323F018681178C9B22B4C21541968481C18600C
S11324001278D2B2324842541B68032B12DD0022E8
S11324102E4B1A600EE0234B30321A705A709A70A9
S1132420DA700023294A136080218900294A9161C6
S1132430294A13600022224B1A6003321F4B1A6090
S113244010BD184B30221A705A709A70DA7000223C
S11324501E4B1A60802292001E4B5A6101221E4BB1
S11324601A60E7E70F4C20001C4B98473023237079
S11324706370A370E3700022144B1A60DAE7104B08
S11324801A6801321A601A680F4B1B689A42D7DD2A
S113249000230B4A1360094A1360D1E70022074B5B
S11324A01A60CDE7300000208C3C00203C00002066
S11324B00044004138000020C1210000903C00206D
S11324C0543C0020583C0020280000207C3C002084
S11324D0340000208044004140000020E521000039
S11324E00C4A137801210B4313705378DB09FCD198
S11324F0084B80225200DA60DA6907218A430539E1
S11325000A43DA611A780A431A701022024B1A60DD
S11325107047C0460018004000E100E00022234B51
S11325201A801A00D37BDB09FCD1204B1A8820497E
S11325301140C022D2000A431A801A8860218A43BB
S113254040210A431A801A880C218A4304210A4331
S11325501A80FF221A755A7904218A435A711A0083
S1132560D37BDB09FCD1114AD37BDB09FCD10F4AB5
S1132570138802210B431380D37BDB09FCD1002297
S11325800A4B1A761A00D37BDB09FCD10022074BD5
S11325905A761A00D37BDB09FCD1044A93790221D1
S11325A08B439371D37BDB09FCD17047003000422D
S11325B0FFF8FFFF70B584B01B4B98471B4B98473F
S11325C01B4B98471B4B98471B4B98471B4A1C4B6C
S11325D01A601C4A1C4B1A600021C1239B001B4A31
S11325E0D15001201A4B98471A4B1860002819D073
S11325F0FA267600002403940294019402230093A3
S11326000023320014491548154DA8470394029439
S11326100194012300930023320012491248A84771
S1132620124B9847FEE7C046151B00001920000016
S1132630392100001D250000E1240000AC3C0020ED
S1132640A83C002034000020B03C002000E100E061
S113265089070000943C002060470000291C00000A
S1132660010B00007447000045280000ED0C000039
S11326700A4B1B6A5B0408D4084B1B6A5B0408D42E
S1132680074A1368013B136003E0054A13680133EA
S1132690136080225200034B1A617047804400414A
S11326A05C3C002000180040F0B5CE46474680B59B
S11326B083B00190FA239B009946012400261D0053
S11326C0344F58E00A23994601240A2553E0013C7B
S11326D0092C45D8A300304AD3589F4630222F4BAB
S11326E09A550136019B4A4654431C1B0194012E02
S11326F03BD0022EE6D00124032E3AD10123994681
S11327000124012537E03122244B9A550136E9E7AB
S11327103222224B9A550136E4E733221F4B9A5555
S11327200136DFE734221D4B9A550136DAE73523AB
S11327301A4A93550136D5E73623184A935501367C
S1132740D0E73723154A93550136CBE73823134A8C
S113275093550136C6E73923104A93550136C1E72C
S113276041230E4A93550136BCE73400642399464D
S11327706425032E09DC0198019B98462900B8477B
S11327804145A4D001344D44F3E703B00CBC90465A
S11327909946F0BD692B000010470000AC3C0020B6
S11327A00378303BDAB2092A40D89300224AD3583E
S11327B09F46224BC0229A61813A5A6170471F4B4F
S11327C0F9229A61F33A5A61F8E71C4BA4229A6100
S11327D0493A5A61F2E7194BB0229A61613A5A6157
S11327E0ECE7164B99229A61333A5A61E6E7134BA8
S11327F092229A61253A5A61E0E7104B7D225A6190
S113280005329A61DAE70D4B07225A61F1329A6177
S1132810D4E780220A4BD3187F2159619A61CDE70E
S1132820064B67225A6131329A61C7E7034B88220B
S11328309A61113A5A61C1E7384700008044004167
S113284000440041F8B5DE4657464E464546E0B5DD
S1132850434F444E33E0444C80339B466361434DC5
S11328602868434B994698470120424B984698471D
S11328705B46A361403B9B4663612B68581CC84779
S11328800120C0475B46A361203B9B4663612B68E4
S1132890981CC8470120C0475B46A361103B9B4678
S11328A0636128680330C8470120C0475B46A361C1
S11328B02C4B18680023002200212F4CA047A02095
S11328C0B84700230022002130682C4CA0472C4B31
S11328D098472C4B1B68002BBDD02A4B1B68012B3F
S11328E0E6D1294B1B68002B35D1284B1868284B9F
S11328F098471D4C80239B466361264B9A46186873
S11329001B4B9946984701201A4B984698475B46BB
S1132910A361403B9B46636153461B68581CC847F0
S11329200120C0475B46A361203B9B46636153463D
S11329301B68981CC8470120C0475B46A361103B35
S11329409B466361534618680330C8470120C0475B
S11329505B46A361ACE7104B18680D4B9847C8E77A
S1132960A10F0000943C002000440041B03C002032
S1132970A1270000C121000015060000A5080000E1
S1132980352200003800002040000020683C002070
S1132990A9260000A83C00209C3C002003460B43D1
S11329A07FD4002243088B4274D303098B425FD344
S11329B0030A8B4244D3030B8B4228D3030C8B4270
S11329C00DD3FF22090212BA030C8B4202D3121256
S11329D0090265D0030B8B4219D300E0090AC30B2B
S11329E08B4201D3CB03C01A5241830B8B4201D3D8
S11329F08B03C01A5241430B8B4201D34B03C01AC1
S1132A005241030B8B4201D30B03C01A5241C30A38
S1132A108B4201D3CB02C01A5241830A8B4201D3A9
S1132A208B02C01A5241430A8B4201D34B02C01A93
S1132A305241030A8B4201D30B02C01A5241CDD238
S1132A40C3098B4201D3CB01C01A524183098B4283
S1132A5001D38B01C01A524143098B4201D34B016C
S1132A60C01A524103098B4201D30B01C01A5241CF
S1132A70C3088B4201D3CB00C01A524183088B4256
S1132A8001D38B00C01A524143088B4201D34B003F
S1132A90C01A5241411A00D20146524110467047B1
S1132AA05DE0CA0F00D04942031000D340425340B6
S1132AB000229C4603098B422DD3030A8B4212D376
S1132AC0FC22890112BA030A8B420CD389019211A8
S1132AD08B4208D3890192118B4204D389013AD0E5
S1132AE0921100E08909C3098B4201D3CB01C01ABA
S1132AF0524183098B4201D38B01C01A52414309CD
S1132B008B4201D34B01C01A524103098B4201D3BA
S1132B100B01C01A5241C3088B4201D3CB00C01A27
S1132B20524183088B4201D38B00C01A5241D9D23F
S1132B3043088B4201D34B00C01A5241411A00D2C0
S1132B400146634652415B10104601D34042002BBC
S1132B5000D54942704763465B1000D3404201B53B
S1132B60002000F005F802BD0029F8D016E77047F0
S1132B707047C0468446081C6146FFE71FB500F055
S1132B8073FB002801D40021C8421FBD10B500F01A
S1132B9005FB4042013010BD10B500F065FB002874
S1132BA001DB002010BD012010BDC04610B500F0AF
S1132BB05BFB002801DD002010BD012010BDC046D4
S1132BC010B500F011FB002801DC002010BD01202D
S1132BD010BDC04610B500F007FB002801DA002044
S1132BE010BD012010BDC046F0B5C6464E024702D6
S1132BF0760A7B0A4400C50FF7004800984600B5E2
S1132C00240E2A00DB00000EC90FBC468D4267D09B
S1132C10221A002A00DCA5E000283AD1002F00D1B6
S1132C2093E0511E002900D0BCE00124DB1B5A01B3
S1132C3046D59B019E09300001F0F0FC0538864022
S1132C40844200DD9DE0041B320020200134E24078
S1132C50041BA64033005E1EB341002413435A07ED
S1132C6004D00F221A40042A00D004335A0129D573
S1132C700134FF2C00D181E02A009B015B0AE4B2FD
S1132C805B02E405580AD2072043104304BC904673
S1132C90F0BDFF2CE3D080213800C90408438446EA
S1132CA01B2A00DD82E020206146D140821A604662
S1132CB090400200501E82410A439B1A5A01B8D424
S1132CC05A07CED1DE082A00FF2C3AD1002E00D1BB
S1132CD0AEE08023DB0333435B025B0AFF24CFE7D0
S1132CE0211A002952DD002831D0FF2CB7D08020D2
S1132CF03E00C0040643B4461B2900DDAAE020269A
S1132D006046C840711A66468E4031004E1EB1417D
S1132D1001435B185901D3D50134FF2C00D187E05E
S1132D20012278491A405B080B40134397E7002CB3
S1132D3000D0A7E0002B00D0B6E03B1E62D10026F5
S1132D40002273025B0AE4B29AE7140087E7002FBB
S1132D504DD0481E002857D1634401245A01AFD5F1
S1132D600224DDE7002A24D1621CD2B2012ADEDD6E
S1132D70DE1B720135D5FE1A0D005CE72A00002324
S1132D807EE73300604A241A134068E7002963D1C0
S1132D90611CC8B201284EDDFF2949D063445B0899
S1132DA00C005CE7FF2A41D00A0079E701229B1A54
S1132DB084E7002C1DD0FF2822D08024E404524252
S1132DC023431B2A00DD8AE01C002025D440AA1AD4
S1132DD093405A1E9341234362460400D31A0D00C4
S1132DE025E7002E00D026E700220024A9E70C00E6
S1132DF035E7002B4DD0D243002AEDD0FF28E0D197
S1132E006346FF240D002AE7FF290FD0010073E772
S1132E10002B61D0FF24002F00D120E780224146FF
S1132E20D203114202D0164200D13B00FF2416E720
S1132E30FF24002324E7002CEAD1002B58D0002FD4
S1132E4000D10CE763445A0100D439E72E4A0C0040
S1132E50134004E701215CE7002C1ED1002B40D075
S1132E60C94300290BD0FF2836D01B2947DC1C009E
S1132E702026CC40711A8B40591E8B412343634456
S1132E80040047E7002B18D13B1E2DD00D00FF2472
S1132E90E5E63B0004000D00E1E6FF281CD0802499
S1132EA0E40449422343E0E7002F00D1D7E6DE1BC8
S1132EB072011FD5FB1A0D00D1E6FF24002F00D1AB
S1132EC0CDE680224046D2031042AFD01642ADD1A7
S1132ED03B000D00FF24C2E66346FF24BFE6012346
S1132EE07AE73B000400BAE680260022F603F0E607
S1132EF03B00B4E6331E00D0E2E6002221E70123C2
S1132F00BDE7C046FFFFFF7DFFFFFFFBF0B557465F
S1132F104E46DE464546E0B544024300C60F83B044
S1132F200F1C640A1B0EB24653D0FF2B27D08022FD
S1132F30E400D20414437F22524290469844002372
S1132F4099469B467D027800FB0F6D0A000E0093A4
S1132F5024D0FF2846D080230021ED00DB041D434C
S1132F607F384746381A4F460F43BF00B9463300EF
S1132F70009A874F53404A46BA5801939746002C0B
S1132F804ED108239946F7339846FD3B9B467D0274
S1132F907800FB0F6D0A000E0093DAD1002D26D1C4
S1132FA0002001213300009A7A4F53404246101A00
S1132FB04A460A439200BA581D009746009B2C00CB
S1132FC09A468B465B46022B31D15346FF2100249F
S1132FD038E0002C17D10423994600239846013386
S1132FE09B46AFE7FF20002D0BD10221DAE7280032
S1132FF001F014FB431F9D4076235B42181A002105
S1133000AFE70321ADE7200001F008FB431F9C401C
S113301076235B421B1A9846002399469B4691E708
S11330200C239946F3339846FC3B9B468AE7032BD3
S113303000D1A5E05546012B00D081E001230021F9
S113304000242B406402C905600ADB0708431843C7
S113305003B03CBC90469946A246AB46F0BD8024E2
S11330600023E403FF21EDE7FF210024EAE7012325
S1133070591A1B2966DD019A134000210024E1E757
S11330808023DB031C4238D01D4251D01C43640210
S1133090640A3300FF21D5E763016C01A3423BD2EC
S11330A01B260021013801251F0049005B00002F69
S11330B001DB9C4201D81B1B2943013E002EF3D1A6
S11330C01C00631E9C410C4301007F310029CEDDAE
S11330D0630704D00F232340042B00D004342301BE
S11330E003D501002C4B80311C40FE290DDD01234A
S11330F0019AFF2113400024A4E78023DB031C432F
S11331006402640A3300FF219CE70123019AA401AD
S1133110640AC9B2134095E71B1B1A260121C2E7B2
S1133120009B8B469A4600244CE76302E5D50025B4
S11331308024E4032C436402640A009BFF2181E79A
S11331400195C1E723002020CB40411A8C40611E29
S11331508C411C43630704D00F232340042B00D06D
S11331600434630105D50123019A0121134000248D
S113317068E70123019AA401640A1340002161E76E
S11331808023DB031C436402640A5346FF2159E78E
S11331908C470000CC470000FFFFFFF770B54200EA
S11331A045024E024C00C30F6D0A120E760A240E1D
S11331B0C90F0120FF2A06D0FF2C03D0A24201D15F
S11331C0B54206D070BD002DFCD1FF2CFAD1002EE3
S11331D0F8D18B4206D00120002AF3D12800451EE5
S11331E0A841EFE70020EDE7F0B5420045024C02AC
S11331F0C30F48006D0A120E640A000EC90FFF2A9D
S11332001ED0FF2821D0002A0AD16E426E41F6B2A8
S113321000280FD1002C0DD10020002D09D005E08D
S1133220002801D1002C01D08B4211D00121584239
S11332300843F0BD002EF7D0012001390843F8E718
S1133240002DDED002204042F3E7002CDBD0F9E76A
S11332508242EBDC04DBA542E8D80020A542E8D298
S11332600121581E0843E4E7F0B542004D024C002A
S11332704602760A120EC30F6D0A240EC90FFF2AE6
S113328016D0FF2C18D0002A0AD170427041C0B267
S1133290002C15D0002805D0012001390843F0BDC9
S11332A0002C13D0994214D001205B421843F6E756
S11332B00220002EF3D1E4E70220002DEFD1E2E753
S11332C0002DE7D10020002EE9D0EDE7002DE9D153
S11332D0EAE7A24206DCDFDBAE4203D80020AE42BE
S11332E0DAD3DCE7012049420843D8E7F8B557466A
S11332F04E464546DE46E0B54702460088467F0A0C
S1133300360EC40F002E47D0FF2E24D0FB0080279A
S1133310FF041F43002399469A467F3E43465D02BD
S11333205800DB0F6D0A000E984643D0FF283BD0AF
S1133330EB0080250022ED041D437F383618731CF2
S113334041469B464B46614013430F2B64D8754856
S11333509B00C3589F46002F42D108239946063B41
S1133360FF269A46DAE74146022A28D0032A00D1EA
S1133370CEE0012A00D0ACE0114000200022CCB203
S11333804002D205400AE407104320433CBC904667
S11333909946A246AB46F8BD002F15D104239946A1
S11333A0033B00269A46B9E7FF200222002DC5D030
S11333B00322C3E7002D19D100200122BEE7012416
S11333C0FF220C400020DBE7380001F027F97626C5
S11333D0431F9F4000237642361A99469A469DE73A
S11333E00C239946093BFF269A4697E7280001F0EB
S11333F015F9431F9D4076235B42181A00229DE76E
S113340080200024C003FF22BAE73D005246ABE708
S11334103D0021005246A7E73B0C9C462A04120CAF
S11334202B0C1400604665463F043F0C7C4342432A
S11334305D437B43270C9B18FF18BA4203D98023B2
S11334405B029C46654424043A04240C121993013B
S11334505C1EA3413F0C920E7D191A43AD01154326
S11334602B0104D501235E466A081D401543320032
S11334707F32002A25DD6B0704D00F232B40042B59
S113348000D004352B0103D53200274B80321D4078
S1133490FE2A94DC0124A801400AD2B20C406FE752
S11334A08020C003074207D0054205D128434002CB
S11334B0400A4446FF2263E738434002400AFF22A1
S11334C05EE70124A31A1B2B05DD0C40002200201B
S11334D056E75E46CBE72A002020DA40C31A9D4017
S11334E02B005D1EAB4113435A0704D00F221A4030
S11334F0042A00D004335A0104D5012401220C40CB
S113350000203DE701249B01580A0C40002237E7C4
S113351080200124C00328434002400A0C40FF22BB
S11335202EE7C0460C480000FFFFFFF7F0B54F46FA
S1133530D64646464400C0B5C20F47024802400A78
S1133540844666467B0A4800C90F9A46240E150035
S1133550DB00000E8946F600FF2800D18FE0012130
S11335604F464F403900914266D0221A002A00DCAF
S11335709DE000283DD1002E00D18BE0511E002992
S113358000D0B5E001249B1B5A0144D59B019F093F
S1133590380001F043F805388740844200DD96E0A6
S11335A0041B3A0020200134E240041BA7403B00E6
S11335B05F1EBB41002413435A0704D00F221A4054
S11335C0042A00D004335A0127D50134FF2C00D13A
S11335D079E001229B015B0AE4B22A405B02E40524
S11335E0580AD207204310431CBC90469946A24671
S11335F0F0BDFF2CE0D08021C9040E431B2A7BDCE4
S113360031002020D140821A9640721E96410E430A
S11336109B1B5A01BAD45A07D0D10122DF082A4091
S1133620FF2C33D1002F00D1A8E08023DB033B43E0
S11336305B025B0AFF24D1E7211A00294CDD002834
S11336402AD0FF2CB8D08020C00406431B2900DDFB
S1133650AFE030002027C840791A8E40711E8E4199
S113366006439B195901D6D50134FF2C00D185E0BE
S113367001227A491A405B080B4013439CE7002E51
S113368000D070E76BE73B1EC5D100227B025B0ACA
S1133690E4B2A3E714008FE7002E4DD0481E0028A3
S11336A057D19B1901245A01B5D50224E0E7002A19
S11336B025D1621CD2B2012A72DD9F1B7A0135D555
S11336C0F71A0D0064E7012200232A4086E73B0035
S11336D0634A241A13406FE700296CD1611CC8B2F5
S11336E001284EDDFF2949D09B195B080C0063E7D4
S11336F0FF2A41D00A0081E701269B1B89E7002CA1
S11337001CD0FF2821D08024E404524223431B2AE6
S113371000DD96E01C002025D440AA1A93405A1ECE
S113372093412343F31A04000D002DE7002F00D02A
S11337302EE700220024A9E70C003DE7002B58D017
S1133740D243002AEED0FF28E1D13300FF240D003C
S113375032E7FF2910D0010078E7002B6ED0FF2458
S1133760002E00D128E780225146D203114203D013
S11337706146114200D13300FF241DE7FF240023DA
S11337802CE7002CE9D1002B63D0002E00D113E7E5
S11337909B195A0100D43EE7314A0C0013400BE751
S11337A0002C1ED1002B2FD1002E4FD033000D0042
S11337B002E7012655E7002C1FD1002B43D0C94353
S11337C000290BD0FF2839D01B2944DC1C002027FA
S11337D0CC40791A8B40591E8B4123439B1904001A
S11337E040E7002B1AD1002E24D180270022FF03AA
S11337F01BE7330004000D00DEE6FF281ED0802402
S1133800E40449422343DFE7002E00D1D4E69F1BA2
S11338107A0100D437E7F31A0D00CDE6FF24002E19
S113382000D1C9E680225046D2031042A4D060469B
S11338301042A1D133000D00FF24BDE63300FF2464
S1133840BAE601236EE733000400B5E60027002240
S11338501CE73300B0E60123C0E7C046FFFFFF7D4D
S1133860FFFFFFFB41024300C20F490A1B0E002069
S11338707E2B0DDD9D2B0CDC802000040143952B59
S11338800ADC9620C31AD9404842002A00D1080015
S11338907047034BD018FBE7963B9940F4E7C046CA
S11338A0FFFFFF7F70B5002830D0C317C4185C40F9
S11338B0C50F200000F0B2FE9E231B1A962B0DDCD0
S11338C09622D21A94402A006402640ADBB264028B
S11338D0DB05600AD2071843104370BD992B19DC2D
S11338E09922D21A002A29DD94402200144C144053
S11338F0510704D00F210A40042A00D00434620185
S113390013D4A401640ADBB22A00E0E700220023F6
S11339100024DCE705222100121AD140B922D21A70
S11339209440621E94410C43DAE7054B2A001C4084
S11339309F23A4011B1A640ADBB2C8E72200D5E75F
S1133940FFFFFFFBF8B54546DE4657464E460C03DF
S1133950E0B54E00C90F88460D00610A440F0C43C0
S1133960C70019035800DB0F9B464B0A510F0B434A
S1133970760D400D1900D200D84500D1AEE0351ABD
S1133980002D00DCF6E000280FD1134300D1DBE06A
S11339906B1E002B00D037E1BA1A9742BF41641A5C
S11339A07F42E41B0126170024E0C64B9E424DD003
S11339B080231B041943382D00DD07E11F2D00DD92
S11339C038E12020431B9A460B0050468340994619
S11339D013004846EB401843030050468240501EF3
S11339E08241E9401A43BA1A611A9742A441170066
S11339F064420C1B230262D56402650A002D00D1C7
S1133A00DFE0280000F00AFE0300083B1F2B00DD66
S1133A10D2E020223C00D21A9D40D4409F4025434E
S1133A209E4200DDC4E09E1B731C1F2B00DDF1E0F1
S1133A30202238002900D21AD840914097402C0007
S1133A400143781E8741DC4000260F437B0709D0E1
S1133A500F233B40042B05D03B1DBB42BF417F429B
S1133A60E4191F0023022CD5964B01369E4200D147
S1133A709AE04546944BFF081C40600776056402B3
S1133A800743240B760D00212403230B0C0D8F4ACE
S1133A9024051C431440330523435B00ED075B08F6
S1133AA02B43380019003CBC90469946A246AB46CD
S1133AB0F8BD6446044300D111E2040067467B0765
S1133AC0C6D145466007FF080743E4087D4B9E4284
S1133AD030D024037605240B760DD4E7331A9A46A6
S1133AE0002B78DD002831D076488642AED0802085
S1133AF0000401435346382B00DCE9E00A43511E1D
S1133B008A410021D219BA42BF4109197C421700E7
S1133B100C192302D3D56B4B01369E4200D13AE1F6
S1133B200120694B1C407B0807401F43E007074303
S1133B3064088BE723003B4300D1CBE180221203CE
S1133B4014432403240B9EE72E007FE70800104350
S1133B5000D1B4E0581E002800D0DEE0BA18BA4202
S1133B609B4164185B42E418170001262302A6D582
S1133B700226D5E7002D6ED1701C4005400D0128AA
S1133B8000DCF9E0B81A844687428041E51A4042D5
S1133B902D1A280200D489E0D71BBA4292411C1B7B
S1133BA05242A51AD84629E74546002400276AE769
S1133BB0454CF61A2C4049E73D002838854000273B
S1133BC02EE7380000F02AFD20301DE70A43511E7D
S1133BD08A41002107E7002B00D0F3E0701C430565
S1133BE05B0D012B00DCADE0364B984200D1D1E0F7
S1133BF0BA18BA42BF4164187F42E419E707520871
S1133C0017436408060021E72E48854200D193E05B
S1133C101D00D0E629001F3EF140202B00D18DE08D
S1133C204022D31A9D402F437D1EAF4100240F43F1
S1133C30002644E72B000800203BD8400300202D39
S1133C4000D17DE04020451BA9400A43511E8A4112
S1133C5000211A43C7E6002E50D01A4EB04257D066
S1133C6080266B429946360434434B46382B00DD9C
S1133C70D6E01F2B00DD35E12026F51A2600AE40E4
S1133C80B2463E00DE40AC46350056462E436546FD
S1133C90AF407D1EAF41DC403743D71BBA4292414F
S1133CA00C1B5242A41A0600D846A3E66446674693
S1133CB02C4300D0A2E600250026002706E71E00BC
S1133CC0C4E6C046FF070000FFFF7FFFFFFF0F8031
S1133CD01F2B63DC2020C31A080098409C468346AF
S1133CE053461000D84003005846184363469A4090
S1133CF0531E9A4153460243D94003E726003E43EC
S1133D0006D0EB439946002BC7D0944EB042ACD1B9
S1133D100C0017000600D84698E6904B9A450BD045
S1133D208246E7E6002800D09EE01800104300D148
S1133D30E9E01C001700D846884E87E6002572E7A4
S1133D40002182E723003B43002E00D0ABE0002B90
S1133D5000D1E7E00B00134300D177E6BA18BA426A
S1133D60BF4164187F42E419230200D4F2E07C4B83
S1133D7017001C40060069E620003843002ED1D10C
S1133D8000285BD11C00144300D1A8E01C001700DC
S1133D90D8465BE606000024002797E650460B0051
S1133DA02038C34099465346202B00D195E0402348
S1133DB050461B1A99400A43511E8A414B46002122
S1133DC01A439FE6002E30D126003E4367D0DB43E2
S1133DD09A46002B1CD0614EB04260D05346382B1B
S1133DE000DD96E01F2B00DD9FE02026F31A26005D
S1133DF09E409C46B34653463E00DE4033005E463A
S1133E001E4363469F407B1E9F415346DC4037431D
S1133E10BF189742924164185242A418060078E6EB
S1133E2027437C1EA741002437E74C4EB04236D0CE
S1133E3080265B4236049A463443CFE71800104389
S1133E4000D103E6B81A84466745AD41E01A6D42D5
S1133E50401B050200D42CE6D71BBA4292411C1B1E
S1133E605242A41AD846F1E51800104300D163E782
S1133E70F808670707438020E4080003044208D0D9
S1133E80DD08054205D1D208590711430F002C0063
S1133E90D8467B0FE4001C43FF00304ED6E50C00EF
S1133EA017000600D2E5002B38D00B00134300D1D5
S1133EB042E7F808670707438020E4080003044248
S1133EC0E7D0CB080342E4D1D208490711430F00DD
S1133ED01C00DEE700270024D5E500216BE7002560
S1133EE00027F3E54E462500203EF5404B462E00C4
S1133EF0202B2DD04025ED1AAC4027437C1EA74132
S1133F0000243743C9E6802400252403134E0027E8
S1133F10DCE527437C1EA741002479E70C00170049
S1133F200E4E93E50C00170090E556462300203E04
S1133F30F34099465346202B0ED0402356469B1BF4
S1133F409C4027437C1EA7414B4600241F435FE748
S1133F500024D2E71700B2E50024F2E7FF070000CF
S1133F60FFFF7FFFF0B557464546DE464E46E0B5B7
S1133F700C0398464E00230B87B0070092469B46DD
S1133F80760DCD0F002E6BD06D4B9E4235D0802424
S1133F905B46420F2404DB0014431C43C3009946D0
S1133FA0684BA3469C46002300276644029343467D
S1133FB01C035A00DB0F5046240B520D984600D1C7
S1133FC076E05F4B9A426DD08023410F1B040B4374
S1133FD05C49E4008C461C43C30000206244414613
S1133FE0B6186940721C0191944607430F2F00D9FB
S1133FF0B0E0554ABF00D25997465B460343994601
S113400000D087E000239B46023308270293CEE7C3
S113401042460192022867D0032800D10EE201280B
S113402000D062E100230024002299460199014056
S1134030CDB2002112030B0D120B1B051343434A8F
S1134040240513401C436400ED0764082C434846D0
S1134050210007B03CBC90469946A246AB46F0BD51
S1134060034399464FD05B46002B00D189E1584663
S113407000F0D4FA03000B3B1C2B00DD7AE11D2277
S1134080D31A3A0001005C46DA4008398C40130028
S11340908F4023439B46B94600232D4E0027361AF2
S11340A0029384E7534623432AD10024022096E74F
S11340B05346234320D0002C00D157E1200000F0C8
S11340C0ADFA03000B3B1C2B00DD49E11D21CB1A8B
S11340D051460200D9405346083A944093400C4359
S11340E01B4A121A00207AE70125019B144C1D403B
S11340F00023002299469CE70024002201206EE759
S1134100534603206BE700239B4601330427002614
S113411002934CE7032381460C27029347E780224E
S11341200023002512039946054C82E75C464B4662
S113413002986FE75C464B46019502986AE7C046D1
S1134140FF07000001FCFFFF4C480000FFFF0F8049
S11341500DFCFFFF4A464946170C1A0C1B041B0CA6
S113416008041900000C41431500884619007D43DA
S11341707943039589462900150045434D4402952A
S113418045462D0CAA46029D5544A94506D98A46A2
S1134190802149028946CA4451460391290C04915D
S11341A0414609042D04090C88462900250C2404E1
S11341B04144240C05912100414388462100794360
S11341C08A466843414650448146080C48446F433C
S11341D0824503D98021490289464F44010C89460E
S11341E039004944029141460F0404993F0C884622
S11341F00004C01980444146049159460F0C090437
S1134200090C884659438A46390051438946414638
S11342104A435146090C8B467B43D2185A44934275
S113422003D980235B029B46D94451460904090CF7
S11342308A46414661437C43130C12044B44524466
S1134240A1468A463C0041466C434D4351464D4489
S11342500F0C7D19A94503D980214902884644449D
S1134260049F0399B84641448B46834580414142AB
S11342708846514608042F04000C3F1858460299FA
S113428010188946904292414F44BA465242994688
S11342909346C244D144CB448F42BF41C245894175
S11342A099459B41934592417F4249422D0C52428C
S11342B00F435B4213437F19FF185B463C19DB0D28
S11342C0059A64021C43430213435D1EAB415A46E4
S11342D0C00D034352021343E20156D501205A088C
S11342E003401343E207134364085A486044002818
S11342F04DDD5A0709D00F221A40042A05D01A1D91
S11343009A429B415B42E4181300E20104D58020E9
S1134310514AC00014406044504A904200DDE3E634
S11343200125DB0862071A436402019B9146220BB4
S11343304405640D1D407CE6802259461203114257
S113434008D0144206D122431203120B4546994663
S1134350434C6EE65B461A431203120B404C68E66C
S113436003005446283B9C400023B9E600F056F96C
S11343702030A6E60300283B9F400023BB46994615
S11343808AE600F04BF9203074E6B446ADE7012527
S11343902A1A382A06DD019B00241D40002300222E
S11343A0994646E61F2A21DC20252000AD1A1E006E
S11343B0AB40A840D6405D1EAB4130431843D440C7
S11343C0430709D00F230340042B05D00300181D15
S11343D098429B415B42E418230221D50125019BAD
S11343E001241D4000230022994622E61F252100B6
S11343F06D42281AC1400800202A1DD05F35AA1A30
S1134400944023435C1EA341072503431D4000221F
S1134410002D09D00F2200241A401800042AD6D1F6
S1134420030065076402220BDB082B430125994630
S1134430019B00241D40FCE50024E2E780220125C5
S11344401203224301991203120B0D409946044CA6
S1134450EFE5C046FF030000FFFFFFFEFE0700007C
S1134460FF0700004100090E4B1C70B5DBB2460289
S1134470750AC40F012B14DDE0239B006D07360B76
S1134480CB1800210A0D280012051C4D32435B0590
S11344902A405B0813435B00E4075B0823431900CD
S11344A070BD002914D1002D1ED0280000F0B6F8EC
S11344B00A281CDC0B232A001B1ADA4003001533DC
S11344C09D400F4B12031B1A5B05160B5B0DD8E7BF
S11344D0002D06D0320B802636036D071643094B98
S11344E0CFE7084B0026CCE700230026C9E70300EA
S11344F02A000B3B9A400025E3E7C046FFFF0F80EC
S113450089030000FF070000F0B54C00640D0B03A5
S1134510621C450F5B0A52052B43C90FC500520D9F
S1134520012A28DD3A4AA618FE2E1BDC002E3EDDA9
S113453080010200501E82416D0F2A43DB001343A9
S11345405A0704D00F221A40042A00D004338022D0
S1134550D2041A405AD00136FF2E03D09B015B0AC5
S1134560F4B201E0FF2400235802E405400AC9071D
S113457020430843F0BD002C07D01D43F2D0802017
S1134580DB0080040343FF26DAE72B4303D0052333
S1134590DB08FF2C03D05B025B0AE4B2E4E7002BE8
S11345A032D08020C00303435B025B0ADCE73200A5
S11345B0173214DB80221E2712041343BF1B1F2F44
S11345C00FDC144A944664442A00A5402E00A340FC
S11345D0751EAE41FA40334313430026B0E700246E
S11345E0D5E702225242961B1A00F240202F09D02E
S11345F0094884466444A3402B435D1EAB41002616
S113460013439DE70023F7E70023ADE73400BFE73A
S113461080FCFFFF82FCFFFFA2FCFFFF1C210123A3
S11346201B04984201D3000C10391B0A984201D391
S1134630000A08391B09984201D30009043902A26F
S1134640105C40187047C0460403020201010101D6
S1134650000000000000000070B500260C4D0D4C59
S1134660641BA410A64209D1002600F00FF90A4DDC
S11346700A4C641BA410A64205D170BDB300EB58CC
S113468098470136EEE7B300EB5898470136F2E756
S11346909848000098480000984800009C48000092
S11346A0002310B59A4200D110BDCC5CC454013330
S11346B0F8E7000049444C4500000000D41600000F
S11346C0D4160000D416000050160000161700007F
S11346D030170000D4160000D41600005016000055
S11346E016170000546D722053766300641800009E
S11346F04418000044180000D018000056180000A8
S1134700721800004818000080180000C01800004B
S1134710DC26000006270000102700001A270000EE
S1134720242700002E27000038270000422700001D
S11347304C27000056270000B2270000BE270000C7
S1134740CA270000D6270000E2270000EE27000059
S1134750FA27000006280000122800002028000084
S113476050494420436F6E74726F6C205461736BB4
S1134770000000004B657970616420262044697351
S1134780706C6179205461736B00000098300000F4
S1134790683000007A300000BC2F00007A3000003E
S11347A05E3000007A300000BC2F0000683000004A
S11347B0683000005E300000BC2F0000C42F0000F1
S11347C0C42F0000C42F00008030000068300000B7
S11347D0683000003C300000203100003C30000014
S11347E05E3000003C3000002031000068300000E2
S11347F0683000005E30000020310000C42F00004B
S1134800C42F0000C42F00002A3100001834000017
S11348106833000068330000663300000A34000087
S11348200A34000000340000663300000A3400003B
S1134830003400000A340000663300001034000025
S11348401034000010340000A03400005441000073
S11348501440000014400000104000002C410000EF
S11348602C4100001E410000104000002C410000BB
S11348701E4100002C4100001040000034410000A3
S1134880344100003441000038430000F8B5C0460C
S1134890F8BC08BC9E467047DD000000F8B5C04671
S10F48A0F8BC08BC9E467047B500000040
S11348ACAAAAAAAAFFFFFFFF010000000000000053
S11348BCE02D903A00000000B81E853DCDCCEC3FB5
S11348CCEC51B83D6F12833A010000000AD7A33BA8
S11348DC303030303030303001000000390000000E
S10748EC02000000C2
S9031B459C
