:100000008822002009010000050100000501000010
:1000100000000000000000000000000000000000E0
:1000200000000000000000000000000005010000CA
:1000300000000000000000000501000005010000B4
:100040000501000005010000050100000501000098
:100050000501000005010000050100000501000088
:100060000501000005010000050100000501000078
:100070000501000005010000050100000501000068
:100080000501000005010000050100000501000058
:100090000501000005010000050100000501000048
:1000A0000501000010B5064C2378002B07D1054B45
:1000B000002B02D0044800E000BF0123237010BDD4
:1000C0000000002000000000DC090000084B10B513
:1000D000002B03D00749084800E000BF0748036829
:1000E000002B00D110BD064B002BFBD09847F9E741
:1000F0000000000004000020DC090000DC09000012
:1001000000000000FEE7000010B51A4A1A4B9A42A0
:1001100011D01A00194B9A420DD2194A03339B1A77
:100120009B0801339B000022134812498C588450CD
:1001300004329A42FAD1134A134B9A420AD2D34359
:1001400011495B1803218B4304339B18002102C221
:100150009342FCD10D4AFF210D4B8B4393600D4A16
:1001600053687F390B4353600B4B98470B4B9847B1
:10017000FEE7C046DC09000000000020000000206F
:1001800004000020000000208802002000ED00E0B4
:10019000000000000040004141090000550300003C
:1001A000064A136A40210B431362054B11225A8001
:1001B0005A888021C9010A435A80704700040040D0
:1001C000000C00400C4B1A00CA3211780120014388
:1001D00011701900CB310A7802430A70B5331A78CE
:1001E0000F218A4303210A431A7019780F220A400B
:1001F00030210A431A70704700440041214B1A68AD
:100200001C218A4318390A431A601A681E490A4099
:100210001A601968C02292030A431A601968802282
:1002200052020A431A605A6807218A435A601968C1
:100230008022D2050A431A605A6840218A435A60D4
:100240005968802292000A435A60104A5A811A0063
:10025000138ADB0B012BFBD00A4B5A680C490A406E
:100260005A605968802252020A435A601A00138A5F
:10027000DB0B012BFBD0034A136802210B431360F5
:100280007047C04600180042FFFFFFEF2BF6FFFF4C
:10029000FFFFFDFF30B50A4B012402210BE09A7BE2
:1002A0002242FCD01A8B520A52022A431A8301308E
:1002B0009A7B0A42FCD00578002DF0D130BDC046B3
:1002C000001800421D4AC223DB009360136A4021DC
:1002D0008B4340310B431A490B401362136A0221CE
:1002E0000B431362174B00221A725A729A72DA7217
:1002F0009A6906310A439A610122134B1A70190058
:100300000B781342FCD1104A53785BB2002BFBDB15
:1003100000220E4B1A700C4A53785BB2002BFBDBA9
:1003200080225200084B9A601A0053785BB2002B6F
:10033000FBDB074A044B5A607047C0460008004088
:10034000FFFCFFFF00040040000C0040080C0040D0
:100350000006030070B54A4B98474A4B98474A4BF2
:1003600098474A4B98474A484A4B98474A4BF0228D
:100370009A60F0210903596059615A61EA3A5321A0
:100380005A5401395A5401395A5401395A5443497B
:100390001A00F024F02000030B6801330B60546155
:1003A000136A0342F8D03E4B1A683E4B9A4207DC70
:1003B0003B4B3C491A6801321A601A688A42F9DDDF
:1003C000364C20686421384B984721602368DBB2A3
:1003D000364803702F4CA0473548A047354C2600BF
:1003E000354D22E0002B20D12B4BF0225A611A6AA6
:1003F000F0231B031A4218D001222E4B1A6014E07E
:10040000254B1A6AF0231B031A422ED02B4A13687D
:1004100001331360294B1A68294B9A4229DC0022C8
:10042000244B1A60F0221C4B9A612368012BE7D001
:10043000D8DD022B48D0032BF7D11F4B1B68214876
:100440000022C254134B9847134BF0229A61E03AB2
:100450005A611B6ADB0304D50023174A1360154A4F
:100460001360F0220C4B9A61DFE70022134B1A60F5
:10047000D0E70022114B1A6002320E4B1A60D1E70E
:10048000C5020000A1010000C5010000FD0100003F
:10049000880900009502000000440041200000206F
:1004A00024000020E7030000350900005C01002063
:1004B000AC090000580100201C000020280000208A
:1004C0005FEA00002C000020A14BF0229A61703AF4
:1004D0005A611B6A1B0311D59E4B7F329A60063A04
:1004E0009A61F33A5A619C4B1A6831209B498854AF
:1004F0001A6801321A600022994B1A60944B1B6AE9
:100500005B0311D5934BFF229A605B3A9A61493A9B
:100510005A61914B1A683220904988541A68013206
:100520001A6000228E4B1A60894B1B6A9B0311D5FF
:10053000884BFF229A604F3A9A61613A5A61864B22
:100540001A683320854988541A6801321A600022DB
:10055000834B1A607E4B1B6ADB0311D57D4BFF2258
:100560009A60773A9A61113A5A617B4B1A68612016
:100570007A4988541A6801321A600022784B1A604E
:10058000734BF0229A619A61B03A5A611B6A1B035D
:1005900015D5704BBF329A60663A9A61333A5A6108
:1005A000704A1368013313606B4B1A6834206B492F
:1005B00088541A6801321A600022694B1A60644B31
:1005C0001B6A5B0315D5634BFF229A606D3A9A61F3
:1005D000253A5A61634A1368013313605E4B1A6807
:1005E00035205E4988541A6801321A6000225C4B3B
:1005F0001A60574B1B6A9B0311D5564BFF229A601A
:100600007D3A9A61053A5A61534B1A68362053492C
:1006100088541A6801321A600022514B1A604C4B00
:100620001B6ADB0311D54B4BFF229A607C3A9A611F
:10063000073A5A61484B1A686220484988541A6838
:1006400001321A600022464B1A60414BF0229A6137
:100650009A61D03A5A611B6A1B0311D53D4BDF32B8
:100660009A60273A9A61B13A5A613B4B1A6837202F
:100670003A4988541A6801321A600022384B1A60CD
:10068000334B1B6A5B0312D58022314BD318FF21F9
:1006900099609A61013A5A612F4B1A6838202F49A4
:1006A00088541A6801321A6000222D4B1A60284BB8
:1006B0001B6A9B0311D5274BFF229A60673A9A6108
:1006C000313A5A61244B1A683920244988541A68EF
:1006D00001321A600022224B1A601D4B1B6ADB0399
:1006E00011D51C4BFF229A60393A9A618D3A5A61B2
:1006F000194B1A686320194988541A6801321A6024
:100700000022174B1A60124BF0229A619A61E03A6C
:100710005A611B6A5B0310D50E4BEF329A603F3A69
:100720009A61823A5A612B6830210C4AD1542B6865
:1007300001332B6000220A4B1A60054B1B6ADB0356
:1007400001D503233360F022014B9A616DE6C04668
:1007500000440041804400411C0000202C00002087
:10076000580100202800002003460B437FD40022BC
:1007700043088B4274D303098B425FD3030A8B4235
:1007800044D3030B8B4228D3030C8B420DD3FF229F
:10079000090212BA030C8B4202D31212090265D06D
:1007A000030B8B4219D300E0090AC30B8B4201D320
:1007B000CB03C01A5241830B8B4201D38B03C01A67
:1007C0005241430B8B4201D34B03C01A5241030BDE
:1007D0008B4201D30B03C01A5241C30A8B4201D38F
:1007E000CB02C01A5241830A8B4201D38B02C01A3A
:1007F0005241430A8B4201D34B02C01A5241030AB1
:100800008B4201D30B02C01A5241CDD2C3098B4295
:1008100001D3CB01C01A524183098B4201D38B0112
:10082000C01A524143098B4201D34B01C01A5241B5
:1008300003098B4201D30B01C01A5241C3088B42FA
:1008400001D3CB00C01A524183088B4201D38B00E5
:10085000C01A524143088B4201D34B00C01A524187
:10086000411A00D201465241104670475DE0CA0F5E
:1008700000D04942031000D34042534000229C461E
:1008800003098B422DD3030A8B4212D3FC22890128
:1008900012BA030A8B420CD3890192118B4208D3FE
:1008A000890192118B4204D389013AD0921100E060
:1008B0008909C3098B4201D3CB01C01A5241830974
:1008C0008B4201D38B01C01A524143098B4201D3A1
:1008D0004B01C01A524103098B4201D30B01C01ACC
:1008E0005241C3088B4201D3CB00C01A5241830846
:1008F0008B4201D38B00C01A5241D9D243088B429C
:1009000001D34B00C01A5241411A00D2014663463E
:1009100052415B10104601D34042002B00D54942A2
:10092000704763465B1000D3404201B5002000F0E1
:1009300005F802BD0029F8D016E770477047C04699
:1009400070B500260C4D0D4C641BA410A64209D1B5
:10095000002600F033F80A4D0A4C641BA410A6428E
:1009600005D170BDB300EB5898470136EEE7B300F0
:10097000EB5898470136F2E7C8090000C8090000A3
:10098000C8090000CC090000507265737320616EC5
:1009900079204B455920746F2073746172742074F0
:1009A00068652067616D65200A00000067616D65FC
:1009B0002073746172742121200A0000F8B5C046CA
:1009C000F8BC08BC9E467047CD000000F8B5C04694
:0C09D000F8BC08BC9E467047A500000063
:0400000300000109EF
:00000001FF
