S01100004C61622032204144432E73726563CA
S113000030200020150100000D0200000D02000048
S113001000000000000000000000000000000000DC
S11300200000000000000000000000000D020000BD
S113003000000000000000000D0200000D0200009E
S11300400D0200000D0200000D0200000D02000070
S11300500D0200000D0200000D0200000D02000060
S11300600D0200000D0200000D0200000D02000050
S11300700D0200000D0200000D0200000D02000040
S11300800D0200000D0200000D0200000D02000030
S11300900D0200000D0200000D0200000D02000020
S11300A00D0200000D0200000D0200000D02000010
S11300B00000000010B5064C2378002B07D1054B37
S11300C0002B02D0044800E000BF0123237010BDC0
S11300D0000000200000000054090000084B10B587
S11300E0002B03D00749084800E000BF0748036815
S11300F0002B00D110BD064B002BFBD09847F9E72D
S1130100000000000400002054090000540900000D
S11301100000000080B582B000AF2F4B7B602F4BF6
S11301203B607A683B689A420CD007E03B681A1D32
S11301303A607A68111D796012681A603A68284B2F
S11301409A42F3D3274B3B6004E03B681A1D3A60A4
S113015000221A603A68244B9A42F6D3234B7B6000
S1130160234B7A68FF218A439A60224A90235B00DA
S11301700221D150204AD37803218B43191C022336
S11301800B43D3701C4AD3780C218B43191C0823CE
S11301900B43D370194A937B30218B43191C2023C2
S11301A00B439373154A937B0C218B43191C08232F
S11301B00B439373114A937B03218B43191C022332
S11301C00B4393730E4A536880210B4353600D4BCA
S11301D098470D4B9847FEE75409000000000020A3
S11301E000000020000000202C000020000000007F
S11301F000ED00E000700041005000410048004163
S113020000400041310800001502000080B500AF35
S1130210FEE7000080B582B000AF174B174A1A60A2
S1130220174B9847174B9847174B9847174B1B7E0C
S1130230DB07DB0FDBB2002B09D0C046134B5B7E20
S1130240DBB2802BFAD0114B5B8B9BB27B607B685B
S1130250A52252005A430E4B0E4910009847030042
S11302603B603B6818000C4B9847034B1B68180015
S11302700A4B9847DAE7C046280000201C000020FB
S1130280A1020000490400007D0300000040004278
S113029059060000FF0F0000D9030000A904000064
S11302A080B500AF2D4BC222D2009A602B4B2B4A53
S11302B0126A02210A431A62284B284A126A8021D0
S11302C009060A431A62254A136A25490B40136238
S11302D0224B224A126A80210A431A62214B0122CC
S11302E01A70C0461F4B5B78DBB2802BFAD01D4BD3
S11302F0802252009A601B4B1B4A5A60194B1B4ABE
S11303005A80184B1A4A5A80164B1A4A5A80C046C9
S1130310194B02225A70184B00221A72164B0022F3
S11303205A72154B00229A72134B0022DA72124B46
S113033040229A61104B0822DA610F4B0E4A126A6E
S1130340802149020A431A620B4B0B4A126A80212C
S113035089030A431A62C046BD4680BD00080040B6
S1130360FFFCFFFF000C00400006290005400000D0
S11303701E400000214000000004004080B500AF92
S1130380134B01221A70C046114B5B7EDBB2802BEB
S1130390FAD00F4B82225A700D4B00229A700C4BEC
S11303A0C12292009A800A4B0A4A1A61084A2A23F7
S11303B00121D154064B0122DA75054A137B02212F
S11303C00B431373024B06221A70C046BD4680BD10
S11303D0004000421318000F80B582B000AF78606F
S11303E07868164BFA22910098470B007B607A6874
S11303F0134B64211000984703001A00114B1A6034
S11304007A680E4B6421100098470B007B607A6871
S11304100B4B0A211000984703001A00094B5A603D
S11304207A68064B0A21100098470B007B60054B45
S11304307A689A60C046BD4602B080BD25080000B7
S1130440590600001C00002080B584B000AF144B96
S1130450FB60FB68BB60FB6880337B60BB68F02299
S11304609A607B68FF229A607B68FF229A61BB686E
S1130470802212015A60BA684521535C012003436B
S11304805354BB68802252019A60BB688022520197
S11304909A610A20034B9847C046BD4604B080BD0C
S11304A0004400412906000080B586B000AF7860A2
S11304B0334B7B617B693B617B698033FB603B69C8
S11304C0F0229A60FB68FF229A60FB68FF229A611F
S11304D00023BB604BE0BB685A1CBA60012B19D0E7
S11304E002DC002B05D042E0022B20D0032B2FD0BE
S11304F03DE07B681A1D7A601B681800214B984701
S11305003B6910225A6101201F4B98473B69102216
S11305109A612CE02E201B4B98473B6920225A619C
S11305200120194B98473B6920229A611FE07B68A0
S11305301A1D7A601B681800124B98473B694022C9
S11305405A610120104B98473B6940229A610EE0A2
S11305507B681B6818000B4B98473B6980225A61E3
S11305600120094B98473B6980229A61C046BB68C9
S1130570032BB0DD0023BB60C046BD4606B080BD82
S1130580004400418D0500002906000080B584B0B8
S113059000AF7860224BFB60FB688033BB60BB68B4
S11305A0FF229A617B682E2B31D87B689A001D4B01
S11305B0D3181B689F46BB683F225A612BE0BB6877
S11305C006225A6127E0BB685B225A6123E0BB68BC
S11305D04F225A611FE0BB6866225A611BE0BB6868
S11305E06D225A6117E0BB687D225A6113E0BB6833
S11305F007225A610FE0BB687F225A610BE0BB6897
S113060067225A6107E0BB6880225A6103E0BB6835
S113061003225A61C046C046BD4604B080BDC046F0
S1130620004400417808000080B584B000AF7860D1
S11306300023FB600023FB6002E0FB680133FB60E6
S11306407B68FA2292005A43FB689A42F5DCC04662
S1130650BD4604B080BD000003460B437FD4002296
S113066043088B4274D303098B425FD3030A8B4242
S113067044D3030B8B4228D3030C8B420DD3FF22AC
S1130680090212BA030C8B4202D31212090265D07A
S1130690030B8B4219D300E0090AC30B8B4201D32D
S11306A0CB03C01A5241830B8B4201D38B03C01A74
S11306B05241430B8B4201D34B03C01A5241030BEB
S11306C08B4201D30B03C01A5241C30A8B4201D39C
S11306D0CB02C01A5241830A8B4201D38B02C01A47
S11306E05241430A8B4201D34B02C01A5241030ABE
S11306F08B4201D30B02C01A5241CDD2C3098B42A3
S113070001D3CB01C01A524183098B4201D38B011F
S1130710C01A524143098B4201D34B01C01A5241C2
S113072003098B4201D30B01C01A5241C3088B4207
S113073001D3CB00C01A524183088B4201D38B00F2
S1130740C01A524143088B4201D34B00C01A524194
S1130750411A00D201465241104670475DE0CA0F6B
S113076000D04942031000D34042534000229C462B
S113077003098B422DD3030A8B4212D3FC22890135
S113078012BA030A8B420CD3890192118B4208D30B
S1130790890192118B4204D389013AD0921100E06D
S11307A08909C3098B4201D3CB01C01A5241830981
S11307B08B4201D38B01C01A524143098B4201D3AE
S11307C04B01C01A524103098B4201D30B01C01AD9
S11307D05241C3088B4201D3CB00C01A5241830853
S11307E08B4201D38B00C01A5241D9D243088B42A9
S11307F001D34B00C01A5241411A00D2014663464C
S113080052415B10104601D34042002B00D54942AF
S1130810704763465B1000D3404201B5002000F0EE
S113082005F802BD0029F8D016E770477047C046A6
S113083070B500260C4D0D4C641BA410A64209D1C2
S1130840002600F077F80A4D0A4C641BA410A64257
S113085005D170BDB300EB5898470136EEE7B300FD
S1130860EB5898470136F2E74009000040090000C0
S11308704009000044090000B6050000BE05000060
S1130880C6050000CE050000D6050000DE05000008
S1130890E6050000EE050000F6050000FE05000078
S11308A00E0600000E0600000E0600000E060000F4
S11308B00E0600000E0600000E0600000E060000E4
S11308C00E0600000E0600000E0600000E060000D4
S11308D00E0600000E0600000E0600000E060000C4
S11308E00E0600000E0600000E0600000E060000B4
S11308F00E0600000E0600000E0600000E060000A4
S11309000E0600000E0600000E0600000E06000093
S11309100E0600000E0600000E0600000E06000083
S11309200E0600000E0600000E0600000E06000073
S113093006060000F8B5C046F8BC08BC9E467047E1
S1130940DD000000F8B5C046F8BC08BC9E46704700
S1070950B5000000EA
S9030115E6
